{
	"contracts/24-Aug-assignment-2.sol": {
		"task1": {
			"abi": [
				{
					"inputs": [
						{
							"internalType": "int256",
							"name": "a",
							"type": "int256"
						},
						{
							"internalType": "int256",
							"name": "b",
							"type": "int256"
						}
					],
					"name": "evaluate",
					"outputs": [
						{
							"internalType": "int256",
							"name": "",
							"type": "int256"
						}
					],
					"stateMutability": "pure",
					"type": "function"
				},
				{
					"inputs": [],
					"name": "getNumber",
					"outputs": [
						{
							"internalType": "uint256",
							"name": "",
							"type": "uint256"
						}
					],
					"stateMutability": "view",
					"type": "function"
				},
				{
					"inputs": [
						{
							"internalType": "uint256",
							"name": "_num",
							"type": "uint256"
						}
					],
					"name": "setNumber",
					"outputs": [],
					"stateMutability": "nonpayable",
					"type": "function"
				}
			],
			"devdoc": {
				"kind": "dev",
				"methods": {},
				"version": 1
			},
			"evm": {
				"assembly": "    /* \"contracts/24-Aug-assignment-2.sol\":64:489  contract task1 ... */\n  mstore(0x40, 0x80)\n  callvalue\n  dup1\n  iszero\n  tag_1\n  jumpi\n  0x00\n  dup1\n  revert\ntag_1:\n  pop\n  dataSize(sub_0)\n  dup1\n  dataOffset(sub_0)\n  0x00\n  codecopy\n  0x00\n  return\nstop\n\nsub_0: assembly {\n        /* \"contracts/24-Aug-assignment-2.sol\":64:489  contract task1 ... */\n      mstore(0x40, 0x80)\n      callvalue\n      dup1\n      iszero\n      tag_1\n      jumpi\n      0x00\n      dup1\n      revert\n    tag_1:\n      pop\n      jumpi(tag_2, lt(calldatasize, 0x04))\n      shr(0xe0, calldataload(0x00))\n      dup1\n      0x3fb5c1cb\n      eq\n      tag_3\n      jumpi\n      dup1\n      0xf2c9ecd8\n      eq\n      tag_4\n      jumpi\n      dup1\n      0xf8bb49a1\n      eq\n      tag_5\n      jumpi\n    tag_2:\n      0x00\n      dup1\n      revert\n        /* \"contracts/24-Aug-assignment-2.sol\":120:184  function setNumber(uint _num) public {... */\n    tag_3:\n      tag_6\n      0x04\n      dup1\n      calldatasize\n      sub\n      dup2\n      add\n      swap1\n      tag_7\n      swap2\n      swap1\n      tag_8\n      jump\t// in\n    tag_7:\n      tag_9\n      jump\t// in\n    tag_6:\n      stop\n        /* \"contracts/24-Aug-assignment-2.sol\":190:265  function getNumber() public view returns (uint) {... */\n    tag_4:\n      tag_10\n      tag_11\n      jump\t// in\n    tag_10:\n      mload(0x40)\n      tag_12\n      swap2\n      swap1\n      tag_13\n      jump\t// in\n    tag_12:\n      mload(0x40)\n      dup1\n      swap2\n      sub\n      swap1\n      return\n        /* \"contracts/24-Aug-assignment-2.sol\":308:479  function evaluate(int a, int b) public pure returns (int){... */\n    tag_5:\n      tag_14\n      0x04\n      dup1\n      calldatasize\n      sub\n      dup2\n      add\n      swap1\n      tag_15\n      swap2\n      swap1\n      tag_16\n      jump\t// in\n    tag_15:\n      tag_17\n      jump\t// in\n    tag_14:\n      mload(0x40)\n      tag_18\n      swap2\n      swap1\n      tag_19\n      jump\t// in\n    tag_18:\n      mload(0x40)\n      dup1\n      swap2\n      sub\n      swap1\n      return\n        /* \"contracts/24-Aug-assignment-2.sol\":120:184  function setNumber(uint _num) public {... */\n    tag_9:\n        /* \"contracts/24-Aug-assignment-2.sol\":173:177  _num */\n      dup1\n        /* \"contracts/24-Aug-assignment-2.sol\":167:170  num */\n      0x00\n        /* \"contracts/24-Aug-assignment-2.sol\":167:177  num = _num */\n      dup2\n      swap1\n      sstore\n      pop\n        /* \"contracts/24-Aug-assignment-2.sol\":120:184  function setNumber(uint _num) public {... */\n      pop\n      jump\t// out\n        /* \"contracts/24-Aug-assignment-2.sol\":190:265  function getNumber() public view returns (uint) {... */\n    tag_11:\n        /* \"contracts/24-Aug-assignment-2.sol\":232:236  uint */\n      0x00\n        /* \"contracts/24-Aug-assignment-2.sol\":255:258  num */\n      dup1\n      sload\n        /* \"contracts/24-Aug-assignment-2.sol\":248:258  return num */\n      swap1\n      pop\n        /* \"contracts/24-Aug-assignment-2.sol\":190:265  function getNumber() public view returns (uint) {... */\n      swap1\n      jump\t// out\n        /* \"contracts/24-Aug-assignment-2.sol\":308:479  function evaluate(int a, int b) public pure returns (int){... */\n    tag_17:\n        /* \"contracts/24-Aug-assignment-2.sol\":361:364  int */\n      0x00\n        /* \"contracts/24-Aug-assignment-2.sol\":375:383  int diff */\n      dup1\n        /* \"contracts/24-Aug-assignment-2.sol\":390:391  b */\n      dup3\n        /* \"contracts/24-Aug-assignment-2.sol\":386:387  a */\n      dup5\n        /* \"contracts/24-Aug-assignment-2.sol\":386:391  a - b */\n      tag_23\n      swap2\n      swap1\n      tag_24\n      jump\t// in\n    tag_23:\n        /* \"contracts/24-Aug-assignment-2.sol\":375:391  int diff = a - b */\n      swap1\n      pop\n        /* \"contracts/24-Aug-assignment-2.sol\":401:408  int sum */\n      0x00\n        /* \"contracts/24-Aug-assignment-2.sol\":415:416  b */\n      dup4\n        /* \"contracts/24-Aug-assignment-2.sol\":411:412  a */\n      dup6\n        /* \"contracts/24-Aug-assignment-2.sol\":411:416  a + b */\n      tag_25\n      swap2\n      swap1\n      tag_26\n      jump\t// in\n    tag_25:\n        /* \"contracts/24-Aug-assignment-2.sol\":401:416  int sum = a + b */\n      swap1\n      pop\n        /* \"contracts/24-Aug-assignment-2.sol\":426:436  int result */\n      0x00\n        /* \"contracts/24-Aug-assignment-2.sol\":445:449  diff */\n      dup3\n        /* \"contracts/24-Aug-assignment-2.sol\":439:442  sum */\n      dup3\n        /* \"contracts/24-Aug-assignment-2.sol\":439:449  sum - diff */\n      tag_27\n      swap2\n      swap1\n      tag_24\n      jump\t// in\n    tag_27:\n        /* \"contracts/24-Aug-assignment-2.sol\":426:449  int result = sum - diff */\n      swap1\n      pop\n        /* \"contracts/24-Aug-assignment-2.sol\":466:472  result */\n      dup1\n        /* \"contracts/24-Aug-assignment-2.sol\":459:472  return result */\n      swap4\n      pop\n      pop\n      pop\n      pop\n        /* \"contracts/24-Aug-assignment-2.sol\":308:479  function evaluate(int a, int b) public pure returns (int){... */\n      swap3\n      swap2\n      pop\n      pop\n      jump\t// out\n        /* \"#utility.yul\":88:205   */\n    tag_29:\n        /* \"#utility.yul\":197:198   */\n      0x00\n        /* \"#utility.yul\":194:195   */\n      dup1\n        /* \"#utility.yul\":187:199   */\n      revert\n        /* \"#utility.yul\":334:411   */\n    tag_31:\n        /* \"#utility.yul\":371:378   */\n      0x00\n        /* \"#utility.yul\":400:405   */\n      dup2\n        /* \"#utility.yul\":389:405   */\n      swap1\n      pop\n        /* \"#utility.yul\":334:411   */\n      swap2\n      swap1\n      pop\n      jump\t// out\n        /* \"#utility.yul\":417:539   */\n    tag_32:\n        /* \"#utility.yul\":490:514   */\n      tag_46\n        /* \"#utility.yul\":508:513   */\n      dup2\n        /* \"#utility.yul\":490:514   */\n      tag_31\n      jump\t// in\n    tag_46:\n        /* \"#utility.yul\":483:488   */\n      dup2\n        /* \"#utility.yul\":480:515   */\n      eq\n        /* \"#utility.yul\":470:533   */\n      tag_47\n      jumpi\n        /* \"#utility.yul\":529:530   */\n      0x00\n        /* \"#utility.yul\":526:527   */\n      dup1\n        /* \"#utility.yul\":519:531   */\n      revert\n        /* \"#utility.yul\":470:533   */\n    tag_47:\n        /* \"#utility.yul\":417:539   */\n      pop\n      jump\t// out\n        /* \"#utility.yul\":545:684   */\n    tag_33:\n        /* \"#utility.yul\":591:596   */\n      0x00\n        /* \"#utility.yul\":629:635   */\n      dup2\n        /* \"#utility.yul\":616:636   */\n      calldataload\n        /* \"#utility.yul\":607:636   */\n      swap1\n      pop\n        /* \"#utility.yul\":645:678   */\n      tag_49\n        /* \"#utility.yul\":672:677   */\n      dup2\n        /* \"#utility.yul\":645:678   */\n      tag_32\n      jump\t// in\n    tag_49:\n        /* \"#utility.yul\":545:684   */\n      swap3\n      swap2\n      pop\n      pop\n      jump\t// out\n        /* \"#utility.yul\":690:1019   */\n    tag_8:\n        /* \"#utility.yul\":749:755   */\n      0x00\n        /* \"#utility.yul\":798:800   */\n      0x20\n        /* \"#utility.yul\":786:795   */\n      dup3\n        /* \"#utility.yul\":777:784   */\n      dup5\n        /* \"#utility.yul\":773:796   */\n      sub\n        /* \"#utility.yul\":769:801   */\n      slt\n        /* \"#utility.yul\":766:885   */\n      iszero\n      tag_51\n      jumpi\n        /* \"#utility.yul\":804:883   */\n      tag_52\n      tag_29\n      jump\t// in\n    tag_52:\n        /* \"#utility.yul\":766:885   */\n    tag_51:\n        /* \"#utility.yul\":924:925   */\n      0x00\n        /* \"#utility.yul\":949:1002   */\n      tag_53\n        /* \"#utility.yul\":994:1001   */\n      dup5\n        /* \"#utility.yul\":985:991   */\n      dup3\n        /* \"#utility.yul\":974:983   */\n      dup6\n        /* \"#utility.yul\":970:992   */\n      add\n        /* \"#utility.yul\":949:1002   */\n      tag_33\n      jump\t// in\n    tag_53:\n        /* \"#utility.yul\":939:1002   */\n      swap2\n      pop\n        /* \"#utility.yul\":895:1012   */\n      pop\n        /* \"#utility.yul\":690:1019   */\n      swap3\n      swap2\n      pop\n      pop\n      jump\t// out\n        /* \"#utility.yul\":1025:1143   */\n    tag_34:\n        /* \"#utility.yul\":1112:1136   */\n      tag_55\n        /* \"#utility.yul\":1130:1135   */\n      dup2\n        /* \"#utility.yul\":1112:1136   */\n      tag_31\n      jump\t// in\n    tag_55:\n        /* \"#utility.yul\":1107:1110   */\n      dup3\n        /* \"#utility.yul\":1100:1137   */\n      mstore\n        /* \"#utility.yul\":1025:1143   */\n      pop\n      pop\n      jump\t// out\n        /* \"#utility.yul\":1149:1371   */\n    tag_13:\n        /* \"#utility.yul\":1242:1246   */\n      0x00\n        /* \"#utility.yul\":1280:1282   */\n      0x20\n        /* \"#utility.yul\":1269:1278   */\n      dup3\n        /* \"#utility.yul\":1265:1283   */\n      add\n        /* \"#utility.yul\":1257:1283   */\n      swap1\n      pop\n        /* \"#utility.yul\":1293:1364   */\n      tag_57\n        /* \"#utility.yul\":1361:1362   */\n      0x00\n        /* \"#utility.yul\":1350:1359   */\n      dup4\n        /* \"#utility.yul\":1346:1363   */\n      add\n        /* \"#utility.yul\":1337:1343   */\n      dup5\n        /* \"#utility.yul\":1293:1364   */\n      tag_34\n      jump\t// in\n    tag_57:\n        /* \"#utility.yul\":1149:1371   */\n      swap3\n      swap2\n      pop\n      pop\n      jump\t// out\n        /* \"#utility.yul\":1377:1453   */\n    tag_35:\n        /* \"#utility.yul\":1413:1420   */\n      0x00\n        /* \"#utility.yul\":1442:1447   */\n      dup2\n        /* \"#utility.yul\":1431:1447   */\n      swap1\n      pop\n        /* \"#utility.yul\":1377:1453   */\n      swap2\n      swap1\n      pop\n      jump\t// out\n        /* \"#utility.yul\":1459:1579   */\n    tag_36:\n        /* \"#utility.yul\":1531:1554   */\n      tag_60\n        /* \"#utility.yul\":1548:1553   */\n      dup2\n        /* \"#utility.yul\":1531:1554   */\n      tag_35\n      jump\t// in\n    tag_60:\n        /* \"#utility.yul\":1524:1529   */\n      dup2\n        /* \"#utility.yul\":1521:1555   */\n      eq\n        /* \"#utility.yul\":1511:1573   */\n      tag_61\n      jumpi\n        /* \"#utility.yul\":1569:1570   */\n      0x00\n        /* \"#utility.yul\":1566:1567   */\n      dup1\n        /* \"#utility.yul\":1559:1571   */\n      revert\n        /* \"#utility.yul\":1511:1573   */\n    tag_61:\n        /* \"#utility.yul\":1459:1579   */\n      pop\n      jump\t// out\n        /* \"#utility.yul\":1585:1722   */\n    tag_37:\n        /* \"#utility.yul\":1630:1635   */\n      0x00\n        /* \"#utility.yul\":1668:1674   */\n      dup2\n        /* \"#utility.yul\":1655:1675   */\n      calldataload\n        /* \"#utility.yul\":1646:1675   */\n      swap1\n      pop\n        /* \"#utility.yul\":1684:1716   */\n      tag_63\n        /* \"#utility.yul\":1710:1715   */\n      dup2\n        /* \"#utility.yul\":1684:1716   */\n      tag_36\n      jump\t// in\n    tag_63:\n        /* \"#utility.yul\":1585:1722   */\n      swap3\n      swap2\n      pop\n      pop\n      jump\t// out\n        /* \"#utility.yul\":1728:2198   */\n    tag_16:\n        /* \"#utility.yul\":1794:1800   */\n      0x00\n        /* \"#utility.yul\":1802:1808   */\n      dup1\n        /* \"#utility.yul\":1851:1853   */\n      0x40\n        /* \"#utility.yul\":1839:1848   */\n      dup4\n        /* \"#utility.yul\":1830:1837   */\n      dup6\n        /* \"#utility.yul\":1826:1849   */\n      sub\n        /* \"#utility.yul\":1822:1854   */\n      slt\n        /* \"#utility.yul\":1819:1938   */\n      iszero\n      tag_65\n      jumpi\n        /* \"#utility.yul\":1857:1936   */\n      tag_66\n      tag_29\n      jump\t// in\n    tag_66:\n        /* \"#utility.yul\":1819:1938   */\n    tag_65:\n        /* \"#utility.yul\":1977:1978   */\n      0x00\n        /* \"#utility.yul\":2002:2054   */\n      tag_67\n        /* \"#utility.yul\":2046:2053   */\n      dup6\n        /* \"#utility.yul\":2037:2043   */\n      dup3\n        /* \"#utility.yul\":2026:2035   */\n      dup7\n        /* \"#utility.yul\":2022:2044   */\n      add\n        /* \"#utility.yul\":2002:2054   */\n      tag_37\n      jump\t// in\n    tag_67:\n        /* \"#utility.yul\":1992:2054   */\n      swap3\n      pop\n        /* \"#utility.yul\":1948:2064   */\n      pop\n        /* \"#utility.yul\":2103:2105   */\n      0x20\n        /* \"#utility.yul\":2129:2181   */\n      tag_68\n        /* \"#utility.yul\":2173:2180   */\n      dup6\n        /* \"#utility.yul\":2164:2170   */\n      dup3\n        /* \"#utility.yul\":2153:2162   */\n      dup7\n        /* \"#utility.yul\":2149:2171   */\n      add\n        /* \"#utility.yul\":2129:2181   */\n      tag_37\n      jump\t// in\n    tag_68:\n        /* \"#utility.yul\":2119:2181   */\n      swap2\n      pop\n        /* \"#utility.yul\":2074:2191   */\n      pop\n        /* \"#utility.yul\":1728:2198   */\n      swap3\n      pop\n      swap3\n      swap1\n      pop\n      jump\t// out\n        /* \"#utility.yul\":2204:2319   */\n    tag_38:\n        /* \"#utility.yul\":2289:2312   */\n      tag_70\n        /* \"#utility.yul\":2306:2311   */\n      dup2\n        /* \"#utility.yul\":2289:2312   */\n      tag_35\n      jump\t// in\n    tag_70:\n        /* \"#utility.yul\":2284:2287   */\n      dup3\n        /* \"#utility.yul\":2277:2313   */\n      mstore\n        /* \"#utility.yul\":2204:2319   */\n      pop\n      pop\n      jump\t// out\n        /* \"#utility.yul\":2325:2543   */\n    tag_19:\n        /* \"#utility.yul\":2416:2420   */\n      0x00\n        /* \"#utility.yul\":2454:2456   */\n      0x20\n        /* \"#utility.yul\":2443:2452   */\n      dup3\n        /* \"#utility.yul\":2439:2457   */\n      add\n        /* \"#utility.yul\":2431:2457   */\n      swap1\n      pop\n        /* \"#utility.yul\":2467:2536   */\n      tag_72\n        /* \"#utility.yul\":2533:2534   */\n      0x00\n        /* \"#utility.yul\":2522:2531   */\n      dup4\n        /* \"#utility.yul\":2518:2535   */\n      add\n        /* \"#utility.yul\":2509:2515   */\n      dup5\n        /* \"#utility.yul\":2467:2536   */\n      tag_38\n      jump\t// in\n    tag_72:\n        /* \"#utility.yul\":2325:2543   */\n      swap3\n      swap2\n      pop\n      pop\n      jump\t// out\n        /* \"#utility.yul\":2549:2729   */\n    tag_39:\n        /* \"#utility.yul\":2597:2674   */\n      0x4e487b7100000000000000000000000000000000000000000000000000000000\n        /* \"#utility.yul\":2594:2595   */\n      0x00\n        /* \"#utility.yul\":2587:2675   */\n      mstore\n        /* \"#utility.yul\":2694:2698   */\n      0x11\n        /* \"#utility.yul\":2691:2692   */\n      0x04\n        /* \"#utility.yul\":2684:2699   */\n      mstore\n        /* \"#utility.yul\":2718:2722   */\n      0x24\n        /* \"#utility.yul\":2715:2716   */\n      0x00\n        /* \"#utility.yul\":2708:2723   */\n      revert\n        /* \"#utility.yul\":2735:3107   */\n    tag_24:\n        /* \"#utility.yul\":2774:2778   */\n      0x00\n        /* \"#utility.yul\":2794:2813   */\n      tag_75\n        /* \"#utility.yul\":2811:2812   */\n      dup3\n        /* \"#utility.yul\":2794:2813   */\n      tag_35\n      jump\t// in\n    tag_75:\n        /* \"#utility.yul\":2789:2813   */\n      swap2\n      pop\n        /* \"#utility.yul\":2827:2846   */\n      tag_76\n        /* \"#utility.yul\":2844:2845   */\n      dup4\n        /* \"#utility.yul\":2827:2846   */\n      tag_35\n      jump\t// in\n    tag_76:\n        /* \"#utility.yul\":2822:2846   */\n      swap3\n      pop\n        /* \"#utility.yul\":2870:2871   */\n      dup3\n        /* \"#utility.yul\":2867:2868   */\n      dup3\n        /* \"#utility.yul\":2863:2872   */\n      sub\n        /* \"#utility.yul\":2855:2872   */\n      swap1\n      pop\n        /* \"#utility.yul\":3064:3065   */\n      dup2\n        /* \"#utility.yul\":3058:3062   */\n      dup2\n        /* \"#utility.yul\":3054:3066   */\n      slt\n        /* \"#utility.yul\":3050:3051   */\n      0x00\n        /* \"#utility.yul\":3047:3048   */\n      dup5\n        /* \"#utility.yul\":3043:3052   */\n      slt\n        /* \"#utility.yul\":3039:3067   */\n      and\n        /* \"#utility.yul\":3022:3023   */\n      dup3\n        /* \"#utility.yul\":3016:3020   */\n      dup3\n        /* \"#utility.yul\":3012:3024   */\n      sgt\n        /* \"#utility.yul\":3007:3008   */\n      0x00\n        /* \"#utility.yul\":3004:3005   */\n      dup6\n        /* \"#utility.yul\":3000:3009   */\n      slt\n        /* \"#utility.yul\":2993:3010   */\n      iszero\n        /* \"#utility.yul\":2989:3025   */\n      and\n        /* \"#utility.yul\":2973:3077   */\n      or\n        /* \"#utility.yul\":2970:3100   */\n      iszero\n      tag_77\n      jumpi\n        /* \"#utility.yul\":3080:3098   */\n      tag_78\n      tag_39\n      jump\t// in\n    tag_78:\n        /* \"#utility.yul\":2970:3100   */\n    tag_77:\n        /* \"#utility.yul\":2735:3107   */\n      swap3\n      swap2\n      pop\n      pop\n      jump\t// out\n        /* \"#utility.yul\":3113:3488   */\n    tag_26:\n        /* \"#utility.yul\":3152:3155   */\n      0x00\n        /* \"#utility.yul\":3171:3190   */\n      tag_80\n        /* \"#utility.yul\":3188:3189   */\n      dup3\n        /* \"#utility.yul\":3171:3190   */\n      tag_35\n      jump\t// in\n    tag_80:\n        /* \"#utility.yul\":3166:3190   */\n      swap2\n      pop\n        /* \"#utility.yul\":3204:3223   */\n      tag_81\n        /* \"#utility.yul\":3221:3222   */\n      dup4\n        /* \"#utility.yul\":3204:3223   */\n      tag_35\n      jump\t// in\n    tag_81:\n        /* \"#utility.yul\":3199:3223   */\n      swap3\n      pop\n        /* \"#utility.yul\":3246:3247   */\n      dup3\n        /* \"#utility.yul\":3243:3244   */\n      dup3\n        /* \"#utility.yul\":3239:3248   */\n      add\n        /* \"#utility.yul\":3232:3248   */\n      swap1\n      pop\n        /* \"#utility.yul\":3444:3445   */\n      dup3\n        /* \"#utility.yul\":3439:3442   */\n      dup2\n        /* \"#utility.yul\":3435:3446   */\n      slt\n        /* \"#utility.yul\":3428:3447   */\n      iszero\n        /* \"#utility.yul\":3424:3425   */\n      0x00\n        /* \"#utility.yul\":3421:3422   */\n      dup4\n        /* \"#utility.yul\":3417:3426   */\n      slt\n        /* \"#utility.yul\":3413:3448   */\n      and\n        /* \"#utility.yul\":3396:3397   */\n      dup4\n        /* \"#utility.yul\":3391:3394   */\n      dup3\n        /* \"#utility.yul\":3387:3398   */\n      slt\n        /* \"#utility.yul\":3382:3383   */\n      0x00\n        /* \"#utility.yul\":3379:3380   */\n      dup5\n        /* \"#utility.yul\":3375:3384   */\n      slt\n        /* \"#utility.yul\":3368:3385   */\n      iszero\n        /* \"#utility.yul\":3364:3399   */\n      and\n        /* \"#utility.yul\":3348:3458   */\n      or\n        /* \"#utility.yul\":3345:3481   */\n      iszero\n      tag_82\n      jumpi\n        /* \"#utility.yul\":3461:3479   */\n      tag_83\n      tag_39\n      jump\t// in\n    tag_83:\n        /* \"#utility.yul\":3345:3481   */\n    tag_82:\n        /* \"#utility.yul\":3113:3488   */\n      swap3\n      swap2\n      pop\n      pop\n      jump\t// out\n\n    auxdata: 0xa2646970667358221220b92f6c4689f10d2678dd6b8251ef00d186ebd4c129cf75c388461346a73b977d64736f6c63430008100033\n}\n",
				"bytecode": {
					"linkReferences": {},
					"object": "608060405234801561001057600080fd5b5061031e806100206000396000f3fe608060405234801561001057600080fd5b50600436106100415760003560e01c80633fb5c1cb14610046578063f2c9ecd814610062578063f8bb49a114610080575b600080fd5b610060600480360381019061005b919061013b565b6100b0565b005b61006a6100ba565b6040516100779190610177565b60405180910390f35b61009a600480360381019061009591906101c8565b6100c3565b6040516100a79190610217565b60405180910390f35b8060008190555050565b60008054905090565b60008082846100d29190610261565b9050600083856100e291906102a4565b9050600082826100f29190610261565b905080935050505092915050565b600080fd5b6000819050919050565b61011881610105565b811461012357600080fd5b50565b6000813590506101358161010f565b92915050565b60006020828403121561015157610150610100565b5b600061015f84828501610126565b91505092915050565b61017181610105565b82525050565b600060208201905061018c6000830184610168565b92915050565b6000819050919050565b6101a581610192565b81146101b057600080fd5b50565b6000813590506101c28161019c565b92915050565b600080604083850312156101df576101de610100565b5b60006101ed858286016101b3565b92505060206101fe858286016101b3565b9150509250929050565b61021181610192565b82525050565b600060208201905061022c6000830184610208565b92915050565b7f4e487b7100000000000000000000000000000000000000000000000000000000600052601160045260246000fd5b600061026c82610192565b915061027783610192565b925082820390508181126000841216828213600085121516171561029e5761029d610232565b5b92915050565b60006102af82610192565b91506102ba83610192565b9250828201905082811215600083121683821260008412151617156102e2576102e1610232565b5b9291505056fea2646970667358221220b92f6c4689f10d2678dd6b8251ef00d186ebd4c129cf75c388461346a73b977d64736f6c63430008100033",
					"opcodes": "PUSH1 0x80 PUSH1 0x40 MSTORE CALLVALUE DUP1 ISZERO PUSH2 0x10 JUMPI PUSH1 0x0 DUP1 REVERT JUMPDEST POP PUSH2 0x31E DUP1 PUSH2 0x20 PUSH1 0x0 CODECOPY PUSH1 0x0 RETURN INVALID PUSH1 0x80 PUSH1 0x40 MSTORE CALLVALUE DUP1 ISZERO PUSH2 0x10 JUMPI PUSH1 0x0 DUP1 REVERT JUMPDEST POP PUSH1 0x4 CALLDATASIZE LT PUSH2 0x41 JUMPI PUSH1 0x0 CALLDATALOAD PUSH1 0xE0 SHR DUP1 PUSH4 0x3FB5C1CB EQ PUSH2 0x46 JUMPI DUP1 PUSH4 0xF2C9ECD8 EQ PUSH2 0x62 JUMPI DUP1 PUSH4 0xF8BB49A1 EQ PUSH2 0x80 JUMPI JUMPDEST PUSH1 0x0 DUP1 REVERT JUMPDEST PUSH2 0x60 PUSH1 0x4 DUP1 CALLDATASIZE SUB DUP2 ADD SWAP1 PUSH2 0x5B SWAP2 SWAP1 PUSH2 0x13B JUMP JUMPDEST PUSH2 0xB0 JUMP JUMPDEST STOP JUMPDEST PUSH2 0x6A PUSH2 0xBA JUMP JUMPDEST PUSH1 0x40 MLOAD PUSH2 0x77 SWAP2 SWAP1 PUSH2 0x177 JUMP JUMPDEST PUSH1 0x40 MLOAD DUP1 SWAP2 SUB SWAP1 RETURN JUMPDEST PUSH2 0x9A PUSH1 0x4 DUP1 CALLDATASIZE SUB DUP2 ADD SWAP1 PUSH2 0x95 SWAP2 SWAP1 PUSH2 0x1C8 JUMP JUMPDEST PUSH2 0xC3 JUMP JUMPDEST PUSH1 0x40 MLOAD PUSH2 0xA7 SWAP2 SWAP1 PUSH2 0x217 JUMP JUMPDEST PUSH1 0x40 MLOAD DUP1 SWAP2 SUB SWAP1 RETURN JUMPDEST DUP1 PUSH1 0x0 DUP2 SWAP1 SSTORE POP POP JUMP JUMPDEST PUSH1 0x0 DUP1 SLOAD SWAP1 POP SWAP1 JUMP JUMPDEST PUSH1 0x0 DUP1 DUP3 DUP5 PUSH2 0xD2 SWAP2 SWAP1 PUSH2 0x261 JUMP JUMPDEST SWAP1 POP PUSH1 0x0 DUP4 DUP6 PUSH2 0xE2 SWAP2 SWAP1 PUSH2 0x2A4 JUMP JUMPDEST SWAP1 POP PUSH1 0x0 DUP3 DUP3 PUSH2 0xF2 SWAP2 SWAP1 PUSH2 0x261 JUMP JUMPDEST SWAP1 POP DUP1 SWAP4 POP POP POP POP SWAP3 SWAP2 POP POP JUMP JUMPDEST PUSH1 0x0 DUP1 REVERT JUMPDEST PUSH1 0x0 DUP2 SWAP1 POP SWAP2 SWAP1 POP JUMP JUMPDEST PUSH2 0x118 DUP2 PUSH2 0x105 JUMP JUMPDEST DUP2 EQ PUSH2 0x123 JUMPI PUSH1 0x0 DUP1 REVERT JUMPDEST POP JUMP JUMPDEST PUSH1 0x0 DUP2 CALLDATALOAD SWAP1 POP PUSH2 0x135 DUP2 PUSH2 0x10F JUMP JUMPDEST SWAP3 SWAP2 POP POP JUMP JUMPDEST PUSH1 0x0 PUSH1 0x20 DUP3 DUP5 SUB SLT ISZERO PUSH2 0x151 JUMPI PUSH2 0x150 PUSH2 0x100 JUMP JUMPDEST JUMPDEST PUSH1 0x0 PUSH2 0x15F DUP5 DUP3 DUP6 ADD PUSH2 0x126 JUMP JUMPDEST SWAP2 POP POP SWAP3 SWAP2 POP POP JUMP JUMPDEST PUSH2 0x171 DUP2 PUSH2 0x105 JUMP JUMPDEST DUP3 MSTORE POP POP JUMP JUMPDEST PUSH1 0x0 PUSH1 0x20 DUP3 ADD SWAP1 POP PUSH2 0x18C PUSH1 0x0 DUP4 ADD DUP5 PUSH2 0x168 JUMP JUMPDEST SWAP3 SWAP2 POP POP JUMP JUMPDEST PUSH1 0x0 DUP2 SWAP1 POP SWAP2 SWAP1 POP JUMP JUMPDEST PUSH2 0x1A5 DUP2 PUSH2 0x192 JUMP JUMPDEST DUP2 EQ PUSH2 0x1B0 JUMPI PUSH1 0x0 DUP1 REVERT JUMPDEST POP JUMP JUMPDEST PUSH1 0x0 DUP2 CALLDATALOAD SWAP1 POP PUSH2 0x1C2 DUP2 PUSH2 0x19C JUMP JUMPDEST SWAP3 SWAP2 POP POP JUMP JUMPDEST PUSH1 0x0 DUP1 PUSH1 0x40 DUP4 DUP6 SUB SLT ISZERO PUSH2 0x1DF JUMPI PUSH2 0x1DE PUSH2 0x100 JUMP JUMPDEST JUMPDEST PUSH1 0x0 PUSH2 0x1ED DUP6 DUP3 DUP7 ADD PUSH2 0x1B3 JUMP JUMPDEST SWAP3 POP POP PUSH1 0x20 PUSH2 0x1FE DUP6 DUP3 DUP7 ADD PUSH2 0x1B3 JUMP JUMPDEST SWAP2 POP POP SWAP3 POP SWAP3 SWAP1 POP JUMP JUMPDEST PUSH2 0x211 DUP2 PUSH2 0x192 JUMP JUMPDEST DUP3 MSTORE POP POP JUMP JUMPDEST PUSH1 0x0 PUSH1 0x20 DUP3 ADD SWAP1 POP PUSH2 0x22C PUSH1 0x0 DUP4 ADD DUP5 PUSH2 0x208 JUMP JUMPDEST SWAP3 SWAP2 POP POP JUMP JUMPDEST PUSH32 0x4E487B7100000000000000000000000000000000000000000000000000000000 PUSH1 0x0 MSTORE PUSH1 0x11 PUSH1 0x4 MSTORE PUSH1 0x24 PUSH1 0x0 REVERT JUMPDEST PUSH1 0x0 PUSH2 0x26C DUP3 PUSH2 0x192 JUMP JUMPDEST SWAP2 POP PUSH2 0x277 DUP4 PUSH2 0x192 JUMP JUMPDEST SWAP3 POP DUP3 DUP3 SUB SWAP1 POP DUP2 DUP2 SLT PUSH1 0x0 DUP5 SLT AND DUP3 DUP3 SGT PUSH1 0x0 DUP6 SLT ISZERO AND OR ISZERO PUSH2 0x29E JUMPI PUSH2 0x29D PUSH2 0x232 JUMP JUMPDEST JUMPDEST SWAP3 SWAP2 POP POP JUMP JUMPDEST PUSH1 0x0 PUSH2 0x2AF DUP3 PUSH2 0x192 JUMP JUMPDEST SWAP2 POP PUSH2 0x2BA DUP4 PUSH2 0x192 JUMP JUMPDEST SWAP3 POP DUP3 DUP3 ADD SWAP1 POP DUP3 DUP2 SLT ISZERO PUSH1 0x0 DUP4 SLT AND DUP4 DUP3 SLT PUSH1 0x0 DUP5 SLT ISZERO AND OR ISZERO PUSH2 0x2E2 JUMPI PUSH2 0x2E1 PUSH2 0x232 JUMP JUMPDEST JUMPDEST SWAP3 SWAP2 POP POP JUMP INVALID LOG2 PUSH5 0x6970667358 0x22 SLT KECCAK256 0xB9 0x2F PUSH13 0x4689F10D2678DD6B8251EF00D1 DUP7 0xEB 0xD4 0xC1 0x29 0xCF PUSH22 0xC388461346A73B977D64736F6C634300081000330000 "
				},
				"gasEstimates": {
					"creation": {
						"codeDepositCost": "159600",
						"executionCost": "202",
						"totalCost": "159802"
					},
					"external": {
						"evaluate(int256,int256)": "infinite",
						"getNumber()": "2437",
						"setNumber(uint256)": "22498"
					}
				},
				"methodIdentifiers": {
					"evaluate(int256,int256)": "f8bb49a1",
					"getNumber()": "f2c9ecd8",
					"setNumber(uint256)": "3fb5c1cb"
				}
			},
			"storageLayout": {
				"storage": [
					{
						"astId": 3,
						"contract": "contracts/24-Aug-assignment-2.sol:task1",
						"label": "num",
						"offset": 0,
						"slot": "0",
						"type": "t_uint256"
					}
				],
				"types": {
					"t_uint256": {
						"encoding": "inplace",
						"label": "uint256",
						"numberOfBytes": "32"
					}
				}
			},
			"userdoc": {
				"kind": "user",
				"methods": {},
				"version": 1
			}
		}
	}
}