{
	"contracts/24-Aug-assignment-2.sol": {
		"task1": {
			"abi": [
				{
					"inputs": [
						{
							"internalType": "int256",
							"name": "a",
							"type": "int256"
						},
						{
							"internalType": "int256",
							"name": "b",
							"type": "int256"
						}
					],
					"name": "evaluate",
					"outputs": [
						{
							"internalType": "int256",
							"name": "",
							"type": "int256"
						}
					],
					"stateMutability": "pure",
					"type": "function"
				},
				{
					"inputs": [
						{
							"internalType": "int256",
							"name": "a",
							"type": "int256"
						}
					],
					"name": "find",
					"outputs": [
						{
							"internalType": "int256",
							"name": "",
							"type": "int256"
						}
					],
					"stateMutability": "pure",
					"type": "function"
				},
				{
					"inputs": [],
					"name": "getNumber",
					"outputs": [
						{
							"internalType": "uint256",
							"name": "",
							"type": "uint256"
						}
					],
					"stateMutability": "view",
					"type": "function"
				},
				{
					"inputs": [
						{
							"internalType": "uint256",
							"name": "_num",
							"type": "uint256"
						}
					],
					"name": "setNumber",
					"outputs": [],
					"stateMutability": "nonpayable",
					"type": "function"
				}
			],
			"devdoc": {
				"kind": "dev",
				"methods": {},
				"version": 1
			},
			"evm": {
				"assembly": "    /* \"contracts/24-Aug-assignment-2.sol\":64:662  contract task1 ... */\n  mstore(0x40, 0x80)\n  callvalue\n  dup1\n  iszero\n  tag_1\n  jumpi\n  0x00\n  dup1\n  revert\ntag_1:\n  pop\n  dataSize(sub_0)\n  dup1\n  dataOffset(sub_0)\n  0x00\n  codecopy\n  0x00\n  return\nstop\n\nsub_0: assembly {\n        /* \"contracts/24-Aug-assignment-2.sol\":64:662  contract task1 ... */\n      mstore(0x40, 0x80)\n      callvalue\n      dup1\n      iszero\n      tag_1\n      jumpi\n      0x00\n      dup1\n      revert\n    tag_1:\n      pop\n      jumpi(tag_2, lt(calldatasize, 0x04))\n      shr(0xe0, calldataload(0x00))\n      dup1\n      0x3fb5c1cb\n      eq\n      tag_3\n      jumpi\n      dup1\n      0xf2c9ecd8\n      eq\n      tag_4\n      jumpi\n      dup1\n      0xf4440ea3\n      eq\n      tag_5\n      jumpi\n      dup1\n      0xf8bb49a1\n      eq\n      tag_6\n      jumpi\n    tag_2:\n      0x00\n      dup1\n      revert\n        /* \"contracts/24-Aug-assignment-2.sol\":120:184  function setNumber(uint _num) public {... */\n    tag_3:\n      tag_7\n      0x04\n      dup1\n      calldatasize\n      sub\n      dup2\n      add\n      swap1\n      tag_8\n      swap2\n      swap1\n      tag_9\n      jump\t// in\n    tag_8:\n      tag_10\n      jump\t// in\n    tag_7:\n      stop\n        /* \"contracts/24-Aug-assignment-2.sol\":190:265  function getNumber() public view returns (uint) {... */\n    tag_4:\n      tag_11\n      tag_12\n      jump\t// in\n    tag_11:\n      mload(0x40)\n      tag_13\n      swap2\n      swap1\n      tag_14\n      jump\t// in\n    tag_13:\n      mload(0x40)\n      dup1\n      swap2\n      sub\n      swap1\n      return\n        /* \"contracts/24-Aug-assignment-2.sol\":522:656  function find(int a) public pure returns (int) {... */\n    tag_5:\n      tag_15\n      0x04\n      dup1\n      calldatasize\n      sub\n      dup2\n      add\n      swap1\n      tag_16\n      swap2\n      swap1\n      tag_17\n      jump\t// in\n    tag_16:\n      tag_18\n      jump\t// in\n    tag_15:\n      mload(0x40)\n      tag_19\n      swap2\n      swap1\n      tag_20\n      jump\t// in\n    tag_19:\n      mload(0x40)\n      dup1\n      swap2\n      sub\n      swap1\n      return\n        /* \"contracts/24-Aug-assignment-2.sol\":308:479  function evaluate(int a, int b) public pure returns (int){... */\n    tag_6:\n      tag_21\n      0x04\n      dup1\n      calldatasize\n      sub\n      dup2\n      add\n      swap1\n      tag_22\n      swap2\n      swap1\n      tag_23\n      jump\t// in\n    tag_22:\n      tag_24\n      jump\t// in\n    tag_21:\n      mload(0x40)\n      tag_25\n      swap2\n      swap1\n      tag_20\n      jump\t// in\n    tag_25:\n      mload(0x40)\n      dup1\n      swap2\n      sub\n      swap1\n      return\n        /* \"contracts/24-Aug-assignment-2.sol\":120:184  function setNumber(uint _num) public {... */\n    tag_10:\n        /* \"contracts/24-Aug-assignment-2.sol\":173:177  _num */\n      dup1\n        /* \"contracts/24-Aug-assignment-2.sol\":167:170  num */\n      0x00\n        /* \"contracts/24-Aug-assignment-2.sol\":167:177  num = _num */\n      dup2\n      swap1\n      sstore\n      pop\n        /* \"contracts/24-Aug-assignment-2.sol\":120:184  function setNumber(uint _num) public {... */\n      pop\n      jump\t// out\n        /* \"contracts/24-Aug-assignment-2.sol\":190:265  function getNumber() public view returns (uint) {... */\n    tag_12:\n        /* \"contracts/24-Aug-assignment-2.sol\":232:236  uint */\n      0x00\n        /* \"contracts/24-Aug-assignment-2.sol\":255:258  num */\n      dup1\n      sload\n        /* \"contracts/24-Aug-assignment-2.sol\":248:258  return num */\n      swap1\n      pop\n        /* \"contracts/24-Aug-assignment-2.sol\":190:265  function getNumber() public view returns (uint) {... */\n      swap1\n      jump\t// out\n        /* \"contracts/24-Aug-assignment-2.sol\":522:656  function find(int a) public pure returns (int) {... */\n    tag_18:\n        /* \"contracts/24-Aug-assignment-2.sol\":564:567  int */\n      0x00\n        /* \"contracts/24-Aug-assignment-2.sol\":591:592  0 */\n      dup1\n        /* \"contracts/24-Aug-assignment-2.sol\":587:588  a */\n      dup3\n        /* \"contracts/24-Aug-assignment-2.sol\":587:592  a > 0 */\n      sgt\n        /* \"contracts/24-Aug-assignment-2.sol\":579:627  require(a > 0, \"Value should be greater than 0\") */\n      tag_29\n      jumpi\n      mload(0x40)\n      0x08c379a000000000000000000000000000000000000000000000000000000000\n      dup2\n      mstore\n      0x04\n      add\n      tag_30\n      swap1\n      tag_31\n      jump\t// in\n    tag_30:\n      mload(0x40)\n      dup1\n      swap2\n      sub\n      swap1\n      revert\n    tag_29:\n        /* \"contracts/24-Aug-assignment-2.sol\":648:649  3 */\n      0x03\n        /* \"contracts/24-Aug-assignment-2.sol\":644:645  a */\n      dup3\n        /* \"contracts/24-Aug-assignment-2.sol\":644:649  a % 3 */\n      tag_32\n      swap2\n      swap1\n      tag_33\n      jump\t// in\n    tag_32:\n        /* \"contracts/24-Aug-assignment-2.sol\":637:649  return a % 3 */\n      swap1\n      pop\n        /* \"contracts/24-Aug-assignment-2.sol\":522:656  function find(int a) public pure returns (int) {... */\n      swap2\n      swap1\n      pop\n      jump\t// out\n        /* \"contracts/24-Aug-assignment-2.sol\":308:479  function evaluate(int a, int b) public pure returns (int){... */\n    tag_24:\n        /* \"contracts/24-Aug-assignment-2.sol\":361:364  int */\n      0x00\n        /* \"contracts/24-Aug-assignment-2.sol\":375:383  int diff */\n      dup1\n        /* \"contracts/24-Aug-assignment-2.sol\":390:391  b */\n      dup3\n        /* \"contracts/24-Aug-assignment-2.sol\":386:387  a */\n      dup5\n        /* \"contracts/24-Aug-assignment-2.sol\":386:391  a - b */\n      tag_35\n      swap2\n      swap1\n      tag_36\n      jump\t// in\n    tag_35:\n        /* \"contracts/24-Aug-assignment-2.sol\":375:391  int diff = a - b */\n      swap1\n      pop\n        /* \"contracts/24-Aug-assignment-2.sol\":401:408  int sum */\n      0x00\n        /* \"contracts/24-Aug-assignment-2.sol\":415:416  b */\n      dup4\n        /* \"contracts/24-Aug-assignment-2.sol\":411:412  a */\n      dup6\n        /* \"contracts/24-Aug-assignment-2.sol\":411:416  a + b */\n      tag_37\n      swap2\n      swap1\n      tag_38\n      jump\t// in\n    tag_37:\n        /* \"contracts/24-Aug-assignment-2.sol\":401:416  int sum = a + b */\n      swap1\n      pop\n        /* \"contracts/24-Aug-assignment-2.sol\":426:436  int result */\n      0x00\n        /* \"contracts/24-Aug-assignment-2.sol\":445:449  diff */\n      dup3\n        /* \"contracts/24-Aug-assignment-2.sol\":439:442  sum */\n      dup3\n        /* \"contracts/24-Aug-assignment-2.sol\":439:449  sum - diff */\n      tag_39\n      swap2\n      swap1\n      tag_36\n      jump\t// in\n    tag_39:\n        /* \"contracts/24-Aug-assignment-2.sol\":426:449  int result = sum - diff */\n      swap1\n      pop\n        /* \"contracts/24-Aug-assignment-2.sol\":466:472  result */\n      dup1\n        /* \"contracts/24-Aug-assignment-2.sol\":459:472  return result */\n      swap4\n      pop\n      pop\n      pop\n      pop\n        /* \"contracts/24-Aug-assignment-2.sol\":308:479  function evaluate(int a, int b) public pure returns (int){... */\n      swap3\n      swap2\n      pop\n      pop\n      jump\t// out\n        /* \"#utility.yul\":88:205   */\n    tag_41:\n        /* \"#utility.yul\":197:198   */\n      0x00\n        /* \"#utility.yul\":194:195   */\n      dup1\n        /* \"#utility.yul\":187:199   */\n      revert\n        /* \"#utility.yul\":334:411   */\n    tag_43:\n        /* \"#utility.yul\":371:378   */\n      0x00\n        /* \"#utility.yul\":400:405   */\n      dup2\n        /* \"#utility.yul\":389:405   */\n      swap1\n      pop\n        /* \"#utility.yul\":334:411   */\n      swap2\n      swap1\n      pop\n      jump\t// out\n        /* \"#utility.yul\":417:539   */\n    tag_44:\n        /* \"#utility.yul\":490:514   */\n      tag_62\n        /* \"#utility.yul\":508:513   */\n      dup2\n        /* \"#utility.yul\":490:514   */\n      tag_43\n      jump\t// in\n    tag_62:\n        /* \"#utility.yul\":483:488   */\n      dup2\n        /* \"#utility.yul\":480:515   */\n      eq\n        /* \"#utility.yul\":470:533   */\n      tag_63\n      jumpi\n        /* \"#utility.yul\":529:530   */\n      0x00\n        /* \"#utility.yul\":526:527   */\n      dup1\n        /* \"#utility.yul\":519:531   */\n      revert\n        /* \"#utility.yul\":470:533   */\n    tag_63:\n        /* \"#utility.yul\":417:539   */\n      pop\n      jump\t// out\n        /* \"#utility.yul\":545:684   */\n    tag_45:\n        /* \"#utility.yul\":591:596   */\n      0x00\n        /* \"#utility.yul\":629:635   */\n      dup2\n        /* \"#utility.yul\":616:636   */\n      calldataload\n        /* \"#utility.yul\":607:636   */\n      swap1\n      pop\n        /* \"#utility.yul\":645:678   */\n      tag_65\n        /* \"#utility.yul\":672:677   */\n      dup2\n        /* \"#utility.yul\":645:678   */\n      tag_44\n      jump\t// in\n    tag_65:\n        /* \"#utility.yul\":545:684   */\n      swap3\n      swap2\n      pop\n      pop\n      jump\t// out\n        /* \"#utility.yul\":690:1019   */\n    tag_9:\n        /* \"#utility.yul\":749:755   */\n      0x00\n        /* \"#utility.yul\":798:800   */\n      0x20\n        /* \"#utility.yul\":786:795   */\n      dup3\n        /* \"#utility.yul\":777:784   */\n      dup5\n        /* \"#utility.yul\":773:796   */\n      sub\n        /* \"#utility.yul\":769:801   */\n      slt\n        /* \"#utility.yul\":766:885   */\n      iszero\n      tag_67\n      jumpi\n        /* \"#utility.yul\":804:883   */\n      tag_68\n      tag_41\n      jump\t// in\n    tag_68:\n        /* \"#utility.yul\":766:885   */\n    tag_67:\n        /* \"#utility.yul\":924:925   */\n      0x00\n        /* \"#utility.yul\":949:1002   */\n      tag_69\n        /* \"#utility.yul\":994:1001   */\n      dup5\n        /* \"#utility.yul\":985:991   */\n      dup3\n        /* \"#utility.yul\":974:983   */\n      dup6\n        /* \"#utility.yul\":970:992   */\n      add\n        /* \"#utility.yul\":949:1002   */\n      tag_45\n      jump\t// in\n    tag_69:\n        /* \"#utility.yul\":939:1002   */\n      swap2\n      pop\n        /* \"#utility.yul\":895:1012   */\n      pop\n        /* \"#utility.yul\":690:1019   */\n      swap3\n      swap2\n      pop\n      pop\n      jump\t// out\n        /* \"#utility.yul\":1025:1143   */\n    tag_46:\n        /* \"#utility.yul\":1112:1136   */\n      tag_71\n        /* \"#utility.yul\":1130:1135   */\n      dup2\n        /* \"#utility.yul\":1112:1136   */\n      tag_43\n      jump\t// in\n    tag_71:\n        /* \"#utility.yul\":1107:1110   */\n      dup3\n        /* \"#utility.yul\":1100:1137   */\n      mstore\n        /* \"#utility.yul\":1025:1143   */\n      pop\n      pop\n      jump\t// out\n        /* \"#utility.yul\":1149:1371   */\n    tag_14:\n        /* \"#utility.yul\":1242:1246   */\n      0x00\n        /* \"#utility.yul\":1280:1282   */\n      0x20\n        /* \"#utility.yul\":1269:1278   */\n      dup3\n        /* \"#utility.yul\":1265:1283   */\n      add\n        /* \"#utility.yul\":1257:1283   */\n      swap1\n      pop\n        /* \"#utility.yul\":1293:1364   */\n      tag_73\n        /* \"#utility.yul\":1361:1362   */\n      0x00\n        /* \"#utility.yul\":1350:1359   */\n      dup4\n        /* \"#utility.yul\":1346:1363   */\n      add\n        /* \"#utility.yul\":1337:1343   */\n      dup5\n        /* \"#utility.yul\":1293:1364   */\n      tag_46\n      jump\t// in\n    tag_73:\n        /* \"#utility.yul\":1149:1371   */\n      swap3\n      swap2\n      pop\n      pop\n      jump\t// out\n        /* \"#utility.yul\":1377:1453   */\n    tag_47:\n        /* \"#utility.yul\":1413:1420   */\n      0x00\n        /* \"#utility.yul\":1442:1447   */\n      dup2\n        /* \"#utility.yul\":1431:1447   */\n      swap1\n      pop\n        /* \"#utility.yul\":1377:1453   */\n      swap2\n      swap1\n      pop\n      jump\t// out\n        /* \"#utility.yul\":1459:1579   */\n    tag_48:\n        /* \"#utility.yul\":1531:1554   */\n      tag_76\n        /* \"#utility.yul\":1548:1553   */\n      dup2\n        /* \"#utility.yul\":1531:1554   */\n      tag_47\n      jump\t// in\n    tag_76:\n        /* \"#utility.yul\":1524:1529   */\n      dup2\n        /* \"#utility.yul\":1521:1555   */\n      eq\n        /* \"#utility.yul\":1511:1573   */\n      tag_77\n      jumpi\n        /* \"#utility.yul\":1569:1570   */\n      0x00\n        /* \"#utility.yul\":1566:1567   */\n      dup1\n        /* \"#utility.yul\":1559:1571   */\n      revert\n        /* \"#utility.yul\":1511:1573   */\n    tag_77:\n        /* \"#utility.yul\":1459:1579   */\n      pop\n      jump\t// out\n        /* \"#utility.yul\":1585:1722   */\n    tag_49:\n        /* \"#utility.yul\":1630:1635   */\n      0x00\n        /* \"#utility.yul\":1668:1674   */\n      dup2\n        /* \"#utility.yul\":1655:1675   */\n      calldataload\n        /* \"#utility.yul\":1646:1675   */\n      swap1\n      pop\n        /* \"#utility.yul\":1684:1716   */\n      tag_79\n        /* \"#utility.yul\":1710:1715   */\n      dup2\n        /* \"#utility.yul\":1684:1716   */\n      tag_48\n      jump\t// in\n    tag_79:\n        /* \"#utility.yul\":1585:1722   */\n      swap3\n      swap2\n      pop\n      pop\n      jump\t// out\n        /* \"#utility.yul\":1728:2055   */\n    tag_17:\n        /* \"#utility.yul\":1786:1792   */\n      0x00\n        /* \"#utility.yul\":1835:1837   */\n      0x20\n        /* \"#utility.yul\":1823:1832   */\n      dup3\n        /* \"#utility.yul\":1814:1821   */\n      dup5\n        /* \"#utility.yul\":1810:1833   */\n      sub\n        /* \"#utility.yul\":1806:1838   */\n      slt\n        /* \"#utility.yul\":1803:1922   */\n      iszero\n      tag_81\n      jumpi\n        /* \"#utility.yul\":1841:1920   */\n      tag_82\n      tag_41\n      jump\t// in\n    tag_82:\n        /* \"#utility.yul\":1803:1922   */\n    tag_81:\n        /* \"#utility.yul\":1961:1962   */\n      0x00\n        /* \"#utility.yul\":1986:2038   */\n      tag_83\n        /* \"#utility.yul\":2030:2037   */\n      dup5\n        /* \"#utility.yul\":2021:2027   */\n      dup3\n        /* \"#utility.yul\":2010:2019   */\n      dup6\n        /* \"#utility.yul\":2006:2028   */\n      add\n        /* \"#utility.yul\":1986:2038   */\n      tag_49\n      jump\t// in\n    tag_83:\n        /* \"#utility.yul\":1976:2038   */\n      swap2\n      pop\n        /* \"#utility.yul\":1932:2048   */\n      pop\n        /* \"#utility.yul\":1728:2055   */\n      swap3\n      swap2\n      pop\n      pop\n      jump\t// out\n        /* \"#utility.yul\":2061:2176   */\n    tag_50:\n        /* \"#utility.yul\":2146:2169   */\n      tag_85\n        /* \"#utility.yul\":2163:2168   */\n      dup2\n        /* \"#utility.yul\":2146:2169   */\n      tag_47\n      jump\t// in\n    tag_85:\n        /* \"#utility.yul\":2141:2144   */\n      dup3\n        /* \"#utility.yul\":2134:2170   */\n      mstore\n        /* \"#utility.yul\":2061:2176   */\n      pop\n      pop\n      jump\t// out\n        /* \"#utility.yul\":2182:2400   */\n    tag_20:\n        /* \"#utility.yul\":2273:2277   */\n      0x00\n        /* \"#utility.yul\":2311:2313   */\n      0x20\n        /* \"#utility.yul\":2300:2309   */\n      dup3\n        /* \"#utility.yul\":2296:2314   */\n      add\n        /* \"#utility.yul\":2288:2314   */\n      swap1\n      pop\n        /* \"#utility.yul\":2324:2393   */\n      tag_87\n        /* \"#utility.yul\":2390:2391   */\n      0x00\n        /* \"#utility.yul\":2379:2388   */\n      dup4\n        /* \"#utility.yul\":2375:2392   */\n      add\n        /* \"#utility.yul\":2366:2372   */\n      dup5\n        /* \"#utility.yul\":2324:2393   */\n      tag_50\n      jump\t// in\n    tag_87:\n        /* \"#utility.yul\":2182:2400   */\n      swap3\n      swap2\n      pop\n      pop\n      jump\t// out\n        /* \"#utility.yul\":2406:2876   */\n    tag_23:\n        /* \"#utility.yul\":2472:2478   */\n      0x00\n        /* \"#utility.yul\":2480:2486   */\n      dup1\n        /* \"#utility.yul\":2529:2531   */\n      0x40\n        /* \"#utility.yul\":2517:2526   */\n      dup4\n        /* \"#utility.yul\":2508:2515   */\n      dup6\n        /* \"#utility.yul\":2504:2527   */\n      sub\n        /* \"#utility.yul\":2500:2532   */\n      slt\n        /* \"#utility.yul\":2497:2616   */\n      iszero\n      tag_89\n      jumpi\n        /* \"#utility.yul\":2535:2614   */\n      tag_90\n      tag_41\n      jump\t// in\n    tag_90:\n        /* \"#utility.yul\":2497:2616   */\n    tag_89:\n        /* \"#utility.yul\":2655:2656   */\n      0x00\n        /* \"#utility.yul\":2680:2732   */\n      tag_91\n        /* \"#utility.yul\":2724:2731   */\n      dup6\n        /* \"#utility.yul\":2715:2721   */\n      dup3\n        /* \"#utility.yul\":2704:2713   */\n      dup7\n        /* \"#utility.yul\":2700:2722   */\n      add\n        /* \"#utility.yul\":2680:2732   */\n      tag_49\n      jump\t// in\n    tag_91:\n        /* \"#utility.yul\":2670:2732   */\n      swap3\n      pop\n        /* \"#utility.yul\":2626:2742   */\n      pop\n        /* \"#utility.yul\":2781:2783   */\n      0x20\n        /* \"#utility.yul\":2807:2859   */\n      tag_92\n        /* \"#utility.yul\":2851:2858   */\n      dup6\n        /* \"#utility.yul\":2842:2848   */\n      dup3\n        /* \"#utility.yul\":2831:2840   */\n      dup7\n        /* \"#utility.yul\":2827:2849   */\n      add\n        /* \"#utility.yul\":2807:2859   */\n      tag_49\n      jump\t// in\n    tag_92:\n        /* \"#utility.yul\":2797:2859   */\n      swap2\n      pop\n        /* \"#utility.yul\":2752:2869   */\n      pop\n        /* \"#utility.yul\":2406:2876   */\n      swap3\n      pop\n      swap3\n      swap1\n      pop\n      jump\t// out\n        /* \"#utility.yul\":2882:3051   */\n    tag_51:\n        /* \"#utility.yul\":2966:2977   */\n      0x00\n        /* \"#utility.yul\":3000:3006   */\n      dup3\n        /* \"#utility.yul\":2995:2998   */\n      dup3\n        /* \"#utility.yul\":2988:3007   */\n      mstore\n        /* \"#utility.yul\":3040:3044   */\n      0x20\n        /* \"#utility.yul\":3035:3038   */\n      dup3\n        /* \"#utility.yul\":3031:3045   */\n      add\n        /* \"#utility.yul\":3016:3045   */\n      swap1\n      pop\n        /* \"#utility.yul\":2882:3051   */\n      swap3\n      swap2\n      pop\n      pop\n      jump\t// out\n        /* \"#utility.yul\":3057:3237   */\n    tag_52:\n        /* \"#utility.yul\":3197:3229   */\n      0x56616c75652073686f756c642062652067726561746572207468616e20300000\n        /* \"#utility.yul\":3193:3194   */\n      0x00\n        /* \"#utility.yul\":3185:3191   */\n      dup3\n        /* \"#utility.yul\":3181:3195   */\n      add\n        /* \"#utility.yul\":3174:3230   */\n      mstore\n        /* \"#utility.yul\":3057:3237   */\n      pop\n      jump\t// out\n        /* \"#utility.yul\":3243:3609   */\n    tag_53:\n        /* \"#utility.yul\":3385:3388   */\n      0x00\n        /* \"#utility.yul\":3406:3473   */\n      tag_96\n        /* \"#utility.yul\":3470:3472   */\n      0x1e\n        /* \"#utility.yul\":3465:3468   */\n      dup4\n        /* \"#utility.yul\":3406:3473   */\n      tag_51\n      jump\t// in\n    tag_96:\n        /* \"#utility.yul\":3399:3473   */\n      swap2\n      pop\n        /* \"#utility.yul\":3482:3575   */\n      tag_97\n        /* \"#utility.yul\":3571:3574   */\n      dup3\n        /* \"#utility.yul\":3482:3575   */\n      tag_52\n      jump\t// in\n    tag_97:\n        /* \"#utility.yul\":3600:3602   */\n      0x20\n        /* \"#utility.yul\":3595:3598   */\n      dup3\n        /* \"#utility.yul\":3591:3603   */\n      add\n        /* \"#utility.yul\":3584:3603   */\n      swap1\n      pop\n        /* \"#utility.yul\":3243:3609   */\n      swap2\n      swap1\n      pop\n      jump\t// out\n        /* \"#utility.yul\":3615:4034   */\n    tag_31:\n        /* \"#utility.yul\":3781:3785   */\n      0x00\n        /* \"#utility.yul\":3819:3821   */\n      0x20\n        /* \"#utility.yul\":3808:3817   */\n      dup3\n        /* \"#utility.yul\":3804:3822   */\n      add\n        /* \"#utility.yul\":3796:3822   */\n      swap1\n      pop\n        /* \"#utility.yul\":3868:3877   */\n      dup2\n        /* \"#utility.yul\":3862:3866   */\n      dup2\n        /* \"#utility.yul\":3858:3878   */\n      sub\n        /* \"#utility.yul\":3854:3855   */\n      0x00\n        /* \"#utility.yul\":3843:3852   */\n      dup4\n        /* \"#utility.yul\":3839:3856   */\n      add\n        /* \"#utility.yul\":3832:3879   */\n      mstore\n        /* \"#utility.yul\":3896:4027   */\n      tag_99\n        /* \"#utility.yul\":4022:4026   */\n      dup2\n        /* \"#utility.yul\":3896:4027   */\n      tag_53\n      jump\t// in\n    tag_99:\n        /* \"#utility.yul\":3888:4027   */\n      swap1\n      pop\n        /* \"#utility.yul\":3615:4034   */\n      swap2\n      swap1\n      pop\n      jump\t// out\n        /* \"#utility.yul\":4040:4220   */\n    tag_54:\n        /* \"#utility.yul\":4088:4165   */\n      0x4e487b7100000000000000000000000000000000000000000000000000000000\n        /* \"#utility.yul\":4085:4086   */\n      0x00\n        /* \"#utility.yul\":4078:4166   */\n      mstore\n        /* \"#utility.yul\":4185:4189   */\n      0x12\n        /* \"#utility.yul\":4182:4183   */\n      0x04\n        /* \"#utility.yul\":4175:4190   */\n      mstore\n        /* \"#utility.yul\":4209:4213   */\n      0x24\n        /* \"#utility.yul\":4206:4207   */\n      0x00\n        /* \"#utility.yul\":4199:4214   */\n      revert\n        /* \"#utility.yul\":4226:4400   */\n    tag_33:\n        /* \"#utility.yul\":4257:4258   */\n      0x00\n        /* \"#utility.yul\":4274:4293   */\n      tag_102\n        /* \"#utility.yul\":4291:4292   */\n      dup3\n        /* \"#utility.yul\":4274:4293   */\n      tag_47\n      jump\t// in\n    tag_102:\n        /* \"#utility.yul\":4269:4293   */\n      swap2\n      pop\n        /* \"#utility.yul\":4307:4326   */\n      tag_103\n        /* \"#utility.yul\":4324:4325   */\n      dup4\n        /* \"#utility.yul\":4307:4326   */\n      tag_47\n      jump\t// in\n    tag_103:\n        /* \"#utility.yul\":4302:4326   */\n      swap3\n      pop\n        /* \"#utility.yul\":4345:4346   */\n      dup3\n        /* \"#utility.yul\":4335:4370   */\n      tag_104\n      jumpi\n        /* \"#utility.yul\":4350:4368   */\n      tag_105\n      tag_54\n      jump\t// in\n    tag_105:\n        /* \"#utility.yul\":4335:4370   */\n    tag_104:\n        /* \"#utility.yul\":4392:4393   */\n      dup3\n        /* \"#utility.yul\":4389:4390   */\n      dup3\n        /* \"#utility.yul\":4384:4394   */\n      smod\n        /* \"#utility.yul\":4379:4394   */\n      swap1\n      pop\n        /* \"#utility.yul\":4226:4400   */\n      swap3\n      swap2\n      pop\n      pop\n      jump\t// out\n        /* \"#utility.yul\":4406:4586   */\n    tag_55:\n        /* \"#utility.yul\":4454:4531   */\n      0x4e487b7100000000000000000000000000000000000000000000000000000000\n        /* \"#utility.yul\":4451:4452   */\n      0x00\n        /* \"#utility.yul\":4444:4532   */\n      mstore\n        /* \"#utility.yul\":4551:4555   */\n      0x11\n        /* \"#utility.yul\":4548:4549   */\n      0x04\n        /* \"#utility.yul\":4541:4556   */\n      mstore\n        /* \"#utility.yul\":4575:4579   */\n      0x24\n        /* \"#utility.yul\":4572:4573   */\n      0x00\n        /* \"#utility.yul\":4565:4580   */\n      revert\n        /* \"#utility.yul\":4592:4964   */\n    tag_36:\n        /* \"#utility.yul\":4631:4635   */\n      0x00\n        /* \"#utility.yul\":4651:4670   */\n      tag_108\n        /* \"#utility.yul\":4668:4669   */\n      dup3\n        /* \"#utility.yul\":4651:4670   */\n      tag_47\n      jump\t// in\n    tag_108:\n        /* \"#utility.yul\":4646:4670   */\n      swap2\n      pop\n        /* \"#utility.yul\":4684:4703   */\n      tag_109\n        /* \"#utility.yul\":4701:4702   */\n      dup4\n        /* \"#utility.yul\":4684:4703   */\n      tag_47\n      jump\t// in\n    tag_109:\n        /* \"#utility.yul\":4679:4703   */\n      swap3\n      pop\n        /* \"#utility.yul\":4727:4728   */\n      dup3\n        /* \"#utility.yul\":4724:4725   */\n      dup3\n        /* \"#utility.yul\":4720:4729   */\n      sub\n        /* \"#utility.yul\":4712:4729   */\n      swap1\n      pop\n        /* \"#utility.yul\":4921:4922   */\n      dup2\n        /* \"#utility.yul\":4915:4919   */\n      dup2\n        /* \"#utility.yul\":4911:4923   */\n      slt\n        /* \"#utility.yul\":4907:4908   */\n      0x00\n        /* \"#utility.yul\":4904:4905   */\n      dup5\n        /* \"#utility.yul\":4900:4909   */\n      slt\n        /* \"#utility.yul\":4896:4924   */\n      and\n        /* \"#utility.yul\":4879:4880   */\n      dup3\n        /* \"#utility.yul\":4873:4877   */\n      dup3\n        /* \"#utility.yul\":4869:4881   */\n      sgt\n        /* \"#utility.yul\":4864:4865   */\n      0x00\n        /* \"#utility.yul\":4861:4862   */\n      dup6\n        /* \"#utility.yul\":4857:4866   */\n      slt\n        /* \"#utility.yul\":4850:4867   */\n      iszero\n        /* \"#utility.yul\":4846:4882   */\n      and\n        /* \"#utility.yul\":4830:4934   */\n      or\n        /* \"#utility.yul\":4827:4957   */\n      iszero\n      tag_110\n      jumpi\n        /* \"#utility.yul\":4937:4955   */\n      tag_111\n      tag_55\n      jump\t// in\n    tag_111:\n        /* \"#utility.yul\":4827:4957   */\n    tag_110:\n        /* \"#utility.yul\":4592:4964   */\n      swap3\n      swap2\n      pop\n      pop\n      jump\t// out\n        /* \"#utility.yul\":4970:5345   */\n    tag_38:\n        /* \"#utility.yul\":5009:5012   */\n      0x00\n        /* \"#utility.yul\":5028:5047   */\n      tag_113\n        /* \"#utility.yul\":5045:5046   */\n      dup3\n        /* \"#utility.yul\":5028:5047   */\n      tag_47\n      jump\t// in\n    tag_113:\n        /* \"#utility.yul\":5023:5047   */\n      swap2\n      pop\n        /* \"#utility.yul\":5061:5080   */\n      tag_114\n        /* \"#utility.yul\":5078:5079   */\n      dup4\n        /* \"#utility.yul\":5061:5080   */\n      tag_47\n      jump\t// in\n    tag_114:\n        /* \"#utility.yul\":5056:5080   */\n      swap3\n      pop\n        /* \"#utility.yul\":5103:5104   */\n      dup3\n        /* \"#utility.yul\":5100:5101   */\n      dup3\n        /* \"#utility.yul\":5096:5105   */\n      add\n        /* \"#utility.yul\":5089:5105   */\n      swap1\n      pop\n        /* \"#utility.yul\":5301:5302   */\n      dup3\n        /* \"#utility.yul\":5296:5299   */\n      dup2\n        /* \"#utility.yul\":5292:5303   */\n      slt\n        /* \"#utility.yul\":5285:5304   */\n      iszero\n        /* \"#utility.yul\":5281:5282   */\n      0x00\n        /* \"#utility.yul\":5278:5279   */\n      dup4\n        /* \"#utility.yul\":5274:5283   */\n      slt\n        /* \"#utility.yul\":5270:5305   */\n      and\n        /* \"#utility.yul\":5253:5254   */\n      dup4\n        /* \"#utility.yul\":5248:5251   */\n      dup3\n        /* \"#utility.yul\":5244:5255   */\n      slt\n        /* \"#utility.yul\":5239:5240   */\n      0x00\n        /* \"#utility.yul\":5236:5237   */\n      dup5\n        /* \"#utility.yul\":5232:5241   */\n      slt\n        /* \"#utility.yul\":5225:5242   */\n      iszero\n        /* \"#utility.yul\":5221:5256   */\n      and\n        /* \"#utility.yul\":5205:5315   */\n      or\n        /* \"#utility.yul\":5202:5338   */\n      iszero\n      tag_115\n      jumpi\n        /* \"#utility.yul\":5318:5336   */\n      tag_116\n      tag_55\n      jump\t// in\n    tag_116:\n        /* \"#utility.yul\":5202:5338   */\n    tag_115:\n        /* \"#utility.yul\":4970:5345   */\n      swap3\n      swap2\n      pop\n      pop\n      jump\t// out\n\n    auxdata: 0xa2646970667358221220595a91b4ff3dddda88264428186f112659689ef4eba9378334992e5a4d82f68764736f6c63430008100033\n}\n",
				"bytecode": {
					"linkReferences": {},
					"object": "608060405234801561001057600080fd5b506104bb806100206000396000f3fe608060405234801561001057600080fd5b506004361061004c5760003560e01c80633fb5c1cb14610051578063f2c9ecd81461006d578063f4440ea31461008b578063f8bb49a1146100bb575b600080fd5b61006b600480360381019061006691906101ce565b6100eb565b005b6100756100f5565b604051610082919061020a565b60405180910390f35b6100a560048036038101906100a0919061025b565b6100fe565b6040516100b29190610297565b60405180910390f35b6100d560048036038101906100d091906102b2565b610156565b6040516100e29190610297565b60405180910390f35b8060008190555050565b60008054905090565b6000808213610142576040517f08c379a00000000000000000000000000000000000000000000000000000000081526004016101399061034f565b60405180910390fd5b60038261014f919061039e565b9050919050565b600080828461016591906103fe565b9050600083856101759190610441565b90506000828261018591906103fe565b905080935050505092915050565b600080fd5b6000819050919050565b6101ab81610198565b81146101b657600080fd5b50565b6000813590506101c8816101a2565b92915050565b6000602082840312156101e4576101e3610193565b5b60006101f2848285016101b9565b91505092915050565b61020481610198565b82525050565b600060208201905061021f60008301846101fb565b92915050565b6000819050919050565b61023881610225565b811461024357600080fd5b50565b6000813590506102558161022f565b92915050565b60006020828403121561027157610270610193565b5b600061027f84828501610246565b91505092915050565b61029181610225565b82525050565b60006020820190506102ac6000830184610288565b92915050565b600080604083850312156102c9576102c8610193565b5b60006102d785828601610246565b92505060206102e885828601610246565b9150509250929050565b600082825260208201905092915050565b7f56616c75652073686f756c642062652067726561746572207468616e20300000600082015250565b6000610339601e836102f2565b915061034482610303565b602082019050919050565b600060208201905081810360008301526103688161032c565b9050919050565b7f4e487b7100000000000000000000000000000000000000000000000000000000600052601260045260246000fd5b60006103a982610225565b91506103b483610225565b9250826103c4576103c361036f565b5b828207905092915050565b7f4e487b7100000000000000000000000000000000000000000000000000000000600052601160045260246000fd5b600061040982610225565b915061041483610225565b925082820390508181126000841216828213600085121516171561043b5761043a6103cf565b5b92915050565b600061044c82610225565b915061045783610225565b92508282019050828112156000831216838212600084121516171561047f5761047e6103cf565b5b9291505056fea2646970667358221220595a91b4ff3dddda88264428186f112659689ef4eba9378334992e5a4d82f68764736f6c63430008100033",
					"opcodes": "PUSH1 0x80 PUSH1 0x40 MSTORE CALLVALUE DUP1 ISZERO PUSH2 0x10 JUMPI PUSH1 0x0 DUP1 REVERT JUMPDEST POP PUSH2 0x4BB DUP1 PUSH2 0x20 PUSH1 0x0 CODECOPY PUSH1 0x0 RETURN INVALID PUSH1 0x80 PUSH1 0x40 MSTORE CALLVALUE DUP1 ISZERO PUSH2 0x10 JUMPI PUSH1 0x0 DUP1 REVERT JUMPDEST POP PUSH1 0x4 CALLDATASIZE LT PUSH2 0x4C JUMPI PUSH1 0x0 CALLDATALOAD PUSH1 0xE0 SHR DUP1 PUSH4 0x3FB5C1CB EQ PUSH2 0x51 JUMPI DUP1 PUSH4 0xF2C9ECD8 EQ PUSH2 0x6D JUMPI DUP1 PUSH4 0xF4440EA3 EQ PUSH2 0x8B JUMPI DUP1 PUSH4 0xF8BB49A1 EQ PUSH2 0xBB JUMPI JUMPDEST PUSH1 0x0 DUP1 REVERT JUMPDEST PUSH2 0x6B PUSH1 0x4 DUP1 CALLDATASIZE SUB DUP2 ADD SWAP1 PUSH2 0x66 SWAP2 SWAP1 PUSH2 0x1CE JUMP JUMPDEST PUSH2 0xEB JUMP JUMPDEST STOP JUMPDEST PUSH2 0x75 PUSH2 0xF5 JUMP JUMPDEST PUSH1 0x40 MLOAD PUSH2 0x82 SWAP2 SWAP1 PUSH2 0x20A JUMP JUMPDEST PUSH1 0x40 MLOAD DUP1 SWAP2 SUB SWAP1 RETURN JUMPDEST PUSH2 0xA5 PUSH1 0x4 DUP1 CALLDATASIZE SUB DUP2 ADD SWAP1 PUSH2 0xA0 SWAP2 SWAP1 PUSH2 0x25B JUMP JUMPDEST PUSH2 0xFE JUMP JUMPDEST PUSH1 0x40 MLOAD PUSH2 0xB2 SWAP2 SWAP1 PUSH2 0x297 JUMP JUMPDEST PUSH1 0x40 MLOAD DUP1 SWAP2 SUB SWAP1 RETURN JUMPDEST PUSH2 0xD5 PUSH1 0x4 DUP1 CALLDATASIZE SUB DUP2 ADD SWAP1 PUSH2 0xD0 SWAP2 SWAP1 PUSH2 0x2B2 JUMP JUMPDEST PUSH2 0x156 JUMP JUMPDEST PUSH1 0x40 MLOAD PUSH2 0xE2 SWAP2 SWAP1 PUSH2 0x297 JUMP JUMPDEST PUSH1 0x40 MLOAD DUP1 SWAP2 SUB SWAP1 RETURN JUMPDEST DUP1 PUSH1 0x0 DUP2 SWAP1 SSTORE POP POP JUMP JUMPDEST PUSH1 0x0 DUP1 SLOAD SWAP1 POP SWAP1 JUMP JUMPDEST PUSH1 0x0 DUP1 DUP3 SGT PUSH2 0x142 JUMPI PUSH1 0x40 MLOAD PUSH32 0x8C379A000000000000000000000000000000000000000000000000000000000 DUP2 MSTORE PUSH1 0x4 ADD PUSH2 0x139 SWAP1 PUSH2 0x34F JUMP JUMPDEST PUSH1 0x40 MLOAD DUP1 SWAP2 SUB SWAP1 REVERT JUMPDEST PUSH1 0x3 DUP3 PUSH2 0x14F SWAP2 SWAP1 PUSH2 0x39E JUMP JUMPDEST SWAP1 POP SWAP2 SWAP1 POP JUMP JUMPDEST PUSH1 0x0 DUP1 DUP3 DUP5 PUSH2 0x165 SWAP2 SWAP1 PUSH2 0x3FE JUMP JUMPDEST SWAP1 POP PUSH1 0x0 DUP4 DUP6 PUSH2 0x175 SWAP2 SWAP1 PUSH2 0x441 JUMP JUMPDEST SWAP1 POP PUSH1 0x0 DUP3 DUP3 PUSH2 0x185 SWAP2 SWAP1 PUSH2 0x3FE JUMP JUMPDEST SWAP1 POP DUP1 SWAP4 POP POP POP POP SWAP3 SWAP2 POP POP JUMP JUMPDEST PUSH1 0x0 DUP1 REVERT JUMPDEST PUSH1 0x0 DUP2 SWAP1 POP SWAP2 SWAP1 POP JUMP JUMPDEST PUSH2 0x1AB DUP2 PUSH2 0x198 JUMP JUMPDEST DUP2 EQ PUSH2 0x1B6 JUMPI PUSH1 0x0 DUP1 REVERT JUMPDEST POP JUMP JUMPDEST PUSH1 0x0 DUP2 CALLDATALOAD SWAP1 POP PUSH2 0x1C8 DUP2 PUSH2 0x1A2 JUMP JUMPDEST SWAP3 SWAP2 POP POP JUMP JUMPDEST PUSH1 0x0 PUSH1 0x20 DUP3 DUP5 SUB SLT ISZERO PUSH2 0x1E4 JUMPI PUSH2 0x1E3 PUSH2 0x193 JUMP JUMPDEST JUMPDEST PUSH1 0x0 PUSH2 0x1F2 DUP5 DUP3 DUP6 ADD PUSH2 0x1B9 JUMP JUMPDEST SWAP2 POP POP SWAP3 SWAP2 POP POP JUMP JUMPDEST PUSH2 0x204 DUP2 PUSH2 0x198 JUMP JUMPDEST DUP3 MSTORE POP POP JUMP JUMPDEST PUSH1 0x0 PUSH1 0x20 DUP3 ADD SWAP1 POP PUSH2 0x21F PUSH1 0x0 DUP4 ADD DUP5 PUSH2 0x1FB JUMP JUMPDEST SWAP3 SWAP2 POP POP JUMP JUMPDEST PUSH1 0x0 DUP2 SWAP1 POP SWAP2 SWAP1 POP JUMP JUMPDEST PUSH2 0x238 DUP2 PUSH2 0x225 JUMP JUMPDEST DUP2 EQ PUSH2 0x243 JUMPI PUSH1 0x0 DUP1 REVERT JUMPDEST POP JUMP JUMPDEST PUSH1 0x0 DUP2 CALLDATALOAD SWAP1 POP PUSH2 0x255 DUP2 PUSH2 0x22F JUMP JUMPDEST SWAP3 SWAP2 POP POP JUMP JUMPDEST PUSH1 0x0 PUSH1 0x20 DUP3 DUP5 SUB SLT ISZERO PUSH2 0x271 JUMPI PUSH2 0x270 PUSH2 0x193 JUMP JUMPDEST JUMPDEST PUSH1 0x0 PUSH2 0x27F DUP5 DUP3 DUP6 ADD PUSH2 0x246 JUMP JUMPDEST SWAP2 POP POP SWAP3 SWAP2 POP POP JUMP JUMPDEST PUSH2 0x291 DUP2 PUSH2 0x225 JUMP JUMPDEST DUP3 MSTORE POP POP JUMP JUMPDEST PUSH1 0x0 PUSH1 0x20 DUP3 ADD SWAP1 POP PUSH2 0x2AC PUSH1 0x0 DUP4 ADD DUP5 PUSH2 0x288 JUMP JUMPDEST SWAP3 SWAP2 POP POP JUMP JUMPDEST PUSH1 0x0 DUP1 PUSH1 0x40 DUP4 DUP6 SUB SLT ISZERO PUSH2 0x2C9 JUMPI PUSH2 0x2C8 PUSH2 0x193 JUMP JUMPDEST JUMPDEST PUSH1 0x0 PUSH2 0x2D7 DUP6 DUP3 DUP7 ADD PUSH2 0x246 JUMP JUMPDEST SWAP3 POP POP PUSH1 0x20 PUSH2 0x2E8 DUP6 DUP3 DUP7 ADD PUSH2 0x246 JUMP JUMPDEST SWAP2 POP POP SWAP3 POP SWAP3 SWAP1 POP JUMP JUMPDEST PUSH1 0x0 DUP3 DUP3 MSTORE PUSH1 0x20 DUP3 ADD SWAP1 POP SWAP3 SWAP2 POP POP JUMP JUMPDEST PUSH32 0x56616C75652073686F756C642062652067726561746572207468616E20300000 PUSH1 0x0 DUP3 ADD MSTORE POP JUMP JUMPDEST PUSH1 0x0 PUSH2 0x339 PUSH1 0x1E DUP4 PUSH2 0x2F2 JUMP JUMPDEST SWAP2 POP PUSH2 0x344 DUP3 PUSH2 0x303 JUMP JUMPDEST PUSH1 0x20 DUP3 ADD SWAP1 POP SWAP2 SWAP1 POP JUMP JUMPDEST PUSH1 0x0 PUSH1 0x20 DUP3 ADD SWAP1 POP DUP2 DUP2 SUB PUSH1 0x0 DUP4 ADD MSTORE PUSH2 0x368 DUP2 PUSH2 0x32C JUMP JUMPDEST SWAP1 POP SWAP2 SWAP1 POP JUMP JUMPDEST PUSH32 0x4E487B7100000000000000000000000000000000000000000000000000000000 PUSH1 0x0 MSTORE PUSH1 0x12 PUSH1 0x4 MSTORE PUSH1 0x24 PUSH1 0x0 REVERT JUMPDEST PUSH1 0x0 PUSH2 0x3A9 DUP3 PUSH2 0x225 JUMP JUMPDEST SWAP2 POP PUSH2 0x3B4 DUP4 PUSH2 0x225 JUMP JUMPDEST SWAP3 POP DUP3 PUSH2 0x3C4 JUMPI PUSH2 0x3C3 PUSH2 0x36F JUMP JUMPDEST JUMPDEST DUP3 DUP3 SMOD SWAP1 POP SWAP3 SWAP2 POP POP JUMP JUMPDEST PUSH32 0x4E487B7100000000000000000000000000000000000000000000000000000000 PUSH1 0x0 MSTORE PUSH1 0x11 PUSH1 0x4 MSTORE PUSH1 0x24 PUSH1 0x0 REVERT JUMPDEST PUSH1 0x0 PUSH2 0x409 DUP3 PUSH2 0x225 JUMP JUMPDEST SWAP2 POP PUSH2 0x414 DUP4 PUSH2 0x225 JUMP JUMPDEST SWAP3 POP DUP3 DUP3 SUB SWAP1 POP DUP2 DUP2 SLT PUSH1 0x0 DUP5 SLT AND DUP3 DUP3 SGT PUSH1 0x0 DUP6 SLT ISZERO AND OR ISZERO PUSH2 0x43B JUMPI PUSH2 0x43A PUSH2 0x3CF JUMP JUMPDEST JUMPDEST SWAP3 SWAP2 POP POP JUMP JUMPDEST PUSH1 0x0 PUSH2 0x44C DUP3 PUSH2 0x225 JUMP JUMPDEST SWAP2 POP PUSH2 0x457 DUP4 PUSH2 0x225 JUMP JUMPDEST SWAP3 POP DUP3 DUP3 ADD SWAP1 POP DUP3 DUP2 SLT ISZERO PUSH1 0x0 DUP4 SLT AND DUP4 DUP3 SLT PUSH1 0x0 DUP5 SLT ISZERO AND OR ISZERO PUSH2 0x47F JUMPI PUSH2 0x47E PUSH2 0x3CF JUMP JUMPDEST JUMPDEST SWAP3 SWAP2 POP POP JUMP INVALID LOG2 PUSH5 0x6970667358 0x22 SLT KECCAK256 MSIZE GAS SWAP2 0xB4 SELFDESTRUCT RETURNDATASIZE 0xDD 0xDA DUP9 0x26 DIFFICULTY 0x28 XOR PUSH16 0x112659689EF4EBA9378334992E5A4D82 0xF6 DUP8 PUSH5 0x736F6C6343 STOP ADDMOD LT STOP CALLER "
				},
				"gasEstimates": {
					"creation": {
						"codeDepositCost": "242200",
						"executionCost": "281",
						"totalCost": "242481"
					},
					"external": {
						"evaluate(int256,int256)": "infinite",
						"find(int256)": "infinite",
						"getNumber()": "2437",
						"setNumber(uint256)": "22498"
					}
				},
				"methodIdentifiers": {
					"evaluate(int256,int256)": "f8bb49a1",
					"find(int256)": "f4440ea3",
					"getNumber()": "f2c9ecd8",
					"setNumber(uint256)": "3fb5c1cb"
				}
			},
			"storageLayout": {
				"storage": [
					{
						"astId": 3,
						"contract": "contracts/24-Aug-assignment-2.sol:task1",
						"label": "num",
						"offset": 0,
						"slot": "0",
						"type": "t_uint256"
					}
				],
				"types": {
					"t_uint256": {
						"encoding": "inplace",
						"label": "uint256",
						"numberOfBytes": "32"
					}
				}
			},
			"userdoc": {
				"kind": "user",
				"methods": {},
				"version": 1
			}
		}
	}
}