{
	"contracts/24-Aug-assignment-2.sol": {
		"task1": {
			"abi": [
				{
					"inputs": [
						{
							"internalType": "int256",
							"name": "a",
							"type": "int256"
						},
						{
							"internalType": "int256",
							"name": "b",
							"type": "int256"
						}
					],
					"name": "evaluate",
					"outputs": [],
					"stateMutability": "nonpayable",
					"type": "function"
				},
				{
					"inputs": [],
					"name": "getNumber",
					"outputs": [
						{
							"internalType": "uint256",
							"name": "",
							"type": "uint256"
						}
					],
					"stateMutability": "view",
					"type": "function"
				},
				{
					"inputs": [
						{
							"internalType": "uint256",
							"name": "_num",
							"type": "uint256"
						}
					],
					"name": "setNumber",
					"outputs": [],
					"stateMutability": "nonpayable",
					"type": "function"
				}
			],
			"devdoc": {
				"kind": "dev",
				"methods": {},
				"version": 1
			},
			"evm": {
				"assembly": "    /* \"contracts/24-Aug-assignment-2.sol\":64:359  contract task1 ... */\n  mstore(0x40, 0x80)\n  callvalue\n  dup1\n  iszero\n  tag_1\n  jumpi\n  0x00\n  dup1\n  revert\ntag_1:\n  pop\n  dataSize(sub_0)\n  dup1\n  dataOffset(sub_0)\n  0x00\n  codecopy\n  0x00\n  return\nstop\n\nsub_0: assembly {\n        /* \"contracts/24-Aug-assignment-2.sol\":64:359  contract task1 ... */\n      mstore(0x40, 0x80)\n      callvalue\n      dup1\n      iszero\n      tag_1\n      jumpi\n      0x00\n      dup1\n      revert\n    tag_1:\n      pop\n      jumpi(tag_2, lt(calldatasize, 0x04))\n      shr(0xe0, calldataload(0x00))\n      dup1\n      0x3fb5c1cb\n      eq\n      tag_3\n      jumpi\n      dup1\n      0xf2c9ecd8\n      eq\n      tag_4\n      jumpi\n      dup1\n      0xf8bb49a1\n      eq\n      tag_5\n      jumpi\n    tag_2:\n      0x00\n      dup1\n      revert\n        /* \"contracts/24-Aug-assignment-2.sol\":120:184  function setNumber(uint _num) public {... */\n    tag_3:\n      tag_6\n      0x04\n      dup1\n      calldatasize\n      sub\n      dup2\n      add\n      swap1\n      tag_7\n      swap2\n      swap1\n      tag_8\n      jump\t// in\n    tag_7:\n      tag_9\n      jump\t// in\n    tag_6:\n      stop\n        /* \"contracts/24-Aug-assignment-2.sol\":190:265  function getNumber() public view returns (uint) {... */\n    tag_4:\n      tag_10\n      tag_11\n      jump\t// in\n    tag_10:\n      mload(0x40)\n      tag_12\n      swap2\n      swap1\n      tag_13\n      jump\t// in\n    tag_12:\n      mload(0x40)\n      dup1\n      swap2\n      sub\n      swap1\n      return\n        /* \"contracts/24-Aug-assignment-2.sol\":308:355  function evaluate(int a, int b) public {... */\n    tag_5:\n      tag_14\n      0x04\n      dup1\n      calldatasize\n      sub\n      dup2\n      add\n      swap1\n      tag_15\n      swap2\n      swap1\n      tag_16\n      jump\t// in\n    tag_15:\n      tag_17\n      jump\t// in\n    tag_14:\n      stop\n        /* \"contracts/24-Aug-assignment-2.sol\":120:184  function setNumber(uint _num) public {... */\n    tag_9:\n        /* \"contracts/24-Aug-assignment-2.sol\":173:177  _num */\n      dup1\n        /* \"contracts/24-Aug-assignment-2.sol\":167:170  num */\n      0x00\n        /* \"contracts/24-Aug-assignment-2.sol\":167:177  num = _num */\n      dup2\n      swap1\n      sstore\n      pop\n        /* \"contracts/24-Aug-assignment-2.sol\":120:184  function setNumber(uint _num) public {... */\n      pop\n      jump\t// out\n        /* \"contracts/24-Aug-assignment-2.sol\":190:265  function getNumber() public view returns (uint) {... */\n    tag_11:\n        /* \"contracts/24-Aug-assignment-2.sol\":232:236  uint */\n      0x00\n        /* \"contracts/24-Aug-assignment-2.sol\":255:258  num */\n      dup1\n      sload\n        /* \"contracts/24-Aug-assignment-2.sol\":248:258  return num */\n      swap1\n      pop\n        /* \"contracts/24-Aug-assignment-2.sol\":190:265  function getNumber() public view returns (uint) {... */\n      swap1\n      jump\t// out\n        /* \"contracts/24-Aug-assignment-2.sol\":308:355  function evaluate(int a, int b) public {... */\n    tag_17:\n      pop\n      pop\n      jump\t// out\n        /* \"#utility.yul\":88:205   */\n    tag_22:\n        /* \"#utility.yul\":197:198   */\n      0x00\n        /* \"#utility.yul\":194:195   */\n      dup1\n        /* \"#utility.yul\":187:199   */\n      revert\n        /* \"#utility.yul\":334:411   */\n    tag_24:\n        /* \"#utility.yul\":371:378   */\n      0x00\n        /* \"#utility.yul\":400:405   */\n      dup2\n        /* \"#utility.yul\":389:405   */\n      swap1\n      pop\n        /* \"#utility.yul\":334:411   */\n      swap2\n      swap1\n      pop\n      jump\t// out\n        /* \"#utility.yul\":417:539   */\n    tag_25:\n        /* \"#utility.yul\":490:514   */\n      tag_37\n        /* \"#utility.yul\":508:513   */\n      dup2\n        /* \"#utility.yul\":490:514   */\n      tag_24\n      jump\t// in\n    tag_37:\n        /* \"#utility.yul\":483:488   */\n      dup2\n        /* \"#utility.yul\":480:515   */\n      eq\n        /* \"#utility.yul\":470:533   */\n      tag_38\n      jumpi\n        /* \"#utility.yul\":529:530   */\n      0x00\n        /* \"#utility.yul\":526:527   */\n      dup1\n        /* \"#utility.yul\":519:531   */\n      revert\n        /* \"#utility.yul\":470:533   */\n    tag_38:\n        /* \"#utility.yul\":417:539   */\n      pop\n      jump\t// out\n        /* \"#utility.yul\":545:684   */\n    tag_26:\n        /* \"#utility.yul\":591:596   */\n      0x00\n        /* \"#utility.yul\":629:635   */\n      dup2\n        /* \"#utility.yul\":616:636   */\n      calldataload\n        /* \"#utility.yul\":607:636   */\n      swap1\n      pop\n        /* \"#utility.yul\":645:678   */\n      tag_40\n        /* \"#utility.yul\":672:677   */\n      dup2\n        /* \"#utility.yul\":645:678   */\n      tag_25\n      jump\t// in\n    tag_40:\n        /* \"#utility.yul\":545:684   */\n      swap3\n      swap2\n      pop\n      pop\n      jump\t// out\n        /* \"#utility.yul\":690:1019   */\n    tag_8:\n        /* \"#utility.yul\":749:755   */\n      0x00\n        /* \"#utility.yul\":798:800   */\n      0x20\n        /* \"#utility.yul\":786:795   */\n      dup3\n        /* \"#utility.yul\":777:784   */\n      dup5\n        /* \"#utility.yul\":773:796   */\n      sub\n        /* \"#utility.yul\":769:801   */\n      slt\n        /* \"#utility.yul\":766:885   */\n      iszero\n      tag_42\n      jumpi\n        /* \"#utility.yul\":804:883   */\n      tag_43\n      tag_22\n      jump\t// in\n    tag_43:\n        /* \"#utility.yul\":766:885   */\n    tag_42:\n        /* \"#utility.yul\":924:925   */\n      0x00\n        /* \"#utility.yul\":949:1002   */\n      tag_44\n        /* \"#utility.yul\":994:1001   */\n      dup5\n        /* \"#utility.yul\":985:991   */\n      dup3\n        /* \"#utility.yul\":974:983   */\n      dup6\n        /* \"#utility.yul\":970:992   */\n      add\n        /* \"#utility.yul\":949:1002   */\n      tag_26\n      jump\t// in\n    tag_44:\n        /* \"#utility.yul\":939:1002   */\n      swap2\n      pop\n        /* \"#utility.yul\":895:1012   */\n      pop\n        /* \"#utility.yul\":690:1019   */\n      swap3\n      swap2\n      pop\n      pop\n      jump\t// out\n        /* \"#utility.yul\":1025:1143   */\n    tag_27:\n        /* \"#utility.yul\":1112:1136   */\n      tag_46\n        /* \"#utility.yul\":1130:1135   */\n      dup2\n        /* \"#utility.yul\":1112:1136   */\n      tag_24\n      jump\t// in\n    tag_46:\n        /* \"#utility.yul\":1107:1110   */\n      dup3\n        /* \"#utility.yul\":1100:1137   */\n      mstore\n        /* \"#utility.yul\":1025:1143   */\n      pop\n      pop\n      jump\t// out\n        /* \"#utility.yul\":1149:1371   */\n    tag_13:\n        /* \"#utility.yul\":1242:1246   */\n      0x00\n        /* \"#utility.yul\":1280:1282   */\n      0x20\n        /* \"#utility.yul\":1269:1278   */\n      dup3\n        /* \"#utility.yul\":1265:1283   */\n      add\n        /* \"#utility.yul\":1257:1283   */\n      swap1\n      pop\n        /* \"#utility.yul\":1293:1364   */\n      tag_48\n        /* \"#utility.yul\":1361:1362   */\n      0x00\n        /* \"#utility.yul\":1350:1359   */\n      dup4\n        /* \"#utility.yul\":1346:1363   */\n      add\n        /* \"#utility.yul\":1337:1343   */\n      dup5\n        /* \"#utility.yul\":1293:1364   */\n      tag_27\n      jump\t// in\n    tag_48:\n        /* \"#utility.yul\":1149:1371   */\n      swap3\n      swap2\n      pop\n      pop\n      jump\t// out\n        /* \"#utility.yul\":1377:1453   */\n    tag_28:\n        /* \"#utility.yul\":1413:1420   */\n      0x00\n        /* \"#utility.yul\":1442:1447   */\n      dup2\n        /* \"#utility.yul\":1431:1447   */\n      swap1\n      pop\n        /* \"#utility.yul\":1377:1453   */\n      swap2\n      swap1\n      pop\n      jump\t// out\n        /* \"#utility.yul\":1459:1579   */\n    tag_29:\n        /* \"#utility.yul\":1531:1554   */\n      tag_51\n        /* \"#utility.yul\":1548:1553   */\n      dup2\n        /* \"#utility.yul\":1531:1554   */\n      tag_28\n      jump\t// in\n    tag_51:\n        /* \"#utility.yul\":1524:1529   */\n      dup2\n        /* \"#utility.yul\":1521:1555   */\n      eq\n        /* \"#utility.yul\":1511:1573   */\n      tag_52\n      jumpi\n        /* \"#utility.yul\":1569:1570   */\n      0x00\n        /* \"#utility.yul\":1566:1567   */\n      dup1\n        /* \"#utility.yul\":1559:1571   */\n      revert\n        /* \"#utility.yul\":1511:1573   */\n    tag_52:\n        /* \"#utility.yul\":1459:1579   */\n      pop\n      jump\t// out\n        /* \"#utility.yul\":1585:1722   */\n    tag_30:\n        /* \"#utility.yul\":1630:1635   */\n      0x00\n        /* \"#utility.yul\":1668:1674   */\n      dup2\n        /* \"#utility.yul\":1655:1675   */\n      calldataload\n        /* \"#utility.yul\":1646:1675   */\n      swap1\n      pop\n        /* \"#utility.yul\":1684:1716   */\n      tag_54\n        /* \"#utility.yul\":1710:1715   */\n      dup2\n        /* \"#utility.yul\":1684:1716   */\n      tag_29\n      jump\t// in\n    tag_54:\n        /* \"#utility.yul\":1585:1722   */\n      swap3\n      swap2\n      pop\n      pop\n      jump\t// out\n        /* \"#utility.yul\":1728:2198   */\n    tag_16:\n        /* \"#utility.yul\":1794:1800   */\n      0x00\n        /* \"#utility.yul\":1802:1808   */\n      dup1\n        /* \"#utility.yul\":1851:1853   */\n      0x40\n        /* \"#utility.yul\":1839:1848   */\n      dup4\n        /* \"#utility.yul\":1830:1837   */\n      dup6\n        /* \"#utility.yul\":1826:1849   */\n      sub\n        /* \"#utility.yul\":1822:1854   */\n      slt\n        /* \"#utility.yul\":1819:1938   */\n      iszero\n      tag_56\n      jumpi\n        /* \"#utility.yul\":1857:1936   */\n      tag_57\n      tag_22\n      jump\t// in\n    tag_57:\n        /* \"#utility.yul\":1819:1938   */\n    tag_56:\n        /* \"#utility.yul\":1977:1978   */\n      0x00\n        /* \"#utility.yul\":2002:2054   */\n      tag_58\n        /* \"#utility.yul\":2046:2053   */\n      dup6\n        /* \"#utility.yul\":2037:2043   */\n      dup3\n        /* \"#utility.yul\":2026:2035   */\n      dup7\n        /* \"#utility.yul\":2022:2044   */\n      add\n        /* \"#utility.yul\":2002:2054   */\n      tag_30\n      jump\t// in\n    tag_58:\n        /* \"#utility.yul\":1992:2054   */\n      swap3\n      pop\n        /* \"#utility.yul\":1948:2064   */\n      pop\n        /* \"#utility.yul\":2103:2105   */\n      0x20\n        /* \"#utility.yul\":2129:2181   */\n      tag_59\n        /* \"#utility.yul\":2173:2180   */\n      dup6\n        /* \"#utility.yul\":2164:2170   */\n      dup3\n        /* \"#utility.yul\":2153:2162   */\n      dup7\n        /* \"#utility.yul\":2149:2171   */\n      add\n        /* \"#utility.yul\":2129:2181   */\n      tag_30\n      jump\t// in\n    tag_59:\n        /* \"#utility.yul\":2119:2181   */\n      swap2\n      pop\n        /* \"#utility.yul\":2074:2191   */\n      pop\n        /* \"#utility.yul\":1728:2198   */\n      swap3\n      pop\n      swap3\n      swap1\n      pop\n      jump\t// out\n\n    auxdata: 0xa2646970667358221220f7d0fb283931dee0a3620befbcb8674a7d7fe9e264f16f7444fa43308b441b5b64736f6c63430008100033\n}\n",
				"bytecode": {
					"linkReferences": {},
					"object": "608060405234801561001057600080fd5b506101f1806100206000396000f3fe608060405234801561001057600080fd5b50600436106100415760003560e01c80633fb5c1cb14610046578063f2c9ecd814610062578063f8bb49a114610080575b600080fd5b610060600480360381019061005b91906100ee565b61009c565b005b61006a6100a6565b604051610077919061012a565b60405180910390f35b61009a6004803603810190610095919061017b565b6100af565b005b8060008190555050565b60008054905090565b5050565b600080fd5b6000819050919050565b6100cb816100b8565b81146100d657600080fd5b50565b6000813590506100e8816100c2565b92915050565b600060208284031215610104576101036100b3565b5b6000610112848285016100d9565b91505092915050565b610124816100b8565b82525050565b600060208201905061013f600083018461011b565b92915050565b6000819050919050565b61015881610145565b811461016357600080fd5b50565b6000813590506101758161014f565b92915050565b60008060408385031215610192576101916100b3565b5b60006101a085828601610166565b92505060206101b185828601610166565b915050925092905056fea2646970667358221220f7d0fb283931dee0a3620befbcb8674a7d7fe9e264f16f7444fa43308b441b5b64736f6c63430008100033",
					"opcodes": "PUSH1 0x80 PUSH1 0x40 MSTORE CALLVALUE DUP1 ISZERO PUSH2 0x10 JUMPI PUSH1 0x0 DUP1 REVERT JUMPDEST POP PUSH2 0x1F1 DUP1 PUSH2 0x20 PUSH1 0x0 CODECOPY PUSH1 0x0 RETURN INVALID PUSH1 0x80 PUSH1 0x40 MSTORE CALLVALUE DUP1 ISZERO PUSH2 0x10 JUMPI PUSH1 0x0 DUP1 REVERT JUMPDEST POP PUSH1 0x4 CALLDATASIZE LT PUSH2 0x41 JUMPI PUSH1 0x0 CALLDATALOAD PUSH1 0xE0 SHR DUP1 PUSH4 0x3FB5C1CB EQ PUSH2 0x46 JUMPI DUP1 PUSH4 0xF2C9ECD8 EQ PUSH2 0x62 JUMPI DUP1 PUSH4 0xF8BB49A1 EQ PUSH2 0x80 JUMPI JUMPDEST PUSH1 0x0 DUP1 REVERT JUMPDEST PUSH2 0x60 PUSH1 0x4 DUP1 CALLDATASIZE SUB DUP2 ADD SWAP1 PUSH2 0x5B SWAP2 SWAP1 PUSH2 0xEE JUMP JUMPDEST PUSH2 0x9C JUMP JUMPDEST STOP JUMPDEST PUSH2 0x6A PUSH2 0xA6 JUMP JUMPDEST PUSH1 0x40 MLOAD PUSH2 0x77 SWAP2 SWAP1 PUSH2 0x12A JUMP JUMPDEST PUSH1 0x40 MLOAD DUP1 SWAP2 SUB SWAP1 RETURN JUMPDEST PUSH2 0x9A PUSH1 0x4 DUP1 CALLDATASIZE SUB DUP2 ADD SWAP1 PUSH2 0x95 SWAP2 SWAP1 PUSH2 0x17B JUMP JUMPDEST PUSH2 0xAF JUMP JUMPDEST STOP JUMPDEST DUP1 PUSH1 0x0 DUP2 SWAP1 SSTORE POP POP JUMP JUMPDEST PUSH1 0x0 DUP1 SLOAD SWAP1 POP SWAP1 JUMP JUMPDEST POP POP JUMP JUMPDEST PUSH1 0x0 DUP1 REVERT JUMPDEST PUSH1 0x0 DUP2 SWAP1 POP SWAP2 SWAP1 POP JUMP JUMPDEST PUSH2 0xCB DUP2 PUSH2 0xB8 JUMP JUMPDEST DUP2 EQ PUSH2 0xD6 JUMPI PUSH1 0x0 DUP1 REVERT JUMPDEST POP JUMP JUMPDEST PUSH1 0x0 DUP2 CALLDATALOAD SWAP1 POP PUSH2 0xE8 DUP2 PUSH2 0xC2 JUMP JUMPDEST SWAP3 SWAP2 POP POP JUMP JUMPDEST PUSH1 0x0 PUSH1 0x20 DUP3 DUP5 SUB SLT ISZERO PUSH2 0x104 JUMPI PUSH2 0x103 PUSH2 0xB3 JUMP JUMPDEST JUMPDEST PUSH1 0x0 PUSH2 0x112 DUP5 DUP3 DUP6 ADD PUSH2 0xD9 JUMP JUMPDEST SWAP2 POP POP SWAP3 SWAP2 POP POP JUMP JUMPDEST PUSH2 0x124 DUP2 PUSH2 0xB8 JUMP JUMPDEST DUP3 MSTORE POP POP JUMP JUMPDEST PUSH1 0x0 PUSH1 0x20 DUP3 ADD SWAP1 POP PUSH2 0x13F PUSH1 0x0 DUP4 ADD DUP5 PUSH2 0x11B JUMP JUMPDEST SWAP3 SWAP2 POP POP JUMP JUMPDEST PUSH1 0x0 DUP2 SWAP1 POP SWAP2 SWAP1 POP JUMP JUMPDEST PUSH2 0x158 DUP2 PUSH2 0x145 JUMP JUMPDEST DUP2 EQ PUSH2 0x163 JUMPI PUSH1 0x0 DUP1 REVERT JUMPDEST POP JUMP JUMPDEST PUSH1 0x0 DUP2 CALLDATALOAD SWAP1 POP PUSH2 0x175 DUP2 PUSH2 0x14F JUMP JUMPDEST SWAP3 SWAP2 POP POP JUMP JUMPDEST PUSH1 0x0 DUP1 PUSH1 0x40 DUP4 DUP6 SUB SLT ISZERO PUSH2 0x192 JUMPI PUSH2 0x191 PUSH2 0xB3 JUMP JUMPDEST JUMPDEST PUSH1 0x0 PUSH2 0x1A0 DUP6 DUP3 DUP7 ADD PUSH2 0x166 JUMP JUMPDEST SWAP3 POP POP PUSH1 0x20 PUSH2 0x1B1 DUP6 DUP3 DUP7 ADD PUSH2 0x166 JUMP JUMPDEST SWAP2 POP POP SWAP3 POP SWAP3 SWAP1 POP JUMP INVALID LOG2 PUSH5 0x6970667358 0x22 SLT KECCAK256 0xF7 0xD0 0xFB 0x28 CODECOPY BALANCE 0xDE 0xE0 LOG3 PUSH3 0xBEFBC 0xB8 PUSH8 0x4A7D7FE9E264F16F PUSH21 0x44FA43308B441B5B64736F6C634300081000330000 "
				},
				"gasEstimates": {
					"creation": {
						"codeDepositCost": "99400",
						"executionCost": "147",
						"totalCost": "99547"
					},
					"external": {
						"evaluate(int256,int256)": "infinite",
						"getNumber()": "2437",
						"setNumber(uint256)": "22498"
					}
				},
				"methodIdentifiers": {
					"evaluate(int256,int256)": "f8bb49a1",
					"getNumber()": "f2c9ecd8",
					"setNumber(uint256)": "3fb5c1cb"
				}
			},
			"storageLayout": {
				"storage": [
					{
						"astId": 3,
						"contract": "contracts/24-Aug-assignment-2.sol:task1",
						"label": "num",
						"offset": 0,
						"slot": "0",
						"type": "t_uint256"
					}
				],
				"types": {
					"t_uint256": {
						"encoding": "inplace",
						"label": "uint256",
						"numberOfBytes": "32"
					}
				}
			},
			"userdoc": {
				"kind": "user",
				"methods": {},
				"version": 1
			}
		}
	}
}