{
	"contracts/assignment-4.sol": {
		"assignment4": {
			"abi": [
				{
					"inputs": [
						{
							"internalType": "int256",
							"name": "a",
							"type": "int256"
						},
						{
							"internalType": "int256",
							"name": "b",
							"type": "int256"
						}
					],
					"name": "evaluate",
					"outputs": [
						{
							"internalType": "int256",
							"name": "",
							"type": "int256"
						}
					],
					"stateMutability": "pure",
					"type": "function"
				}
			],
			"devdoc": {
				"kind": "dev",
				"methods": {},
				"version": 1
			},
			"evm": {
				"assembly": "    /* \"contracts/assignment-4.sol\":64:269  contract assignment4... */\n  mstore(0x40, 0x80)\n  callvalue\n  dup1\n  iszero\n  tag_1\n  jumpi\n  0x00\n  dup1\n  revert\ntag_1:\n  pop\n  dataSize(sub_0)\n  dup1\n  dataOffset(sub_0)\n  0x00\n  codecopy\n  0x00\n  return\nstop\n\nsub_0: assembly {\n        /* \"contracts/assignment-4.sol\":64:269  contract assignment4... */\n      mstore(0x40, 0x80)\n      callvalue\n      dup1\n      iszero\n      tag_1\n      jumpi\n      0x00\n      dup1\n      revert\n    tag_1:\n      pop\n      jumpi(tag_2, lt(calldatasize, 0x04))\n      shr(0xe0, calldataload(0x00))\n      dup1\n      0xf8bb49a1\n      eq\n      tag_3\n      jumpi\n    tag_2:\n      0x00\n      dup1\n      revert\n        /* \"contracts/assignment-4.sol\":95:266  function evaluate(int a, int b) public pure returns (int){... */\n    tag_3:\n      tag_4\n      0x04\n      dup1\n      calldatasize\n      sub\n      dup2\n      add\n      swap1\n      tag_5\n      swap2\n      swap1\n      tag_6\n      jump\t// in\n    tag_5:\n      tag_7\n      jump\t// in\n    tag_4:\n      mload(0x40)\n      tag_8\n      swap2\n      swap1\n      tag_9\n      jump\t// in\n    tag_8:\n      mload(0x40)\n      dup1\n      swap2\n      sub\n      swap1\n      return\n    tag_7:\n        /* \"contracts/assignment-4.sol\":148:151  int */\n      0x00\n        /* \"contracts/assignment-4.sol\":162:170  int diff */\n      dup1\n        /* \"contracts/assignment-4.sol\":177:178  b */\n      dup3\n        /* \"contracts/assignment-4.sol\":173:174  a */\n      dup5\n        /* \"contracts/assignment-4.sol\":173:178  a - b */\n      tag_11\n      swap2\n      swap1\n      tag_12\n      jump\t// in\n    tag_11:\n        /* \"contracts/assignment-4.sol\":162:178  int diff = a - b */\n      swap1\n      pop\n        /* \"contracts/assignment-4.sol\":188:195  int sum */\n      0x00\n        /* \"contracts/assignment-4.sol\":202:203  b */\n      dup4\n        /* \"contracts/assignment-4.sol\":198:199  a */\n      dup6\n        /* \"contracts/assignment-4.sol\":198:203  a + b */\n      tag_13\n      swap2\n      swap1\n      tag_14\n      jump\t// in\n    tag_13:\n        /* \"contracts/assignment-4.sol\":188:203  int sum = a + b */\n      swap1\n      pop\n        /* \"contracts/assignment-4.sol\":213:223  int result */\n      0x00\n        /* \"contracts/assignment-4.sol\":232:236  diff */\n      dup3\n        /* \"contracts/assignment-4.sol\":226:229  sum */\n      dup3\n        /* \"contracts/assignment-4.sol\":226:236  sum - diff */\n      tag_15\n      swap2\n      swap1\n      tag_12\n      jump\t// in\n    tag_15:\n        /* \"contracts/assignment-4.sol\":213:236  int result = sum - diff */\n      swap1\n      pop\n        /* \"contracts/assignment-4.sol\":253:259  result */\n      dup1\n        /* \"contracts/assignment-4.sol\":246:259  return result */\n      swap4\n      pop\n      pop\n      pop\n      pop\n        /* \"contracts/assignment-4.sol\":95:266  function evaluate(int a, int b) public pure returns (int){... */\n      swap3\n      swap2\n      pop\n      pop\n      jump\t// out\n        /* \"#utility.yul\":88:205   */\n    tag_17:\n        /* \"#utility.yul\":197:198   */\n      0x00\n        /* \"#utility.yul\":194:195   */\n      dup1\n        /* \"#utility.yul\":187:199   */\n      revert\n        /* \"#utility.yul\":334:410   */\n    tag_19:\n        /* \"#utility.yul\":370:377   */\n      0x00\n        /* \"#utility.yul\":399:404   */\n      dup2\n        /* \"#utility.yul\":388:404   */\n      swap1\n      pop\n        /* \"#utility.yul\":334:410   */\n      swap2\n      swap1\n      pop\n      jump\t// out\n        /* \"#utility.yul\":416:536   */\n    tag_20:\n        /* \"#utility.yul\":488:511   */\n      tag_30\n        /* \"#utility.yul\":505:510   */\n      dup2\n        /* \"#utility.yul\":488:511   */\n      tag_19\n      jump\t// in\n    tag_30:\n        /* \"#utility.yul\":481:486   */\n      dup2\n        /* \"#utility.yul\":478:512   */\n      eq\n        /* \"#utility.yul\":468:530   */\n      tag_31\n      jumpi\n        /* \"#utility.yul\":526:527   */\n      0x00\n        /* \"#utility.yul\":523:524   */\n      dup1\n        /* \"#utility.yul\":516:528   */\n      revert\n        /* \"#utility.yul\":468:530   */\n    tag_31:\n        /* \"#utility.yul\":416:536   */\n      pop\n      jump\t// out\n        /* \"#utility.yul\":542:679   */\n    tag_21:\n        /* \"#utility.yul\":587:592   */\n      0x00\n        /* \"#utility.yul\":625:631   */\n      dup2\n        /* \"#utility.yul\":612:632   */\n      calldataload\n        /* \"#utility.yul\":603:632   */\n      swap1\n      pop\n        /* \"#utility.yul\":641:673   */\n      tag_33\n        /* \"#utility.yul\":667:672   */\n      dup2\n        /* \"#utility.yul\":641:673   */\n      tag_20\n      jump\t// in\n    tag_33:\n        /* \"#utility.yul\":542:679   */\n      swap3\n      swap2\n      pop\n      pop\n      jump\t// out\n        /* \"#utility.yul\":685:1155   */\n    tag_6:\n        /* \"#utility.yul\":751:757   */\n      0x00\n        /* \"#utility.yul\":759:765   */\n      dup1\n        /* \"#utility.yul\":808:810   */\n      0x40\n        /* \"#utility.yul\":796:805   */\n      dup4\n        /* \"#utility.yul\":787:794   */\n      dup6\n        /* \"#utility.yul\":783:806   */\n      sub\n        /* \"#utility.yul\":779:811   */\n      slt\n        /* \"#utility.yul\":776:895   */\n      iszero\n      tag_35\n      jumpi\n        /* \"#utility.yul\":814:893   */\n      tag_36\n      tag_17\n      jump\t// in\n    tag_36:\n        /* \"#utility.yul\":776:895   */\n    tag_35:\n        /* \"#utility.yul\":934:935   */\n      0x00\n        /* \"#utility.yul\":959:1011   */\n      tag_37\n        /* \"#utility.yul\":1003:1010   */\n      dup6\n        /* \"#utility.yul\":994:1000   */\n      dup3\n        /* \"#utility.yul\":983:992   */\n      dup7\n        /* \"#utility.yul\":979:1001   */\n      add\n        /* \"#utility.yul\":959:1011   */\n      tag_21\n      jump\t// in\n    tag_37:\n        /* \"#utility.yul\":949:1011   */\n      swap3\n      pop\n        /* \"#utility.yul\":905:1021   */\n      pop\n        /* \"#utility.yul\":1060:1062   */\n      0x20\n        /* \"#utility.yul\":1086:1138   */\n      tag_38\n        /* \"#utility.yul\":1130:1137   */\n      dup6\n        /* \"#utility.yul\":1121:1127   */\n      dup3\n        /* \"#utility.yul\":1110:1119   */\n      dup7\n        /* \"#utility.yul\":1106:1128   */\n      add\n        /* \"#utility.yul\":1086:1138   */\n      tag_21\n      jump\t// in\n    tag_38:\n        /* \"#utility.yul\":1076:1138   */\n      swap2\n      pop\n        /* \"#utility.yul\":1031:1148   */\n      pop\n        /* \"#utility.yul\":685:1155   */\n      swap3\n      pop\n      swap3\n      swap1\n      pop\n      jump\t// out\n        /* \"#utility.yul\":1161:1276   */\n    tag_22:\n        /* \"#utility.yul\":1246:1269   */\n      tag_40\n        /* \"#utility.yul\":1263:1268   */\n      dup2\n        /* \"#utility.yul\":1246:1269   */\n      tag_19\n      jump\t// in\n    tag_40:\n        /* \"#utility.yul\":1241:1244   */\n      dup3\n        /* \"#utility.yul\":1234:1270   */\n      mstore\n        /* \"#utility.yul\":1161:1276   */\n      pop\n      pop\n      jump\t// out\n        /* \"#utility.yul\":1282:1500   */\n    tag_9:\n        /* \"#utility.yul\":1373:1377   */\n      0x00\n        /* \"#utility.yul\":1411:1413   */\n      0x20\n        /* \"#utility.yul\":1400:1409   */\n      dup3\n        /* \"#utility.yul\":1396:1414   */\n      add\n        /* \"#utility.yul\":1388:1414   */\n      swap1\n      pop\n        /* \"#utility.yul\":1424:1493   */\n      tag_42\n        /* \"#utility.yul\":1490:1491   */\n      0x00\n        /* \"#utility.yul\":1479:1488   */\n      dup4\n        /* \"#utility.yul\":1475:1492   */\n      add\n        /* \"#utility.yul\":1466:1472   */\n      dup5\n        /* \"#utility.yul\":1424:1493   */\n      tag_22\n      jump\t// in\n    tag_42:\n        /* \"#utility.yul\":1282:1500   */\n      swap3\n      swap2\n      pop\n      pop\n      jump\t// out\n        /* \"#utility.yul\":1506:1686   */\n    tag_23:\n        /* \"#utility.yul\":1554:1631   */\n      0x4e487b7100000000000000000000000000000000000000000000000000000000\n        /* \"#utility.yul\":1551:1552   */\n      0x00\n        /* \"#utility.yul\":1544:1632   */\n      mstore\n        /* \"#utility.yul\":1651:1655   */\n      0x11\n        /* \"#utility.yul\":1648:1649   */\n      0x04\n        /* \"#utility.yul\":1641:1656   */\n      mstore\n        /* \"#utility.yul\":1675:1679   */\n      0x24\n        /* \"#utility.yul\":1672:1673   */\n      0x00\n        /* \"#utility.yul\":1665:1680   */\n      revert\n        /* \"#utility.yul\":1692:2064   */\n    tag_12:\n        /* \"#utility.yul\":1731:1735   */\n      0x00\n        /* \"#utility.yul\":1751:1770   */\n      tag_45\n        /* \"#utility.yul\":1768:1769   */\n      dup3\n        /* \"#utility.yul\":1751:1770   */\n      tag_19\n      jump\t// in\n    tag_45:\n        /* \"#utility.yul\":1746:1770   */\n      swap2\n      pop\n        /* \"#utility.yul\":1784:1803   */\n      tag_46\n        /* \"#utility.yul\":1801:1802   */\n      dup4\n        /* \"#utility.yul\":1784:1803   */\n      tag_19\n      jump\t// in\n    tag_46:\n        /* \"#utility.yul\":1779:1803   */\n      swap3\n      pop\n        /* \"#utility.yul\":1827:1828   */\n      dup3\n        /* \"#utility.yul\":1824:1825   */\n      dup3\n        /* \"#utility.yul\":1820:1829   */\n      sub\n        /* \"#utility.yul\":1812:1829   */\n      swap1\n      pop\n        /* \"#utility.yul\":2021:2022   */\n      dup2\n        /* \"#utility.yul\":2015:2019   */\n      dup2\n        /* \"#utility.yul\":2011:2023   */\n      slt\n        /* \"#utility.yul\":2007:2008   */\n      0x00\n        /* \"#utility.yul\":2004:2005   */\n      dup5\n        /* \"#utility.yul\":2000:2009   */\n      slt\n        /* \"#utility.yul\":1996:2024   */\n      and\n        /* \"#utility.yul\":1979:1980   */\n      dup3\n        /* \"#utility.yul\":1973:1977   */\n      dup3\n        /* \"#utility.yul\":1969:1981   */\n      sgt\n        /* \"#utility.yul\":1964:1965   */\n      0x00\n        /* \"#utility.yul\":1961:1962   */\n      dup6\n        /* \"#utility.yul\":1957:1966   */\n      slt\n        /* \"#utility.yul\":1950:1967   */\n      iszero\n        /* \"#utility.yul\":1946:1982   */\n      and\n        /* \"#utility.yul\":1930:2034   */\n      or\n        /* \"#utility.yul\":1927:2057   */\n      iszero\n      tag_47\n      jumpi\n        /* \"#utility.yul\":2037:2055   */\n      tag_48\n      tag_23\n      jump\t// in\n    tag_48:\n        /* \"#utility.yul\":1927:2057   */\n    tag_47:\n        /* \"#utility.yul\":1692:2064   */\n      swap3\n      swap2\n      pop\n      pop\n      jump\t// out\n        /* \"#utility.yul\":2070:2445   */\n    tag_14:\n        /* \"#utility.yul\":2109:2112   */\n      0x00\n        /* \"#utility.yul\":2128:2147   */\n      tag_50\n        /* \"#utility.yul\":2145:2146   */\n      dup3\n        /* \"#utility.yul\":2128:2147   */\n      tag_19\n      jump\t// in\n    tag_50:\n        /* \"#utility.yul\":2123:2147   */\n      swap2\n      pop\n        /* \"#utility.yul\":2161:2180   */\n      tag_51\n        /* \"#utility.yul\":2178:2179   */\n      dup4\n        /* \"#utility.yul\":2161:2180   */\n      tag_19\n      jump\t// in\n    tag_51:\n        /* \"#utility.yul\":2156:2180   */\n      swap3\n      pop\n        /* \"#utility.yul\":2203:2204   */\n      dup3\n        /* \"#utility.yul\":2200:2201   */\n      dup3\n        /* \"#utility.yul\":2196:2205   */\n      add\n        /* \"#utility.yul\":2189:2205   */\n      swap1\n      pop\n        /* \"#utility.yul\":2401:2402   */\n      dup3\n        /* \"#utility.yul\":2396:2399   */\n      dup2\n        /* \"#utility.yul\":2392:2403   */\n      slt\n        /* \"#utility.yul\":2385:2404   */\n      iszero\n        /* \"#utility.yul\":2381:2382   */\n      0x00\n        /* \"#utility.yul\":2378:2379   */\n      dup4\n        /* \"#utility.yul\":2374:2383   */\n      slt\n        /* \"#utility.yul\":2370:2405   */\n      and\n        /* \"#utility.yul\":2353:2354   */\n      dup4\n        /* \"#utility.yul\":2348:2351   */\n      dup3\n        /* \"#utility.yul\":2344:2355   */\n      slt\n        /* \"#utility.yul\":2339:2340   */\n      0x00\n        /* \"#utility.yul\":2336:2337   */\n      dup5\n        /* \"#utility.yul\":2332:2341   */\n      slt\n        /* \"#utility.yul\":2325:2342   */\n      iszero\n        /* \"#utility.yul\":2321:2356   */\n      and\n        /* \"#utility.yul\":2305:2415   */\n      or\n        /* \"#utility.yul\":2302:2438   */\n      iszero\n      tag_52\n      jumpi\n        /* \"#utility.yul\":2418:2436   */\n      tag_53\n      tag_23\n      jump\t// in\n    tag_53:\n        /* \"#utility.yul\":2302:2438   */\n    tag_52:\n        /* \"#utility.yul\":2070:2445   */\n      swap3\n      swap2\n      pop\n      pop\n      jump\t// out\n\n    auxdata: 0xa2646970667358221220c02392ffde636530d42f01012d6d9f1205e1639e5a46c2ed4de2e3923c78e5af64736f6c63430008100033\n}\n",
				"bytecode": {
					"linkReferences": {},
					"object": "608060405234801561001057600080fd5b5061022e806100206000396000f3fe608060405234801561001057600080fd5b506004361061002b5760003560e01c8063f8bb49a114610030575b600080fd5b61004a600480360381019061004591906100d8565b610060565b6040516100579190610127565b60405180910390f35b600080828461006f9190610171565b90506000838561007f91906101b4565b90506000828261008f9190610171565b905080935050505092915050565b600080fd5b6000819050919050565b6100b5816100a2565b81146100c057600080fd5b50565b6000813590506100d2816100ac565b92915050565b600080604083850312156100ef576100ee61009d565b5b60006100fd858286016100c3565b925050602061010e858286016100c3565b9150509250929050565b610121816100a2565b82525050565b600060208201905061013c6000830184610118565b92915050565b7f4e487b7100000000000000000000000000000000000000000000000000000000600052601160045260246000fd5b600061017c826100a2565b9150610187836100a2565b92508282039050818112600084121682821360008512151617156101ae576101ad610142565b5b92915050565b60006101bf826100a2565b91506101ca836100a2565b9250828201905082811215600083121683821260008412151617156101f2576101f1610142565b5b9291505056fea2646970667358221220c02392ffde636530d42f01012d6d9f1205e1639e5a46c2ed4de2e3923c78e5af64736f6c63430008100033",
					"opcodes": "PUSH1 0x80 PUSH1 0x40 MSTORE CALLVALUE DUP1 ISZERO PUSH2 0x10 JUMPI PUSH1 0x0 DUP1 REVERT JUMPDEST POP PUSH2 0x22E DUP1 PUSH2 0x20 PUSH1 0x0 CODECOPY PUSH1 0x0 RETURN INVALID PUSH1 0x80 PUSH1 0x40 MSTORE CALLVALUE DUP1 ISZERO PUSH2 0x10 JUMPI PUSH1 0x0 DUP1 REVERT JUMPDEST POP PUSH1 0x4 CALLDATASIZE LT PUSH2 0x2B JUMPI PUSH1 0x0 CALLDATALOAD PUSH1 0xE0 SHR DUP1 PUSH4 0xF8BB49A1 EQ PUSH2 0x30 JUMPI JUMPDEST PUSH1 0x0 DUP1 REVERT JUMPDEST PUSH2 0x4A PUSH1 0x4 DUP1 CALLDATASIZE SUB DUP2 ADD SWAP1 PUSH2 0x45 SWAP2 SWAP1 PUSH2 0xD8 JUMP JUMPDEST PUSH2 0x60 JUMP JUMPDEST PUSH1 0x40 MLOAD PUSH2 0x57 SWAP2 SWAP1 PUSH2 0x127 JUMP JUMPDEST PUSH1 0x40 MLOAD DUP1 SWAP2 SUB SWAP1 RETURN JUMPDEST PUSH1 0x0 DUP1 DUP3 DUP5 PUSH2 0x6F SWAP2 SWAP1 PUSH2 0x171 JUMP JUMPDEST SWAP1 POP PUSH1 0x0 DUP4 DUP6 PUSH2 0x7F SWAP2 SWAP1 PUSH2 0x1B4 JUMP JUMPDEST SWAP1 POP PUSH1 0x0 DUP3 DUP3 PUSH2 0x8F SWAP2 SWAP1 PUSH2 0x171 JUMP JUMPDEST SWAP1 POP DUP1 SWAP4 POP POP POP POP SWAP3 SWAP2 POP POP JUMP JUMPDEST PUSH1 0x0 DUP1 REVERT JUMPDEST PUSH1 0x0 DUP2 SWAP1 POP SWAP2 SWAP1 POP JUMP JUMPDEST PUSH2 0xB5 DUP2 PUSH2 0xA2 JUMP JUMPDEST DUP2 EQ PUSH2 0xC0 JUMPI PUSH1 0x0 DUP1 REVERT JUMPDEST POP JUMP JUMPDEST PUSH1 0x0 DUP2 CALLDATALOAD SWAP1 POP PUSH2 0xD2 DUP2 PUSH2 0xAC JUMP JUMPDEST SWAP3 SWAP2 POP POP JUMP JUMPDEST PUSH1 0x0 DUP1 PUSH1 0x40 DUP4 DUP6 SUB SLT ISZERO PUSH2 0xEF JUMPI PUSH2 0xEE PUSH2 0x9D JUMP JUMPDEST JUMPDEST PUSH1 0x0 PUSH2 0xFD DUP6 DUP3 DUP7 ADD PUSH2 0xC3 JUMP JUMPDEST SWAP3 POP POP PUSH1 0x20 PUSH2 0x10E DUP6 DUP3 DUP7 ADD PUSH2 0xC3 JUMP JUMPDEST SWAP2 POP POP SWAP3 POP SWAP3 SWAP1 POP JUMP JUMPDEST PUSH2 0x121 DUP2 PUSH2 0xA2 JUMP JUMPDEST DUP3 MSTORE POP POP JUMP JUMPDEST PUSH1 0x0 PUSH1 0x20 DUP3 ADD SWAP1 POP PUSH2 0x13C PUSH1 0x0 DUP4 ADD DUP5 PUSH2 0x118 JUMP JUMPDEST SWAP3 SWAP2 POP POP JUMP JUMPDEST PUSH32 0x4E487B7100000000000000000000000000000000000000000000000000000000 PUSH1 0x0 MSTORE PUSH1 0x11 PUSH1 0x4 MSTORE PUSH1 0x24 PUSH1 0x0 REVERT JUMPDEST PUSH1 0x0 PUSH2 0x17C DUP3 PUSH2 0xA2 JUMP JUMPDEST SWAP2 POP PUSH2 0x187 DUP4 PUSH2 0xA2 JUMP JUMPDEST SWAP3 POP DUP3 DUP3 SUB SWAP1 POP DUP2 DUP2 SLT PUSH1 0x0 DUP5 SLT AND DUP3 DUP3 SGT PUSH1 0x0 DUP6 SLT ISZERO AND OR ISZERO PUSH2 0x1AE JUMPI PUSH2 0x1AD PUSH2 0x142 JUMP JUMPDEST JUMPDEST SWAP3 SWAP2 POP POP JUMP JUMPDEST PUSH1 0x0 PUSH2 0x1BF DUP3 PUSH2 0xA2 JUMP JUMPDEST SWAP2 POP PUSH2 0x1CA DUP4 PUSH2 0xA2 JUMP JUMPDEST SWAP3 POP DUP3 DUP3 ADD SWAP1 POP DUP3 DUP2 SLT ISZERO PUSH1 0x0 DUP4 SLT AND DUP4 DUP3 SLT PUSH1 0x0 DUP5 SLT ISZERO AND OR ISZERO PUSH2 0x1F2 JUMPI PUSH2 0x1F1 PUSH2 0x142 JUMP JUMPDEST JUMPDEST SWAP3 SWAP2 POP POP JUMP INVALID LOG2 PUSH5 0x6970667358 0x22 SLT KECCAK256 0xC0 0x23 SWAP3 SELFDESTRUCT 0xDE PUSH4 0x6530D42F ADD ADD 0x2D PUSH14 0x9F1205E1639E5A46C2ED4DE2E392 EXTCODECOPY PUSH25 0xE5AF64736F6C63430008100033000000000000000000000000 "
				},
				"gasEstimates": {
					"creation": {
						"codeDepositCost": "111600",
						"executionCost": "159",
						"totalCost": "111759"
					},
					"external": {
						"evaluate(int256,int256)": "infinite"
					}
				},
				"methodIdentifiers": {
					"evaluate(int256,int256)": "f8bb49a1"
				}
			},
			"storageLayout": {
				"storage": [],
				"types": null
			},
			"userdoc": {
				"kind": "user",
				"methods": {},
				"version": 1
			}
		}
	}
}