{
	"contracts/21-Aug-task-2.sol": {
		"task2": {
			"abi": [
				{
					"inputs": [],
					"name": "returnLocalVariable",
					"outputs": [
						{
							"internalType": "uint256",
							"name": "",
							"type": "uint256"
						}
					],
					"stateMutability": "view",
					"type": "function"
				},
				{
					"inputs": [],
					"name": "returnStateVariable",
					"outputs": [
						{
							"internalType": "uint256",
							"name": "",
							"type": "uint256"
						}
					],
					"stateMutability": "view",
					"type": "function"
				}
			],
			"devdoc": {
				"kind": "dev",
				"methods": {},
				"version": 1
			},
			"evm": {
				"assembly": "    /* \"contracts/21-Aug-task-2.sol\":64:349  contract task2 ... */\n  mstore(0x40, 0x80)\n    /* \"contracts/21-Aug-task-2.sol\":108:110  10 */\n  0x0a\n    /* \"contracts/21-Aug-task-2.sol\":87:110  uint stateVariable = 10 */\n  0x00\n  sstore\n    /* \"contracts/21-Aug-task-2.sol\":64:349  contract task2 ... */\n  callvalue\n  dup1\n  iszero\n  tag_1\n  jumpi\n  0x00\n  dup1\n  revert\ntag_1:\n  pop\n  dataSize(sub_0)\n  dup1\n  dataOffset(sub_0)\n  0x00\n  codecopy\n  0x00\n  return\nstop\n\nsub_0: assembly {\n        /* \"contracts/21-Aug-task-2.sol\":64:349  contract task2 ... */\n      mstore(0x40, 0x80)\n      callvalue\n      dup1\n      iszero\n      tag_1\n      jumpi\n      0x00\n      dup1\n      revert\n    tag_1:\n      pop\n      jumpi(tag_2, lt(calldatasize, 0x04))\n      shr(0xe0, calldataload(0x00))\n      dup1\n      0xc0f61afc\n      eq\n      tag_3\n      jumpi\n      dup1\n      0xcd3c1ed4\n      eq\n      tag_4\n      jumpi\n    tag_2:\n      0x00\n      dup1\n      revert\n        /* \"contracts/21-Aug-task-2.sol\":117:212  function returnStateVariable() public view returns (uint) {... */\n    tag_3:\n      tag_5\n      tag_6\n      jump\t// in\n    tag_5:\n      mload(0x40)\n      tag_7\n      swap2\n      swap1\n      tag_8\n      jump\t// in\n    tag_7:\n      mload(0x40)\n      dup1\n      swap2\n      sub\n      swap1\n      return\n        /* \"contracts/21-Aug-task-2.sol\":218:346  function returnLocalVariable() public view returns (uint) {... */\n    tag_4:\n      tag_9\n      tag_10\n      jump\t// in\n    tag_9:\n      mload(0x40)\n      tag_11\n      swap2\n      swap1\n      tag_8\n      jump\t// in\n    tag_11:\n      mload(0x40)\n      dup1\n      swap2\n      sub\n      swap1\n      return\n        /* \"contracts/21-Aug-task-2.sol\":117:212  function returnStateVariable() public view returns (uint) {... */\n    tag_6:\n        /* \"contracts/21-Aug-task-2.sol\":169:173  uint */\n      0x00\n        /* \"contracts/21-Aug-task-2.sol\":192:205  stateVariable */\n      dup1\n      sload\n        /* \"contracts/21-Aug-task-2.sol\":185:205  return stateVariable */\n      swap1\n      pop\n        /* \"contracts/21-Aug-task-2.sol\":117:212  function returnStateVariable() public view returns (uint) {... */\n      swap1\n      jump\t// out\n        /* \"contracts/21-Aug-task-2.sol\":218:346  function returnLocalVariable() public view returns (uint) {... */\n    tag_10:\n        /* \"contracts/21-Aug-task-2.sol\":270:274  uint */\n      0x00\n        /* \"contracts/21-Aug-task-2.sol\":286:304  uint localVariable */\n      dup1\n        /* \"contracts/21-Aug-task-2.sol\":307:309  20 */\n      0x14\n        /* \"contracts/21-Aug-task-2.sol\":286:309  uint localVariable = 20 */\n      swap1\n      pop\n        /* \"contracts/21-Aug-task-2.sol\":326:339  localVariable */\n      dup1\n        /* \"contracts/21-Aug-task-2.sol\":319:339  return localVariable */\n      swap2\n      pop\n      pop\n        /* \"contracts/21-Aug-task-2.sol\":218:346  function returnLocalVariable() public view returns (uint) {... */\n      swap1\n      jump\t// out\n        /* \"#utility.yul\":7:84   */\n    tag_14:\n        /* \"#utility.yul\":44:51   */\n      0x00\n        /* \"#utility.yul\":73:78   */\n      dup2\n        /* \"#utility.yul\":62:78   */\n      swap1\n      pop\n        /* \"#utility.yul\":7:84   */\n      swap2\n      swap1\n      pop\n      jump\t// out\n        /* \"#utility.yul\":90:208   */\n    tag_15:\n        /* \"#utility.yul\":177:201   */\n      tag_19\n        /* \"#utility.yul\":195:200   */\n      dup2\n        /* \"#utility.yul\":177:201   */\n      tag_14\n      jump\t// in\n    tag_19:\n        /* \"#utility.yul\":172:175   */\n      dup3\n        /* \"#utility.yul\":165:202   */\n      mstore\n        /* \"#utility.yul\":90:208   */\n      pop\n      pop\n      jump\t// out\n        /* \"#utility.yul\":214:436   */\n    tag_8:\n        /* \"#utility.yul\":307:311   */\n      0x00\n        /* \"#utility.yul\":345:347   */\n      0x20\n        /* \"#utility.yul\":334:343   */\n      dup3\n        /* \"#utility.yul\":330:348   */\n      add\n        /* \"#utility.yul\":322:348   */\n      swap1\n      pop\n        /* \"#utility.yul\":358:429   */\n      tag_21\n        /* \"#utility.yul\":426:427   */\n      0x00\n        /* \"#utility.yul\":415:424   */\n      dup4\n        /* \"#utility.yul\":411:428   */\n      add\n        /* \"#utility.yul\":402:408   */\n      dup5\n        /* \"#utility.yul\":358:429   */\n      tag_15\n      jump\t// in\n    tag_21:\n        /* \"#utility.yul\":214:436   */\n      swap3\n      swap2\n      pop\n      pop\n      jump\t// out\n\n    auxdata: 0xa264697066735822122057aaabb7c338d341f542426e3476239013d6bcca43523cd58382cc2a537fa56464736f6c63430008100033\n}\n",
				"bytecode": {
					"linkReferences": {},
					"object": "6080604052600a60005534801561001557600080fd5b5060e8806100246000396000f3fe6080604052348015600f57600080fd5b506004361060325760003560e01c8063c0f61afc146037578063cd3c1ed4146051575b600080fd5b603d606b565b604051604891906099565b60405180910390f35b60576074565b604051606291906099565b60405180910390f35b60008054905090565b600080601490508091505090565b6000819050919050565b6093816082565b82525050565b600060208201905060ac6000830184608c565b9291505056fea264697066735822122057aaabb7c338d341f542426e3476239013d6bcca43523cd58382cc2a537fa56464736f6c63430008100033",
					"opcodes": "PUSH1 0x80 PUSH1 0x40 MSTORE PUSH1 0xA PUSH1 0x0 SSTORE CALLVALUE DUP1 ISZERO PUSH2 0x15 JUMPI PUSH1 0x0 DUP1 REVERT JUMPDEST POP PUSH1 0xE8 DUP1 PUSH2 0x24 PUSH1 0x0 CODECOPY PUSH1 0x0 RETURN INVALID PUSH1 0x80 PUSH1 0x40 MSTORE CALLVALUE DUP1 ISZERO PUSH1 0xF JUMPI PUSH1 0x0 DUP1 REVERT JUMPDEST POP PUSH1 0x4 CALLDATASIZE LT PUSH1 0x32 JUMPI PUSH1 0x0 CALLDATALOAD PUSH1 0xE0 SHR DUP1 PUSH4 0xC0F61AFC EQ PUSH1 0x37 JUMPI DUP1 PUSH4 0xCD3C1ED4 EQ PUSH1 0x51 JUMPI JUMPDEST PUSH1 0x0 DUP1 REVERT JUMPDEST PUSH1 0x3D PUSH1 0x6B JUMP JUMPDEST PUSH1 0x40 MLOAD PUSH1 0x48 SWAP2 SWAP1 PUSH1 0x99 JUMP JUMPDEST PUSH1 0x40 MLOAD DUP1 SWAP2 SUB SWAP1 RETURN JUMPDEST PUSH1 0x57 PUSH1 0x74 JUMP JUMPDEST PUSH1 0x40 MLOAD PUSH1 0x62 SWAP2 SWAP1 PUSH1 0x99 JUMP JUMPDEST PUSH1 0x40 MLOAD DUP1 SWAP2 SUB SWAP1 RETURN JUMPDEST PUSH1 0x0 DUP1 SLOAD SWAP1 POP SWAP1 JUMP JUMPDEST PUSH1 0x0 DUP1 PUSH1 0x14 SWAP1 POP DUP1 SWAP2 POP POP SWAP1 JUMP JUMPDEST PUSH1 0x0 DUP2 SWAP1 POP SWAP2 SWAP1 POP JUMP JUMPDEST PUSH1 0x93 DUP2 PUSH1 0x82 JUMP JUMPDEST DUP3 MSTORE POP POP JUMP JUMPDEST PUSH1 0x0 PUSH1 0x20 DUP3 ADD SWAP1 POP PUSH1 0xAC PUSH1 0x0 DUP4 ADD DUP5 PUSH1 0x8C JUMP JUMPDEST SWAP3 SWAP2 POP POP JUMP INVALID LOG2 PUSH5 0x6970667358 0x22 SLT KECCAK256 JUMPI 0xAA 0xAB 0xB7 0xC3 CODESIZE 0xD3 COINBASE CREATE2 TIMESTAMP TIMESTAMP PUSH15 0x3476239013D6BCCA43523CD58382CC 0x2A MSTORE8 PUSH32 0xA56464736F6C6343000810003300000000000000000000000000000000000000 "
				},
				"gasEstimates": {
					"creation": {
						"codeDepositCost": "46400",
						"executionCost": "22205",
						"totalCost": "68605"
					},
					"external": {
						"returnLocalVariable()": "350",
						"returnStateVariable()": "2415"
					}
				},
				"methodIdentifiers": {
					"returnLocalVariable()": "cd3c1ed4",
					"returnStateVariable()": "c0f61afc"
				}
			},
			"storageLayout": {
				"storage": [
					{
						"astId": 4,
						"contract": "contracts/21-Aug-task-2.sol:task2",
						"label": "stateVariable",
						"offset": 0,
						"slot": "0",
						"type": "t_uint256"
					}
				],
				"types": {
					"t_uint256": {
						"encoding": "inplace",
						"label": "uint256",
						"numberOfBytes": "32"
					}
				}
			},
			"userdoc": {
				"kind": "user",
				"methods": {},
				"version": 1
			}
		}
	}
}