{
	"contracts/assignment-4.sol": {
		"assignment4": {
			"abi": [
				{
					"inputs": [
						{
							"internalType": "uint256",
							"name": "num",
							"type": "uint256"
						}
					],
					"name": "palindrome",
					"outputs": [
						{
							"internalType": "uint256",
							"name": "",
							"type": "uint256"
						}
					],
					"stateMutability": "pure",
					"type": "function"
				},
				{
					"inputs": [
						{
							"internalType": "uint256",
							"name": "x",
							"type": "uint256"
						},
						{
							"internalType": "uint256",
							"name": "y",
							"type": "uint256"
						}
					],
					"name": "power",
					"outputs": [
						{
							"internalType": "uint256",
							"name": "",
							"type": "uint256"
						}
					],
					"stateMutability": "pure",
					"type": "function"
				}
			],
			"devdoc": {
				"kind": "dev",
				"methods": {},
				"version": 1
			},
			"evm": {
				"assembly": "    /* \"contracts/assignment-4.sol\":64:309  contract assignment4... */\n  mstore(0x40, 0x80)\n  callvalue\n  dup1\n  iszero\n  tag_1\n  jumpi\n  0x00\n  dup1\n  revert\ntag_1:\n  pop\n  dataSize(sub_0)\n  dup1\n  dataOffset(sub_0)\n  0x00\n  codecopy\n  0x00\n  return\nstop\n\nsub_0: assembly {\n        /* \"contracts/assignment-4.sol\":64:309  contract assignment4... */\n      mstore(0x40, 0x80)\n      callvalue\n      dup1\n      iszero\n      tag_1\n      jumpi\n      0x00\n      dup1\n      revert\n    tag_1:\n      pop\n      jumpi(tag_2, lt(calldatasize, 0x04))\n      shr(0xe0, calldataload(0x00))\n      dup1\n      0x84aced8c\n      eq\n      tag_3\n      jumpi\n      dup1\n      0xc04f01fc\n      eq\n      tag_4\n      jumpi\n    tag_2:\n      0x00\n      dup1\n      revert\n        /* \"contracts/assignment-4.sol\":209:307  function palindrome(uint num) public pure returns (uint) {... */\n    tag_3:\n      tag_5\n      0x04\n      dup1\n      calldatasize\n      sub\n      dup2\n      add\n      swap1\n      tag_6\n      swap2\n      swap1\n      tag_7\n      jump\t// in\n    tag_6:\n      tag_8\n      jump\t// in\n    tag_5:\n      mload(0x40)\n      tag_9\n      swap2\n      swap1\n      tag_10\n      jump\t// in\n    tag_9:\n      mload(0x40)\n      dup1\n      swap2\n      sub\n      swap1\n      return\n        /* \"contracts/assignment-4.sol\":104:189  function power(uint x, uint y) public pure returns (uint){... */\n    tag_4:\n      tag_11\n      0x04\n      dup1\n      calldatasize\n      sub\n      dup2\n      add\n      swap1\n      tag_12\n      swap2\n      swap1\n      tag_13\n      jump\t// in\n    tag_12:\n      tag_14\n      jump\t// in\n    tag_11:\n      mload(0x40)\n      tag_15\n      swap2\n      swap1\n      tag_10\n      jump\t// in\n    tag_15:\n      mload(0x40)\n      dup1\n      swap2\n      sub\n      swap1\n      return\n        /* \"contracts/assignment-4.sol\":209:307  function palindrome(uint num) public pure returns (uint) {... */\n    tag_8:\n        /* \"contracts/assignment-4.sol\":260:264  uint */\n      0x00\n        /* \"contracts/assignment-4.sol\":276:285  uint temp */\n      dup1\n        /* \"contracts/assignment-4.sol\":288:291  num */\n      dup3\n        /* \"contracts/assignment-4.sol\":276:291  uint temp = num */\n      swap1\n      pop\n        /* \"contracts/assignment-4.sol\":266:307  {... */\n      pop\n        /* \"contracts/assignment-4.sol\":209:307  function palindrome(uint num) public pure returns (uint) {... */\n      swap2\n      swap1\n      pop\n      jump\t// out\n        /* \"contracts/assignment-4.sol\":104:189  function power(uint x, uint y) public pure returns (uint){... */\n    tag_14:\n        /* \"contracts/assignment-4.sol\":156:160  uint */\n      0x00\n        /* \"contracts/assignment-4.sol\":181:182  y */\n      dup2\n        /* \"contracts/assignment-4.sol\":178:179  x */\n      dup4\n        /* \"contracts/assignment-4.sol\":178:182  x**y */\n      tag_18\n      swap2\n      swap1\n      tag_19\n      jump\t// in\n    tag_18:\n        /* \"contracts/assignment-4.sol\":171:182  return x**y */\n      swap1\n      pop\n        /* \"contracts/assignment-4.sol\":104:189  function power(uint x, uint y) public pure returns (uint){... */\n      swap3\n      swap2\n      pop\n      pop\n      jump\t// out\n        /* \"#utility.yul\":88:205   */\n    tag_21:\n        /* \"#utility.yul\":197:198   */\n      0x00\n        /* \"#utility.yul\":194:195   */\n      dup1\n        /* \"#utility.yul\":187:199   */\n      revert\n        /* \"#utility.yul\":334:411   */\n    tag_23:\n        /* \"#utility.yul\":371:378   */\n      0x00\n        /* \"#utility.yul\":400:405   */\n      dup2\n        /* \"#utility.yul\":389:405   */\n      swap1\n      pop\n        /* \"#utility.yul\":334:411   */\n      swap2\n      swap1\n      pop\n      jump\t// out\n        /* \"#utility.yul\":417:539   */\n    tag_24:\n        /* \"#utility.yul\":490:514   */\n      tag_37\n        /* \"#utility.yul\":508:513   */\n      dup2\n        /* \"#utility.yul\":490:514   */\n      tag_23\n      jump\t// in\n    tag_37:\n        /* \"#utility.yul\":483:488   */\n      dup2\n        /* \"#utility.yul\":480:515   */\n      eq\n        /* \"#utility.yul\":470:533   */\n      tag_38\n      jumpi\n        /* \"#utility.yul\":529:530   */\n      0x00\n        /* \"#utility.yul\":526:527   */\n      dup1\n        /* \"#utility.yul\":519:531   */\n      revert\n        /* \"#utility.yul\":470:533   */\n    tag_38:\n        /* \"#utility.yul\":417:539   */\n      pop\n      jump\t// out\n        /* \"#utility.yul\":545:684   */\n    tag_25:\n        /* \"#utility.yul\":591:596   */\n      0x00\n        /* \"#utility.yul\":629:635   */\n      dup2\n        /* \"#utility.yul\":616:636   */\n      calldataload\n        /* \"#utility.yul\":607:636   */\n      swap1\n      pop\n        /* \"#utility.yul\":645:678   */\n      tag_40\n        /* \"#utility.yul\":672:677   */\n      dup2\n        /* \"#utility.yul\":645:678   */\n      tag_24\n      jump\t// in\n    tag_40:\n        /* \"#utility.yul\":545:684   */\n      swap3\n      swap2\n      pop\n      pop\n      jump\t// out\n        /* \"#utility.yul\":690:1019   */\n    tag_7:\n        /* \"#utility.yul\":749:755   */\n      0x00\n        /* \"#utility.yul\":798:800   */\n      0x20\n        /* \"#utility.yul\":786:795   */\n      dup3\n        /* \"#utility.yul\":777:784   */\n      dup5\n        /* \"#utility.yul\":773:796   */\n      sub\n        /* \"#utility.yul\":769:801   */\n      slt\n        /* \"#utility.yul\":766:885   */\n      iszero\n      tag_42\n      jumpi\n        /* \"#utility.yul\":804:883   */\n      tag_43\n      tag_21\n      jump\t// in\n    tag_43:\n        /* \"#utility.yul\":766:885   */\n    tag_42:\n        /* \"#utility.yul\":924:925   */\n      0x00\n        /* \"#utility.yul\":949:1002   */\n      tag_44\n        /* \"#utility.yul\":994:1001   */\n      dup5\n        /* \"#utility.yul\":985:991   */\n      dup3\n        /* \"#utility.yul\":974:983   */\n      dup6\n        /* \"#utility.yul\":970:992   */\n      add\n        /* \"#utility.yul\":949:1002   */\n      tag_25\n      jump\t// in\n    tag_44:\n        /* \"#utility.yul\":939:1002   */\n      swap2\n      pop\n        /* \"#utility.yul\":895:1012   */\n      pop\n        /* \"#utility.yul\":690:1019   */\n      swap3\n      swap2\n      pop\n      pop\n      jump\t// out\n        /* \"#utility.yul\":1025:1143   */\n    tag_26:\n        /* \"#utility.yul\":1112:1136   */\n      tag_46\n        /* \"#utility.yul\":1130:1135   */\n      dup2\n        /* \"#utility.yul\":1112:1136   */\n      tag_23\n      jump\t// in\n    tag_46:\n        /* \"#utility.yul\":1107:1110   */\n      dup3\n        /* \"#utility.yul\":1100:1137   */\n      mstore\n        /* \"#utility.yul\":1025:1143   */\n      pop\n      pop\n      jump\t// out\n        /* \"#utility.yul\":1149:1371   */\n    tag_10:\n        /* \"#utility.yul\":1242:1246   */\n      0x00\n        /* \"#utility.yul\":1280:1282   */\n      0x20\n        /* \"#utility.yul\":1269:1278   */\n      dup3\n        /* \"#utility.yul\":1265:1283   */\n      add\n        /* \"#utility.yul\":1257:1283   */\n      swap1\n      pop\n        /* \"#utility.yul\":1293:1364   */\n      tag_48\n        /* \"#utility.yul\":1361:1362   */\n      0x00\n        /* \"#utility.yul\":1350:1359   */\n      dup4\n        /* \"#utility.yul\":1346:1363   */\n      add\n        /* \"#utility.yul\":1337:1343   */\n      dup5\n        /* \"#utility.yul\":1293:1364   */\n      tag_26\n      jump\t// in\n    tag_48:\n        /* \"#utility.yul\":1149:1371   */\n      swap3\n      swap2\n      pop\n      pop\n      jump\t// out\n        /* \"#utility.yul\":1377:1851   */\n    tag_13:\n        /* \"#utility.yul\":1445:1451   */\n      0x00\n        /* \"#utility.yul\":1453:1459   */\n      dup1\n        /* \"#utility.yul\":1502:1504   */\n      0x40\n        /* \"#utility.yul\":1490:1499   */\n      dup4\n        /* \"#utility.yul\":1481:1488   */\n      dup6\n        /* \"#utility.yul\":1477:1500   */\n      sub\n        /* \"#utility.yul\":1473:1505   */\n      slt\n        /* \"#utility.yul\":1470:1589   */\n      iszero\n      tag_50\n      jumpi\n        /* \"#utility.yul\":1508:1587   */\n      tag_51\n      tag_21\n      jump\t// in\n    tag_51:\n        /* \"#utility.yul\":1470:1589   */\n    tag_50:\n        /* \"#utility.yul\":1628:1629   */\n      0x00\n        /* \"#utility.yul\":1653:1706   */\n      tag_52\n        /* \"#utility.yul\":1698:1705   */\n      dup6\n        /* \"#utility.yul\":1689:1695   */\n      dup3\n        /* \"#utility.yul\":1678:1687   */\n      dup7\n        /* \"#utility.yul\":1674:1696   */\n      add\n        /* \"#utility.yul\":1653:1706   */\n      tag_25\n      jump\t// in\n    tag_52:\n        /* \"#utility.yul\":1643:1706   */\n      swap3\n      pop\n        /* \"#utility.yul\":1599:1716   */\n      pop\n        /* \"#utility.yul\":1755:1757   */\n      0x20\n        /* \"#utility.yul\":1781:1834   */\n      tag_53\n        /* \"#utility.yul\":1826:1833   */\n      dup6\n        /* \"#utility.yul\":1817:1823   */\n      dup3\n        /* \"#utility.yul\":1806:1815   */\n      dup7\n        /* \"#utility.yul\":1802:1824   */\n      add\n        /* \"#utility.yul\":1781:1834   */\n      tag_25\n      jump\t// in\n    tag_53:\n        /* \"#utility.yul\":1771:1834   */\n      swap2\n      pop\n        /* \"#utility.yul\":1726:1844   */\n      pop\n        /* \"#utility.yul\":1377:1851   */\n      swap3\n      pop\n      swap3\n      swap1\n      pop\n      jump\t// out\n        /* \"#utility.yul\":1857:2037   */\n    tag_27:\n        /* \"#utility.yul\":1905:1982   */\n      0x4e487b7100000000000000000000000000000000000000000000000000000000\n        /* \"#utility.yul\":1902:1903   */\n      0x00\n        /* \"#utility.yul\":1895:1983   */\n      mstore\n        /* \"#utility.yul\":2002:2006   */\n      0x11\n        /* \"#utility.yul\":1999:2000   */\n      0x04\n        /* \"#utility.yul\":1992:2007   */\n      mstore\n        /* \"#utility.yul\":2026:2030   */\n      0x24\n        /* \"#utility.yul\":2023:2024   */\n      0x00\n        /* \"#utility.yul\":2016:2031   */\n      revert\n        /* \"#utility.yul\":2043:2145   */\n    tag_28:\n        /* \"#utility.yul\":2085:2093   */\n      0x00\n        /* \"#utility.yul\":2132:2137   */\n      dup2\n        /* \"#utility.yul\":2129:2130   */\n      0x01\n        /* \"#utility.yul\":2125:2138   */\n      shr\n        /* \"#utility.yul\":2104:2138   */\n      swap1\n      pop\n        /* \"#utility.yul\":2043:2145   */\n      swap2\n      swap1\n      pop\n      jump\t// out\n        /* \"#utility.yul\":2151:2999   */\n    tag_29:\n        /* \"#utility.yul\":2212:2217   */\n      0x00\n        /* \"#utility.yul\":2219:2223   */\n      dup1\n        /* \"#utility.yul\":2243:2249   */\n      dup3\n        /* \"#utility.yul\":2234:2249   */\n      swap2\n      pop\n        /* \"#utility.yul\":2267:2272   */\n      dup4\n        /* \"#utility.yul\":2258:2272   */\n      swap1\n      pop\n        /* \"#utility.yul\":2281:2993   */\n    tag_57:\n        /* \"#utility.yul\":2302:2303   */\n      0x01\n        /* \"#utility.yul\":2292:2300   */\n      dup6\n        /* \"#utility.yul\":2289:2304   */\n      gt\n        /* \"#utility.yul\":2281:2993   */\n      iszero\n      tag_59\n      jumpi\n        /* \"#utility.yul\":2397:2401   */\n      dup1\n        /* \"#utility.yul\":2392:2395   */\n      dup7\n        /* \"#utility.yul\":2388:2402   */\n      div\n        /* \"#utility.yul\":2382:2386   */\n      dup2\n        /* \"#utility.yul\":2379:2403   */\n      gt\n        /* \"#utility.yul\":2376:2426   */\n      iszero\n      tag_60\n      jumpi\n        /* \"#utility.yul\":2406:2424   */\n      tag_61\n      tag_27\n      jump\t// in\n    tag_61:\n        /* \"#utility.yul\":2376:2426   */\n    tag_60:\n        /* \"#utility.yul\":2456:2457   */\n      0x01\n        /* \"#utility.yul\":2446:2454   */\n      dup6\n        /* \"#utility.yul\":2442:2458   */\n      and\n        /* \"#utility.yul\":2439:2890   */\n      iszero\n      tag_62\n      jumpi\n        /* \"#utility.yul\":2871:2875   */\n      dup1\n        /* \"#utility.yul\":2864:2869   */\n      dup3\n        /* \"#utility.yul\":2860:2876   */\n      mul\n        /* \"#utility.yul\":2851:2876   */\n      swap2\n      pop\n        /* \"#utility.yul\":2439:2890   */\n    tag_62:\n        /* \"#utility.yul\":2921:2925   */\n      dup1\n        /* \"#utility.yul\":2915:2919   */\n      dup2\n        /* \"#utility.yul\":2911:2926   */\n      mul\n        /* \"#utility.yul\":2903:2926   */\n      swap1\n      pop\n        /* \"#utility.yul\":2951:2983   */\n      tag_63\n        /* \"#utility.yul\":2974:2982   */\n      dup6\n        /* \"#utility.yul\":2951:2983   */\n      tag_28\n      jump\t// in\n    tag_63:\n        /* \"#utility.yul\":2939:2983   */\n      swap5\n      pop\n        /* \"#utility.yul\":2281:2993   */\n      jump(tag_57)\n    tag_59:\n        /* \"#utility.yul\":2151:2999   */\n      swap5\n      pop\n      swap5\n      swap3\n      pop\n      pop\n      pop\n      jump\t// out\n        /* \"#utility.yul\":3005:4078   */\n    tag_30:\n        /* \"#utility.yul\":3059:3064   */\n      0x00\n        /* \"#utility.yul\":3250:3258   */\n      dup3\n        /* \"#utility.yul\":3240:3280   */\n      tag_65\n      jumpi\n        /* \"#utility.yul\":3271:3272   */\n      0x01\n        /* \"#utility.yul\":3262:3272   */\n      swap1\n      pop\n        /* \"#utility.yul\":3273:3278   */\n      jump(tag_64)\n        /* \"#utility.yul\":3240:3280   */\n    tag_65:\n        /* \"#utility.yul\":3299:3303   */\n      dup2\n        /* \"#utility.yul\":3289:3325   */\n      tag_66\n      jumpi\n        /* \"#utility.yul\":3316:3317   */\n      0x00\n        /* \"#utility.yul\":3307:3317   */\n      swap1\n      pop\n        /* \"#utility.yul\":3318:3323   */\n      jump(tag_64)\n        /* \"#utility.yul\":3289:3325   */\n    tag_66:\n        /* \"#utility.yul\":3385:3389   */\n      dup2\n        /* \"#utility.yul\":3433:3434   */\n      0x01\n        /* \"#utility.yul\":3428:3455   */\n      dup2\n      eq\n      tag_68\n      jumpi\n        /* \"#utility.yul\":3469:3470   */\n      0x02\n        /* \"#utility.yul\":3464:3655   */\n      dup2\n      eq\n      tag_69\n      jumpi\n        /* \"#utility.yul\":3378:3655   */\n      jump(tag_67)\n        /* \"#utility.yul\":3428:3455   */\n    tag_68:\n        /* \"#utility.yul\":3446:3447   */\n      0x01\n        /* \"#utility.yul\":3437:3447   */\n      swap2\n      pop\n        /* \"#utility.yul\":3448:3453   */\n      pop\n      jump(tag_64)\n        /* \"#utility.yul\":3464:3655   */\n    tag_69:\n        /* \"#utility.yul\":3509:3512   */\n      0xff\n        /* \"#utility.yul\":3499:3507   */\n      dup5\n        /* \"#utility.yul\":3496:3513   */\n      gt\n        /* \"#utility.yul\":3493:3536   */\n      iszero\n      tag_70\n      jumpi\n        /* \"#utility.yul\":3516:3534   */\n      tag_71\n      tag_27\n      jump\t// in\n    tag_71:\n        /* \"#utility.yul\":3493:3536   */\n    tag_70:\n        /* \"#utility.yul\":3565:3573   */\n      dup4\n        /* \"#utility.yul\":3562:3563   */\n      0x02\n        /* \"#utility.yul\":3558:3574   */\n      exp\n        /* \"#utility.yul\":3549:3574   */\n      swap2\n      pop\n        /* \"#utility.yul\":3600:3603   */\n      dup5\n        /* \"#utility.yul\":3593:3598   */\n      dup3\n        /* \"#utility.yul\":3590:3604   */\n      gt\n        /* \"#utility.yul\":3587:3627   */\n      iszero\n      tag_72\n      jumpi\n        /* \"#utility.yul\":3607:3625   */\n      tag_73\n      tag_27\n      jump\t// in\n    tag_73:\n        /* \"#utility.yul\":3587:3627   */\n    tag_72:\n        /* \"#utility.yul\":3640:3645   */\n      pop\n      jump(tag_64)\n        /* \"#utility.yul\":3378:3655   */\n    tag_67:\n      pop\n        /* \"#utility.yul\":3764:3766   */\n      0x20\n        /* \"#utility.yul\":3754:3762   */\n      dup4\n        /* \"#utility.yul\":3751:3767   */\n      lt\n        /* \"#utility.yul\":3745:3748   */\n      0x0133\n        /* \"#utility.yul\":3739:3743   */\n      dup4\n        /* \"#utility.yul\":3736:3749   */\n      lt\n        /* \"#utility.yul\":3732:3768   */\n      and\n        /* \"#utility.yul\":3714:3716   */\n      0x4e\n        /* \"#utility.yul\":3704:3712   */\n      dup5\n        /* \"#utility.yul\":3701:3717   */\n      lt\n        /* \"#utility.yul\":3696:3698   */\n      0x0b\n        /* \"#utility.yul\":3690:3694   */\n      dup5\n        /* \"#utility.yul\":3687:3699   */\n      lt\n        /* \"#utility.yul\":3683:3718   */\n      and\n        /* \"#utility.yul\":3667:3778   */\n      or\n        /* \"#utility.yul\":3664:3910   */\n      iszero\n      tag_74\n      jumpi\n        /* \"#utility.yul\":3820:3828   */\n      dup3\n        /* \"#utility.yul\":3814:3818   */\n      dup3\n        /* \"#utility.yul\":3810:3829   */\n      exp\n        /* \"#utility.yul\":3801:3829   */\n      swap1\n      pop\n        /* \"#utility.yul\":3855:3858   */\n      dup4\n        /* \"#utility.yul\":3848:3853   */\n      dup2\n        /* \"#utility.yul\":3845:3859   */\n      gt\n        /* \"#utility.yul\":3842:3882   */\n      iszero\n      tag_75\n      jumpi\n        /* \"#utility.yul\":3862:3880   */\n      tag_76\n      tag_27\n      jump\t// in\n    tag_76:\n        /* \"#utility.yul\":3842:3882   */\n    tag_75:\n        /* \"#utility.yul\":3895:3900   */\n      jump(tag_64)\n        /* \"#utility.yul\":3664:3910   */\n    tag_74:\n        /* \"#utility.yul\":3935:3977   */\n      tag_77\n        /* \"#utility.yul\":3973:3976   */\n      dup5\n        /* \"#utility.yul\":3963:3971   */\n      dup5\n        /* \"#utility.yul\":3957:3961   */\n      dup5\n        /* \"#utility.yul\":3954:3955   */\n      0x01\n        /* \"#utility.yul\":3935:3977   */\n      tag_29\n      jump\t// in\n    tag_77:\n        /* \"#utility.yul\":3920:3977   */\n      swap3\n      pop\n      swap1\n      pop\n        /* \"#utility.yul\":4009:4013   */\n      dup2\n        /* \"#utility.yul\":4004:4007   */\n      dup5\n        /* \"#utility.yul\":4000:4014   */\n      div\n        /* \"#utility.yul\":3993:3998   */\n      dup2\n        /* \"#utility.yul\":3990:4015   */\n      gt\n        /* \"#utility.yul\":3987:4038   */\n      iszero\n      tag_78\n      jumpi\n        /* \"#utility.yul\":4018:4036   */\n      tag_79\n      tag_27\n      jump\t// in\n    tag_79:\n        /* \"#utility.yul\":3987:4038   */\n    tag_78:\n        /* \"#utility.yul\":4067:4071   */\n      dup2\n        /* \"#utility.yul\":4060:4065   */\n      dup2\n        /* \"#utility.yul\":4056:4072   */\n      mul\n        /* \"#utility.yul\":4047:4072   */\n      swap1\n      pop\n        /* \"#utility.yul\":3005:4078   */\n    tag_64:\n      swap4\n      swap3\n      pop\n      pop\n      pop\n      jump\t// out\n        /* \"#utility.yul\":4084:4369   */\n    tag_19:\n        /* \"#utility.yul\":4144:4149   */\n      0x00\n        /* \"#utility.yul\":4168:4191   */\n      tag_81\n        /* \"#utility.yul\":4186:4190   */\n      dup3\n        /* \"#utility.yul\":4168:4191   */\n      tag_23\n      jump\t// in\n    tag_81:\n        /* \"#utility.yul\":4160:4191   */\n      swap2\n      pop\n        /* \"#utility.yul\":4212:4239   */\n      tag_82\n        /* \"#utility.yul\":4230:4238   */\n      dup4\n        /* \"#utility.yul\":4212:4239   */\n      tag_23\n      jump\t// in\n    tag_82:\n        /* \"#utility.yul\":4200:4239   */\n      swap3\n      pop\n        /* \"#utility.yul\":4258:4362   */\n      tag_83\n        /* \"#utility.yul\":4295:4361   */\n      0xffffffffffffffffffffffffffffffffffffffffffffffffffffffffffffffff\n        /* \"#utility.yul\":4285:4293   */\n      dup5\n        /* \"#utility.yul\":4279:4283   */\n      dup5\n        /* \"#utility.yul\":4258:4362   */\n      tag_30\n      jump\t// in\n    tag_83:\n        /* \"#utility.yul\":4249:4362   */\n      swap1\n      pop\n        /* \"#utility.yul\":4084:4369   */\n      swap3\n      swap2\n      pop\n      pop\n      jump\t// out\n\n    auxdata: 0xa264697066735822122017e7c08322752a559bf5f8afd87aee73a65ee7e0ab60d31ec97747c26a06537a64736f6c63430008100033\n}\n",
				"bytecode": {
					"linkReferences": {},
					"object": "608060405234801561001057600080fd5b50610372806100206000396000f3fe608060405234801561001057600080fd5b50600436106100365760003560e01c806384aced8c1461003b578063c04f01fc1461006b575b600080fd5b610055600480360381019061005091906100f8565b61009b565b6040516100629190610134565b60405180910390f35b6100856004803603810190610080919061014f565b6100a7565b6040516100929190610134565b60405180910390f35b60008082905050919050565b600081836100b591906102f1565b905092915050565b600080fd5b6000819050919050565b6100d5816100c2565b81146100e057600080fd5b50565b6000813590506100f2816100cc565b92915050565b60006020828403121561010e5761010d6100bd565b5b600061011c848285016100e3565b91505092915050565b61012e816100c2565b82525050565b60006020820190506101496000830184610125565b92915050565b60008060408385031215610166576101656100bd565b5b6000610174858286016100e3565b9250506020610185858286016100e3565b9150509250929050565b7f4e487b7100000000000000000000000000000000000000000000000000000000600052601160045260246000fd5b60008160011c9050919050565b6000808291508390505b6001851115610215578086048111156101f1576101f061018f565b5b60018516156102005780820291505b808102905061020e856101be565b94506101d5565b94509492505050565b60008261022e57600190506102ea565b8161023c57600090506102ea565b8160018114610252576002811461025c5761028b565b60019150506102ea565b60ff84111561026e5761026d61018f565b5b8360020a9150848211156102855761028461018f565b5b506102ea565b5060208310610133831016604e8410600b84101617156102c05782820a9050838111156102bb576102ba61018f565b5b6102ea565b6102cd84848460016101cb565b925090508184048111156102e4576102e361018f565b5b81810290505b9392505050565b60006102fc826100c2565b9150610307836100c2565b92506103347fffffffffffffffffffffffffffffffffffffffffffffffffffffffffffffffff848461021e565b90509291505056fea264697066735822122017e7c08322752a559bf5f8afd87aee73a65ee7e0ab60d31ec97747c26a06537a64736f6c63430008100033",
					"opcodes": "PUSH1 0x80 PUSH1 0x40 MSTORE CALLVALUE DUP1 ISZERO PUSH2 0x10 JUMPI PUSH1 0x0 DUP1 REVERT JUMPDEST POP PUSH2 0x372 DUP1 PUSH2 0x20 PUSH1 0x0 CODECOPY PUSH1 0x0 RETURN INVALID PUSH1 0x80 PUSH1 0x40 MSTORE CALLVALUE DUP1 ISZERO PUSH2 0x10 JUMPI PUSH1 0x0 DUP1 REVERT JUMPDEST POP PUSH1 0x4 CALLDATASIZE LT PUSH2 0x36 JUMPI PUSH1 0x0 CALLDATALOAD PUSH1 0xE0 SHR DUP1 PUSH4 0x84ACED8C EQ PUSH2 0x3B JUMPI DUP1 PUSH4 0xC04F01FC EQ PUSH2 0x6B JUMPI JUMPDEST PUSH1 0x0 DUP1 REVERT JUMPDEST PUSH2 0x55 PUSH1 0x4 DUP1 CALLDATASIZE SUB DUP2 ADD SWAP1 PUSH2 0x50 SWAP2 SWAP1 PUSH2 0xF8 JUMP JUMPDEST PUSH2 0x9B JUMP JUMPDEST PUSH1 0x40 MLOAD PUSH2 0x62 SWAP2 SWAP1 PUSH2 0x134 JUMP JUMPDEST PUSH1 0x40 MLOAD DUP1 SWAP2 SUB SWAP1 RETURN JUMPDEST PUSH2 0x85 PUSH1 0x4 DUP1 CALLDATASIZE SUB DUP2 ADD SWAP1 PUSH2 0x80 SWAP2 SWAP1 PUSH2 0x14F JUMP JUMPDEST PUSH2 0xA7 JUMP JUMPDEST PUSH1 0x40 MLOAD PUSH2 0x92 SWAP2 SWAP1 PUSH2 0x134 JUMP JUMPDEST PUSH1 0x40 MLOAD DUP1 SWAP2 SUB SWAP1 RETURN JUMPDEST PUSH1 0x0 DUP1 DUP3 SWAP1 POP POP SWAP2 SWAP1 POP JUMP JUMPDEST PUSH1 0x0 DUP2 DUP4 PUSH2 0xB5 SWAP2 SWAP1 PUSH2 0x2F1 JUMP JUMPDEST SWAP1 POP SWAP3 SWAP2 POP POP JUMP JUMPDEST PUSH1 0x0 DUP1 REVERT JUMPDEST PUSH1 0x0 DUP2 SWAP1 POP SWAP2 SWAP1 POP JUMP JUMPDEST PUSH2 0xD5 DUP2 PUSH2 0xC2 JUMP JUMPDEST DUP2 EQ PUSH2 0xE0 JUMPI PUSH1 0x0 DUP1 REVERT JUMPDEST POP JUMP JUMPDEST PUSH1 0x0 DUP2 CALLDATALOAD SWAP1 POP PUSH2 0xF2 DUP2 PUSH2 0xCC JUMP JUMPDEST SWAP3 SWAP2 POP POP JUMP JUMPDEST PUSH1 0x0 PUSH1 0x20 DUP3 DUP5 SUB SLT ISZERO PUSH2 0x10E JUMPI PUSH2 0x10D PUSH2 0xBD JUMP JUMPDEST JUMPDEST PUSH1 0x0 PUSH2 0x11C DUP5 DUP3 DUP6 ADD PUSH2 0xE3 JUMP JUMPDEST SWAP2 POP POP SWAP3 SWAP2 POP POP JUMP JUMPDEST PUSH2 0x12E DUP2 PUSH2 0xC2 JUMP JUMPDEST DUP3 MSTORE POP POP JUMP JUMPDEST PUSH1 0x0 PUSH1 0x20 DUP3 ADD SWAP1 POP PUSH2 0x149 PUSH1 0x0 DUP4 ADD DUP5 PUSH2 0x125 JUMP JUMPDEST SWAP3 SWAP2 POP POP JUMP JUMPDEST PUSH1 0x0 DUP1 PUSH1 0x40 DUP4 DUP6 SUB SLT ISZERO PUSH2 0x166 JUMPI PUSH2 0x165 PUSH2 0xBD JUMP JUMPDEST JUMPDEST PUSH1 0x0 PUSH2 0x174 DUP6 DUP3 DUP7 ADD PUSH2 0xE3 JUMP JUMPDEST SWAP3 POP POP PUSH1 0x20 PUSH2 0x185 DUP6 DUP3 DUP7 ADD PUSH2 0xE3 JUMP JUMPDEST SWAP2 POP POP SWAP3 POP SWAP3 SWAP1 POP JUMP JUMPDEST PUSH32 0x4E487B7100000000000000000000000000000000000000000000000000000000 PUSH1 0x0 MSTORE PUSH1 0x11 PUSH1 0x4 MSTORE PUSH1 0x24 PUSH1 0x0 REVERT JUMPDEST PUSH1 0x0 DUP2 PUSH1 0x1 SHR SWAP1 POP SWAP2 SWAP1 POP JUMP JUMPDEST PUSH1 0x0 DUP1 DUP3 SWAP2 POP DUP4 SWAP1 POP JUMPDEST PUSH1 0x1 DUP6 GT ISZERO PUSH2 0x215 JUMPI DUP1 DUP7 DIV DUP2 GT ISZERO PUSH2 0x1F1 JUMPI PUSH2 0x1F0 PUSH2 0x18F JUMP JUMPDEST JUMPDEST PUSH1 0x1 DUP6 AND ISZERO PUSH2 0x200 JUMPI DUP1 DUP3 MUL SWAP2 POP JUMPDEST DUP1 DUP2 MUL SWAP1 POP PUSH2 0x20E DUP6 PUSH2 0x1BE JUMP JUMPDEST SWAP5 POP PUSH2 0x1D5 JUMP JUMPDEST SWAP5 POP SWAP5 SWAP3 POP POP POP JUMP JUMPDEST PUSH1 0x0 DUP3 PUSH2 0x22E JUMPI PUSH1 0x1 SWAP1 POP PUSH2 0x2EA JUMP JUMPDEST DUP2 PUSH2 0x23C JUMPI PUSH1 0x0 SWAP1 POP PUSH2 0x2EA JUMP JUMPDEST DUP2 PUSH1 0x1 DUP2 EQ PUSH2 0x252 JUMPI PUSH1 0x2 DUP2 EQ PUSH2 0x25C JUMPI PUSH2 0x28B JUMP JUMPDEST PUSH1 0x1 SWAP2 POP POP PUSH2 0x2EA JUMP JUMPDEST PUSH1 0xFF DUP5 GT ISZERO PUSH2 0x26E JUMPI PUSH2 0x26D PUSH2 0x18F JUMP JUMPDEST JUMPDEST DUP4 PUSH1 0x2 EXP SWAP2 POP DUP5 DUP3 GT ISZERO PUSH2 0x285 JUMPI PUSH2 0x284 PUSH2 0x18F JUMP JUMPDEST JUMPDEST POP PUSH2 0x2EA JUMP JUMPDEST POP PUSH1 0x20 DUP4 LT PUSH2 0x133 DUP4 LT AND PUSH1 0x4E DUP5 LT PUSH1 0xB DUP5 LT AND OR ISZERO PUSH2 0x2C0 JUMPI DUP3 DUP3 EXP SWAP1 POP DUP4 DUP2 GT ISZERO PUSH2 0x2BB JUMPI PUSH2 0x2BA PUSH2 0x18F JUMP JUMPDEST JUMPDEST PUSH2 0x2EA JUMP JUMPDEST PUSH2 0x2CD DUP5 DUP5 DUP5 PUSH1 0x1 PUSH2 0x1CB JUMP JUMPDEST SWAP3 POP SWAP1 POP DUP2 DUP5 DIV DUP2 GT ISZERO PUSH2 0x2E4 JUMPI PUSH2 0x2E3 PUSH2 0x18F JUMP JUMPDEST JUMPDEST DUP2 DUP2 MUL SWAP1 POP JUMPDEST SWAP4 SWAP3 POP POP POP JUMP JUMPDEST PUSH1 0x0 PUSH2 0x2FC DUP3 PUSH2 0xC2 JUMP JUMPDEST SWAP2 POP PUSH2 0x307 DUP4 PUSH2 0xC2 JUMP JUMPDEST SWAP3 POP PUSH2 0x334 PUSH32 0xFFFFFFFFFFFFFFFFFFFFFFFFFFFFFFFFFFFFFFFFFFFFFFFFFFFFFFFFFFFFFFFF DUP5 DUP5 PUSH2 0x21E JUMP JUMPDEST SWAP1 POP SWAP3 SWAP2 POP POP JUMP INVALID LOG2 PUSH5 0x6970667358 0x22 SLT KECCAK256 OR 0xE7 0xC0 DUP4 0x22 PUSH22 0x2A559BF5F8AFD87AEE73A65EE7E0AB60D31EC97747C2 PUSH11 0x6537A64736F6C63430008 LT STOP CALLER "
				},
				"gasEstimates": {
					"creation": {
						"codeDepositCost": "176400",
						"executionCost": "220",
						"totalCost": "176620"
					},
					"external": {
						"palindrome(uint256)": "infinite",
						"power(uint256,uint256)": "infinite"
					}
				},
				"methodIdentifiers": {
					"palindrome(uint256)": "84aced8c",
					"power(uint256,uint256)": "c04f01fc"
				}
			},
			"storageLayout": {
				"storage": [],
				"types": null
			},
			"userdoc": {
				"kind": "user",
				"methods": {},
				"version": 1
			}
		}
	}
}