{
	"contracts/24-Aug-assignment-2.sol": {
		"task1": {
			"abi": [
				{
					"inputs": [
						{
							"internalType": "int256",
							"name": "a",
							"type": "int256"
						},
						{
							"internalType": "int256",
							"name": "b",
							"type": "int256"
						},
						{
							"internalType": "int256",
							"name": "c",
							"type": "int256"
						}
					],
					"name": "average",
					"outputs": [
						{
							"internalType": "int256",
							"name": "",
							"type": "int256"
						}
					],
					"stateMutability": "pure",
					"type": "function"
				},
				{
					"inputs": [
						{
							"internalType": "int256",
							"name": "a",
							"type": "int256"
						},
						{
							"internalType": "int256",
							"name": "b",
							"type": "int256"
						}
					],
					"name": "evaluate",
					"outputs": [
						{
							"internalType": "int256",
							"name": "",
							"type": "int256"
						}
					],
					"stateMutability": "pure",
					"type": "function"
				},
				{
					"inputs": [
						{
							"internalType": "int256",
							"name": "a",
							"type": "int256"
						}
					],
					"name": "find",
					"outputs": [
						{
							"internalType": "int256",
							"name": "",
							"type": "int256"
						}
					],
					"stateMutability": "pure",
					"type": "function"
				},
				{
					"inputs": [],
					"name": "getNumber",
					"outputs": [
						{
							"internalType": "uint256",
							"name": "",
							"type": "uint256"
						}
					],
					"stateMutability": "view",
					"type": "function"
				},
				{
					"inputs": [
						{
							"internalType": "uint256",
							"name": "_num",
							"type": "uint256"
						}
					],
					"name": "setNumber",
					"outputs": [],
					"stateMutability": "nonpayable",
					"type": "function"
				}
			],
			"devdoc": {
				"kind": "dev",
				"methods": {},
				"version": 1
			},
			"evm": {
				"assembly": "    /* \"contracts/24-Aug-assignment-2.sol\":64:840  contract task1 ... */\n  mstore(0x40, 0x80)\n  callvalue\n  dup1\n  iszero\n  tag_1\n  jumpi\n  0x00\n  dup1\n  revert\ntag_1:\n  pop\n  dataSize(sub_0)\n  dup1\n  dataOffset(sub_0)\n  0x00\n  codecopy\n  0x00\n  return\nstop\n\nsub_0: assembly {\n        /* \"contracts/24-Aug-assignment-2.sol\":64:840  contract task1 ... */\n      mstore(0x40, 0x80)\n      callvalue\n      dup1\n      iszero\n      tag_1\n      jumpi\n      0x00\n      dup1\n      revert\n    tag_1:\n      pop\n      jumpi(tag_2, lt(calldatasize, 0x04))\n      shr(0xe0, calldataload(0x00))\n      dup1\n      0x3fb5c1cb\n      eq\n      tag_3\n      jumpi\n      dup1\n      0x431547d7\n      eq\n      tag_4\n      jumpi\n      dup1\n      0xf2c9ecd8\n      eq\n      tag_5\n      jumpi\n      dup1\n      0xf4440ea3\n      eq\n      tag_6\n      jumpi\n      dup1\n      0xf8bb49a1\n      eq\n      tag_7\n      jumpi\n    tag_2:\n      0x00\n      dup1\n      revert\n        /* \"contracts/24-Aug-assignment-2.sol\":120:184  function setNumber(uint _num) public {... */\n    tag_3:\n      tag_8\n      0x04\n      dup1\n      calldatasize\n      sub\n      dup2\n      add\n      swap1\n      tag_9\n      swap2\n      swap1\n      tag_10\n      jump\t// in\n    tag_9:\n      tag_11\n      jump\t// in\n    tag_8:\n      stop\n        /* \"contracts/24-Aug-assignment-2.sol\":698:836  function average(int a, int b, int c) public pure returns (int) {... */\n    tag_4:\n      tag_12\n      0x04\n      dup1\n      calldatasize\n      sub\n      dup2\n      add\n      swap1\n      tag_13\n      swap2\n      swap1\n      tag_14\n      jump\t// in\n    tag_13:\n      tag_15\n      jump\t// in\n    tag_12:\n      mload(0x40)\n      tag_16\n      swap2\n      swap1\n      tag_17\n      jump\t// in\n    tag_16:\n      mload(0x40)\n      dup1\n      swap2\n      sub\n      swap1\n      return\n        /* \"contracts/24-Aug-assignment-2.sol\":190:265  function getNumber() public view returns (uint) {... */\n    tag_5:\n      tag_18\n      tag_19\n      jump\t// in\n    tag_18:\n      mload(0x40)\n      tag_20\n      swap2\n      swap1\n      tag_21\n      jump\t// in\n    tag_20:\n      mload(0x40)\n      dup1\n      swap2\n      sub\n      swap1\n      return\n        /* \"contracts/24-Aug-assignment-2.sol\":522:656  function find(int a) public pure returns (int) {... */\n    tag_6:\n      tag_22\n      0x04\n      dup1\n      calldatasize\n      sub\n      dup2\n      add\n      swap1\n      tag_23\n      swap2\n      swap1\n      tag_24\n      jump\t// in\n    tag_23:\n      tag_25\n      jump\t// in\n    tag_22:\n      mload(0x40)\n      tag_26\n      swap2\n      swap1\n      tag_17\n      jump\t// in\n    tag_26:\n      mload(0x40)\n      dup1\n      swap2\n      sub\n      swap1\n      return\n        /* \"contracts/24-Aug-assignment-2.sol\":308:479  function evaluate(int a, int b) public pure returns (int){... */\n    tag_7:\n      tag_27\n      0x04\n      dup1\n      calldatasize\n      sub\n      dup2\n      add\n      swap1\n      tag_28\n      swap2\n      swap1\n      tag_29\n      jump\t// in\n    tag_28:\n      tag_30\n      jump\t// in\n    tag_27:\n      mload(0x40)\n      tag_31\n      swap2\n      swap1\n      tag_17\n      jump\t// in\n    tag_31:\n      mload(0x40)\n      dup1\n      swap2\n      sub\n      swap1\n      return\n        /* \"contracts/24-Aug-assignment-2.sol\":120:184  function setNumber(uint _num) public {... */\n    tag_11:\n        /* \"contracts/24-Aug-assignment-2.sol\":173:177  _num */\n      dup1\n        /* \"contracts/24-Aug-assignment-2.sol\":167:170  num */\n      0x00\n        /* \"contracts/24-Aug-assignment-2.sol\":167:177  num = _num */\n      dup2\n      swap1\n      sstore\n      pop\n        /* \"contracts/24-Aug-assignment-2.sol\":120:184  function setNumber(uint _num) public {... */\n      pop\n      jump\t// out\n        /* \"contracts/24-Aug-assignment-2.sol\":698:836  function average(int a, int b, int c) public pure returns (int) {... */\n    tag_15:\n        /* \"contracts/24-Aug-assignment-2.sol\":757:760  int */\n      0x00\n        /* \"contracts/24-Aug-assignment-2.sol\":784:785  0 */\n      dup1\n        /* \"contracts/24-Aug-assignment-2.sol\":780:781  a */\n      dup5\n        /* \"contracts/24-Aug-assignment-2.sol\":780:785  a > 0 */\n      sgt\n        /* \"contracts/24-Aug-assignment-2.sol\":772:820  require(a > 0, \"Value should be greater than 0\") */\n      tag_34\n      jumpi\n      mload(0x40)\n      0x08c379a000000000000000000000000000000000000000000000000000000000\n      dup2\n      mstore\n      0x04\n      add\n      tag_35\n      swap1\n      tag_36\n      jump\t// in\n    tag_35:\n      mload(0x40)\n      dup1\n      swap2\n      sub\n      swap1\n      revert\n    tag_34:\n        /* \"contracts/24-Aug-assignment-2.sol\":698:836  function average(int a, int b, int c) public pure returns (int) {... */\n      swap4\n      swap3\n      pop\n      pop\n      pop\n      jump\t// out\n        /* \"contracts/24-Aug-assignment-2.sol\":190:265  function getNumber() public view returns (uint) {... */\n    tag_19:\n        /* \"contracts/24-Aug-assignment-2.sol\":232:236  uint */\n      0x00\n        /* \"contracts/24-Aug-assignment-2.sol\":255:258  num */\n      dup1\n      sload\n        /* \"contracts/24-Aug-assignment-2.sol\":248:258  return num */\n      swap1\n      pop\n        /* \"contracts/24-Aug-assignment-2.sol\":190:265  function getNumber() public view returns (uint) {... */\n      swap1\n      jump\t// out\n        /* \"contracts/24-Aug-assignment-2.sol\":522:656  function find(int a) public pure returns (int) {... */\n    tag_25:\n        /* \"contracts/24-Aug-assignment-2.sol\":564:567  int */\n      0x00\n        /* \"contracts/24-Aug-assignment-2.sol\":591:592  0 */\n      dup1\n        /* \"contracts/24-Aug-assignment-2.sol\":587:588  a */\n      dup3\n        /* \"contracts/24-Aug-assignment-2.sol\":587:592  a > 0 */\n      sgt\n        /* \"contracts/24-Aug-assignment-2.sol\":579:627  require(a > 0, \"Value should be greater than 0\") */\n      tag_39\n      jumpi\n      mload(0x40)\n      0x08c379a000000000000000000000000000000000000000000000000000000000\n      dup2\n      mstore\n      0x04\n      add\n      tag_40\n      swap1\n      tag_36\n      jump\t// in\n    tag_40:\n      mload(0x40)\n      dup1\n      swap2\n      sub\n      swap1\n      revert\n    tag_39:\n        /* \"contracts/24-Aug-assignment-2.sol\":648:649  3 */\n      0x03\n        /* \"contracts/24-Aug-assignment-2.sol\":644:645  a */\n      dup3\n        /* \"contracts/24-Aug-assignment-2.sol\":644:649  a % 3 */\n      tag_41\n      swap2\n      swap1\n      tag_42\n      jump\t// in\n    tag_41:\n        /* \"contracts/24-Aug-assignment-2.sol\":637:649  return a % 3 */\n      swap1\n      pop\n        /* \"contracts/24-Aug-assignment-2.sol\":522:656  function find(int a) public pure returns (int) {... */\n      swap2\n      swap1\n      pop\n      jump\t// out\n        /* \"contracts/24-Aug-assignment-2.sol\":308:479  function evaluate(int a, int b) public pure returns (int){... */\n    tag_30:\n        /* \"contracts/24-Aug-assignment-2.sol\":361:364  int */\n      0x00\n        /* \"contracts/24-Aug-assignment-2.sol\":375:383  int diff */\n      dup1\n        /* \"contracts/24-Aug-assignment-2.sol\":390:391  b */\n      dup3\n        /* \"contracts/24-Aug-assignment-2.sol\":386:387  a */\n      dup5\n        /* \"contracts/24-Aug-assignment-2.sol\":386:391  a - b */\n      tag_44\n      swap2\n      swap1\n      tag_45\n      jump\t// in\n    tag_44:\n        /* \"contracts/24-Aug-assignment-2.sol\":375:391  int diff = a - b */\n      swap1\n      pop\n        /* \"contracts/24-Aug-assignment-2.sol\":401:408  int sum */\n      0x00\n        /* \"contracts/24-Aug-assignment-2.sol\":415:416  b */\n      dup4\n        /* \"contracts/24-Aug-assignment-2.sol\":411:412  a */\n      dup6\n        /* \"contracts/24-Aug-assignment-2.sol\":411:416  a + b */\n      tag_46\n      swap2\n      swap1\n      tag_47\n      jump\t// in\n    tag_46:\n        /* \"contracts/24-Aug-assignment-2.sol\":401:416  int sum = a + b */\n      swap1\n      pop\n        /* \"contracts/24-Aug-assignment-2.sol\":426:436  int result */\n      0x00\n        /* \"contracts/24-Aug-assignment-2.sol\":445:449  diff */\n      dup3\n        /* \"contracts/24-Aug-assignment-2.sol\":439:442  sum */\n      dup3\n        /* \"contracts/24-Aug-assignment-2.sol\":439:449  sum - diff */\n      tag_48\n      swap2\n      swap1\n      tag_45\n      jump\t// in\n    tag_48:\n        /* \"contracts/24-Aug-assignment-2.sol\":426:449  int result = sum - diff */\n      swap1\n      pop\n        /* \"contracts/24-Aug-assignment-2.sol\":466:472  result */\n      dup1\n        /* \"contracts/24-Aug-assignment-2.sol\":459:472  return result */\n      swap4\n      pop\n      pop\n      pop\n      pop\n        /* \"contracts/24-Aug-assignment-2.sol\":308:479  function evaluate(int a, int b) public pure returns (int){... */\n      swap3\n      swap2\n      pop\n      pop\n      jump\t// out\n        /* \"#utility.yul\":88:205   */\n    tag_50:\n        /* \"#utility.yul\":197:198   */\n      0x00\n        /* \"#utility.yul\":194:195   */\n      dup1\n        /* \"#utility.yul\":187:199   */\n      revert\n        /* \"#utility.yul\":334:411   */\n    tag_52:\n        /* \"#utility.yul\":371:378   */\n      0x00\n        /* \"#utility.yul\":400:405   */\n      dup2\n        /* \"#utility.yul\":389:405   */\n      swap1\n      pop\n        /* \"#utility.yul\":334:411   */\n      swap2\n      swap1\n      pop\n      jump\t// out\n        /* \"#utility.yul\":417:539   */\n    tag_53:\n        /* \"#utility.yul\":490:514   */\n      tag_71\n        /* \"#utility.yul\":508:513   */\n      dup2\n        /* \"#utility.yul\":490:514   */\n      tag_52\n      jump\t// in\n    tag_71:\n        /* \"#utility.yul\":483:488   */\n      dup2\n        /* \"#utility.yul\":480:515   */\n      eq\n        /* \"#utility.yul\":470:533   */\n      tag_72\n      jumpi\n        /* \"#utility.yul\":529:530   */\n      0x00\n        /* \"#utility.yul\":526:527   */\n      dup1\n        /* \"#utility.yul\":519:531   */\n      revert\n        /* \"#utility.yul\":470:533   */\n    tag_72:\n        /* \"#utility.yul\":417:539   */\n      pop\n      jump\t// out\n        /* \"#utility.yul\":545:684   */\n    tag_54:\n        /* \"#utility.yul\":591:596   */\n      0x00\n        /* \"#utility.yul\":629:635   */\n      dup2\n        /* \"#utility.yul\":616:636   */\n      calldataload\n        /* \"#utility.yul\":607:636   */\n      swap1\n      pop\n        /* \"#utility.yul\":645:678   */\n      tag_74\n        /* \"#utility.yul\":672:677   */\n      dup2\n        /* \"#utility.yul\":645:678   */\n      tag_53\n      jump\t// in\n    tag_74:\n        /* \"#utility.yul\":545:684   */\n      swap3\n      swap2\n      pop\n      pop\n      jump\t// out\n        /* \"#utility.yul\":690:1019   */\n    tag_10:\n        /* \"#utility.yul\":749:755   */\n      0x00\n        /* \"#utility.yul\":798:800   */\n      0x20\n        /* \"#utility.yul\":786:795   */\n      dup3\n        /* \"#utility.yul\":777:784   */\n      dup5\n        /* \"#utility.yul\":773:796   */\n      sub\n        /* \"#utility.yul\":769:801   */\n      slt\n        /* \"#utility.yul\":766:885   */\n      iszero\n      tag_76\n      jumpi\n        /* \"#utility.yul\":804:883   */\n      tag_77\n      tag_50\n      jump\t// in\n    tag_77:\n        /* \"#utility.yul\":766:885   */\n    tag_76:\n        /* \"#utility.yul\":924:925   */\n      0x00\n        /* \"#utility.yul\":949:1002   */\n      tag_78\n        /* \"#utility.yul\":994:1001   */\n      dup5\n        /* \"#utility.yul\":985:991   */\n      dup3\n        /* \"#utility.yul\":974:983   */\n      dup6\n        /* \"#utility.yul\":970:992   */\n      add\n        /* \"#utility.yul\":949:1002   */\n      tag_54\n      jump\t// in\n    tag_78:\n        /* \"#utility.yul\":939:1002   */\n      swap2\n      pop\n        /* \"#utility.yul\":895:1012   */\n      pop\n        /* \"#utility.yul\":690:1019   */\n      swap3\n      swap2\n      pop\n      pop\n      jump\t// out\n        /* \"#utility.yul\":1025:1101   */\n    tag_55:\n        /* \"#utility.yul\":1061:1068   */\n      0x00\n        /* \"#utility.yul\":1090:1095   */\n      dup2\n        /* \"#utility.yul\":1079:1095   */\n      swap1\n      pop\n        /* \"#utility.yul\":1025:1101   */\n      swap2\n      swap1\n      pop\n      jump\t// out\n        /* \"#utility.yul\":1107:1227   */\n    tag_56:\n        /* \"#utility.yul\":1179:1202   */\n      tag_81\n        /* \"#utility.yul\":1196:1201   */\n      dup2\n        /* \"#utility.yul\":1179:1202   */\n      tag_55\n      jump\t// in\n    tag_81:\n        /* \"#utility.yul\":1172:1177   */\n      dup2\n        /* \"#utility.yul\":1169:1203   */\n      eq\n        /* \"#utility.yul\":1159:1221   */\n      tag_82\n      jumpi\n        /* \"#utility.yul\":1217:1218   */\n      0x00\n        /* \"#utility.yul\":1214:1215   */\n      dup1\n        /* \"#utility.yul\":1207:1219   */\n      revert\n        /* \"#utility.yul\":1159:1221   */\n    tag_82:\n        /* \"#utility.yul\":1107:1227   */\n      pop\n      jump\t// out\n        /* \"#utility.yul\":1233:1370   */\n    tag_57:\n        /* \"#utility.yul\":1278:1283   */\n      0x00\n        /* \"#utility.yul\":1316:1322   */\n      dup2\n        /* \"#utility.yul\":1303:1323   */\n      calldataload\n        /* \"#utility.yul\":1294:1323   */\n      swap1\n      pop\n        /* \"#utility.yul\":1332:1364   */\n      tag_84\n        /* \"#utility.yul\":1358:1363   */\n      dup2\n        /* \"#utility.yul\":1332:1364   */\n      tag_56\n      jump\t// in\n    tag_84:\n        /* \"#utility.yul\":1233:1370   */\n      swap3\n      swap2\n      pop\n      pop\n      jump\t// out\n        /* \"#utility.yul\":1376:1989   */\n    tag_14:\n        /* \"#utility.yul\":1450:1456   */\n      0x00\n        /* \"#utility.yul\":1458:1464   */\n      dup1\n        /* \"#utility.yul\":1466:1472   */\n      0x00\n        /* \"#utility.yul\":1515:1517   */\n      0x60\n        /* \"#utility.yul\":1503:1512   */\n      dup5\n        /* \"#utility.yul\":1494:1501   */\n      dup7\n        /* \"#utility.yul\":1490:1513   */\n      sub\n        /* \"#utility.yul\":1486:1518   */\n      slt\n        /* \"#utility.yul\":1483:1602   */\n      iszero\n      tag_86\n      jumpi\n        /* \"#utility.yul\":1521:1600   */\n      tag_87\n      tag_50\n      jump\t// in\n    tag_87:\n        /* \"#utility.yul\":1483:1602   */\n    tag_86:\n        /* \"#utility.yul\":1641:1642   */\n      0x00\n        /* \"#utility.yul\":1666:1718   */\n      tag_88\n        /* \"#utility.yul\":1710:1717   */\n      dup7\n        /* \"#utility.yul\":1701:1707   */\n      dup3\n        /* \"#utility.yul\":1690:1699   */\n      dup8\n        /* \"#utility.yul\":1686:1708   */\n      add\n        /* \"#utility.yul\":1666:1718   */\n      tag_57\n      jump\t// in\n    tag_88:\n        /* \"#utility.yul\":1656:1718   */\n      swap4\n      pop\n        /* \"#utility.yul\":1612:1728   */\n      pop\n        /* \"#utility.yul\":1767:1769   */\n      0x20\n        /* \"#utility.yul\":1793:1845   */\n      tag_89\n        /* \"#utility.yul\":1837:1844   */\n      dup7\n        /* \"#utility.yul\":1828:1834   */\n      dup3\n        /* \"#utility.yul\":1817:1826   */\n      dup8\n        /* \"#utility.yul\":1813:1835   */\n      add\n        /* \"#utility.yul\":1793:1845   */\n      tag_57\n      jump\t// in\n    tag_89:\n        /* \"#utility.yul\":1783:1845   */\n      swap3\n      pop\n        /* \"#utility.yul\":1738:1855   */\n      pop\n        /* \"#utility.yul\":1894:1896   */\n      0x40\n        /* \"#utility.yul\":1920:1972   */\n      tag_90\n        /* \"#utility.yul\":1964:1971   */\n      dup7\n        /* \"#utility.yul\":1955:1961   */\n      dup3\n        /* \"#utility.yul\":1944:1953   */\n      dup8\n        /* \"#utility.yul\":1940:1962   */\n      add\n        /* \"#utility.yul\":1920:1972   */\n      tag_57\n      jump\t// in\n    tag_90:\n        /* \"#utility.yul\":1910:1972   */\n      swap2\n      pop\n        /* \"#utility.yul\":1865:1982   */\n      pop\n        /* \"#utility.yul\":1376:1989   */\n      swap3\n      pop\n      swap3\n      pop\n      swap3\n      jump\t// out\n        /* \"#utility.yul\":1995:2110   */\n    tag_58:\n        /* \"#utility.yul\":2080:2103   */\n      tag_92\n        /* \"#utility.yul\":2097:2102   */\n      dup2\n        /* \"#utility.yul\":2080:2103   */\n      tag_55\n      jump\t// in\n    tag_92:\n        /* \"#utility.yul\":2075:2078   */\n      dup3\n        /* \"#utility.yul\":2068:2104   */\n      mstore\n        /* \"#utility.yul\":1995:2110   */\n      pop\n      pop\n      jump\t// out\n        /* \"#utility.yul\":2116:2334   */\n    tag_17:\n        /* \"#utility.yul\":2207:2211   */\n      0x00\n        /* \"#utility.yul\":2245:2247   */\n      0x20\n        /* \"#utility.yul\":2234:2243   */\n      dup3\n        /* \"#utility.yul\":2230:2248   */\n      add\n        /* \"#utility.yul\":2222:2248   */\n      swap1\n      pop\n        /* \"#utility.yul\":2258:2327   */\n      tag_94\n        /* \"#utility.yul\":2324:2325   */\n      0x00\n        /* \"#utility.yul\":2313:2322   */\n      dup4\n        /* \"#utility.yul\":2309:2326   */\n      add\n        /* \"#utility.yul\":2300:2306   */\n      dup5\n        /* \"#utility.yul\":2258:2327   */\n      tag_58\n      jump\t// in\n    tag_94:\n        /* \"#utility.yul\":2116:2334   */\n      swap3\n      swap2\n      pop\n      pop\n      jump\t// out\n        /* \"#utility.yul\":2340:2458   */\n    tag_59:\n        /* \"#utility.yul\":2427:2451   */\n      tag_96\n        /* \"#utility.yul\":2445:2450   */\n      dup2\n        /* \"#utility.yul\":2427:2451   */\n      tag_52\n      jump\t// in\n    tag_96:\n        /* \"#utility.yul\":2422:2425   */\n      dup3\n        /* \"#utility.yul\":2415:2452   */\n      mstore\n        /* \"#utility.yul\":2340:2458   */\n      pop\n      pop\n      jump\t// out\n        /* \"#utility.yul\":2464:2686   */\n    tag_21:\n        /* \"#utility.yul\":2557:2561   */\n      0x00\n        /* \"#utility.yul\":2595:2597   */\n      0x20\n        /* \"#utility.yul\":2584:2593   */\n      dup3\n        /* \"#utility.yul\":2580:2598   */\n      add\n        /* \"#utility.yul\":2572:2598   */\n      swap1\n      pop\n        /* \"#utility.yul\":2608:2679   */\n      tag_98\n        /* \"#utility.yul\":2676:2677   */\n      0x00\n        /* \"#utility.yul\":2665:2674   */\n      dup4\n        /* \"#utility.yul\":2661:2678   */\n      add\n        /* \"#utility.yul\":2652:2658   */\n      dup5\n        /* \"#utility.yul\":2608:2679   */\n      tag_59\n      jump\t// in\n    tag_98:\n        /* \"#utility.yul\":2464:2686   */\n      swap3\n      swap2\n      pop\n      pop\n      jump\t// out\n        /* \"#utility.yul\":2692:3019   */\n    tag_24:\n        /* \"#utility.yul\":2750:2756   */\n      0x00\n        /* \"#utility.yul\":2799:2801   */\n      0x20\n        /* \"#utility.yul\":2787:2796   */\n      dup3\n        /* \"#utility.yul\":2778:2785   */\n      dup5\n        /* \"#utility.yul\":2774:2797   */\n      sub\n        /* \"#utility.yul\":2770:2802   */\n      slt\n        /* \"#utility.yul\":2767:2886   */\n      iszero\n      tag_100\n      jumpi\n        /* \"#utility.yul\":2805:2884   */\n      tag_101\n      tag_50\n      jump\t// in\n    tag_101:\n        /* \"#utility.yul\":2767:2886   */\n    tag_100:\n        /* \"#utility.yul\":2925:2926   */\n      0x00\n        /* \"#utility.yul\":2950:3002   */\n      tag_102\n        /* \"#utility.yul\":2994:3001   */\n      dup5\n        /* \"#utility.yul\":2985:2991   */\n      dup3\n        /* \"#utility.yul\":2974:2983   */\n      dup6\n        /* \"#utility.yul\":2970:2992   */\n      add\n        /* \"#utility.yul\":2950:3002   */\n      tag_57\n      jump\t// in\n    tag_102:\n        /* \"#utility.yul\":2940:3002   */\n      swap2\n      pop\n        /* \"#utility.yul\":2896:3012   */\n      pop\n        /* \"#utility.yul\":2692:3019   */\n      swap3\n      swap2\n      pop\n      pop\n      jump\t// out\n        /* \"#utility.yul\":3025:3495   */\n    tag_29:\n        /* \"#utility.yul\":3091:3097   */\n      0x00\n        /* \"#utility.yul\":3099:3105   */\n      dup1\n        /* \"#utility.yul\":3148:3150   */\n      0x40\n        /* \"#utility.yul\":3136:3145   */\n      dup4\n        /* \"#utility.yul\":3127:3134   */\n      dup6\n        /* \"#utility.yul\":3123:3146   */\n      sub\n        /* \"#utility.yul\":3119:3151   */\n      slt\n        /* \"#utility.yul\":3116:3235   */\n      iszero\n      tag_104\n      jumpi\n        /* \"#utility.yul\":3154:3233   */\n      tag_105\n      tag_50\n      jump\t// in\n    tag_105:\n        /* \"#utility.yul\":3116:3235   */\n    tag_104:\n        /* \"#utility.yul\":3274:3275   */\n      0x00\n        /* \"#utility.yul\":3299:3351   */\n      tag_106\n        /* \"#utility.yul\":3343:3350   */\n      dup6\n        /* \"#utility.yul\":3334:3340   */\n      dup3\n        /* \"#utility.yul\":3323:3332   */\n      dup7\n        /* \"#utility.yul\":3319:3341   */\n      add\n        /* \"#utility.yul\":3299:3351   */\n      tag_57\n      jump\t// in\n    tag_106:\n        /* \"#utility.yul\":3289:3351   */\n      swap3\n      pop\n        /* \"#utility.yul\":3245:3361   */\n      pop\n        /* \"#utility.yul\":3400:3402   */\n      0x20\n        /* \"#utility.yul\":3426:3478   */\n      tag_107\n        /* \"#utility.yul\":3470:3477   */\n      dup6\n        /* \"#utility.yul\":3461:3467   */\n      dup3\n        /* \"#utility.yul\":3450:3459   */\n      dup7\n        /* \"#utility.yul\":3446:3468   */\n      add\n        /* \"#utility.yul\":3426:3478   */\n      tag_57\n      jump\t// in\n    tag_107:\n        /* \"#utility.yul\":3416:3478   */\n      swap2\n      pop\n        /* \"#utility.yul\":3371:3488   */\n      pop\n        /* \"#utility.yul\":3025:3495   */\n      swap3\n      pop\n      swap3\n      swap1\n      pop\n      jump\t// out\n        /* \"#utility.yul\":3501:3670   */\n    tag_60:\n        /* \"#utility.yul\":3585:3596   */\n      0x00\n        /* \"#utility.yul\":3619:3625   */\n      dup3\n        /* \"#utility.yul\":3614:3617   */\n      dup3\n        /* \"#utility.yul\":3607:3626   */\n      mstore\n        /* \"#utility.yul\":3659:3663   */\n      0x20\n        /* \"#utility.yul\":3654:3657   */\n      dup3\n        /* \"#utility.yul\":3650:3664   */\n      add\n        /* \"#utility.yul\":3635:3664   */\n      swap1\n      pop\n        /* \"#utility.yul\":3501:3670   */\n      swap3\n      swap2\n      pop\n      pop\n      jump\t// out\n        /* \"#utility.yul\":3676:3856   */\n    tag_61:\n        /* \"#utility.yul\":3816:3848   */\n      0x56616c75652073686f756c642062652067726561746572207468616e20300000\n        /* \"#utility.yul\":3812:3813   */\n      0x00\n        /* \"#utility.yul\":3804:3810   */\n      dup3\n        /* \"#utility.yul\":3800:3814   */\n      add\n        /* \"#utility.yul\":3793:3849   */\n      mstore\n        /* \"#utility.yul\":3676:3856   */\n      pop\n      jump\t// out\n        /* \"#utility.yul\":3862:4228   */\n    tag_62:\n        /* \"#utility.yul\":4004:4007   */\n      0x00\n        /* \"#utility.yul\":4025:4092   */\n      tag_111\n        /* \"#utility.yul\":4089:4091   */\n      0x1e\n        /* \"#utility.yul\":4084:4087   */\n      dup4\n        /* \"#utility.yul\":4025:4092   */\n      tag_60\n      jump\t// in\n    tag_111:\n        /* \"#utility.yul\":4018:4092   */\n      swap2\n      pop\n        /* \"#utility.yul\":4101:4194   */\n      tag_112\n        /* \"#utility.yul\":4190:4193   */\n      dup3\n        /* \"#utility.yul\":4101:4194   */\n      tag_61\n      jump\t// in\n    tag_112:\n        /* \"#utility.yul\":4219:4221   */\n      0x20\n        /* \"#utility.yul\":4214:4217   */\n      dup3\n        /* \"#utility.yul\":4210:4222   */\n      add\n        /* \"#utility.yul\":4203:4222   */\n      swap1\n      pop\n        /* \"#utility.yul\":3862:4228   */\n      swap2\n      swap1\n      pop\n      jump\t// out\n        /* \"#utility.yul\":4234:4653   */\n    tag_36:\n        /* \"#utility.yul\":4400:4404   */\n      0x00\n        /* \"#utility.yul\":4438:4440   */\n      0x20\n        /* \"#utility.yul\":4427:4436   */\n      dup3\n        /* \"#utility.yul\":4423:4441   */\n      add\n        /* \"#utility.yul\":4415:4441   */\n      swap1\n      pop\n        /* \"#utility.yul\":4487:4496   */\n      dup2\n        /* \"#utility.yul\":4481:4485   */\n      dup2\n        /* \"#utility.yul\":4477:4497   */\n      sub\n        /* \"#utility.yul\":4473:4474   */\n      0x00\n        /* \"#utility.yul\":4462:4471   */\n      dup4\n        /* \"#utility.yul\":4458:4475   */\n      add\n        /* \"#utility.yul\":4451:4498   */\n      mstore\n        /* \"#utility.yul\":4515:4646   */\n      tag_114\n        /* \"#utility.yul\":4641:4645   */\n      dup2\n        /* \"#utility.yul\":4515:4646   */\n      tag_62\n      jump\t// in\n    tag_114:\n        /* \"#utility.yul\":4507:4646   */\n      swap1\n      pop\n        /* \"#utility.yul\":4234:4653   */\n      swap2\n      swap1\n      pop\n      jump\t// out\n        /* \"#utility.yul\":4659:4839   */\n    tag_63:\n        /* \"#utility.yul\":4707:4784   */\n      0x4e487b7100000000000000000000000000000000000000000000000000000000\n        /* \"#utility.yul\":4704:4705   */\n      0x00\n        /* \"#utility.yul\":4697:4785   */\n      mstore\n        /* \"#utility.yul\":4804:4808   */\n      0x12\n        /* \"#utility.yul\":4801:4802   */\n      0x04\n        /* \"#utility.yul\":4794:4809   */\n      mstore\n        /* \"#utility.yul\":4828:4832   */\n      0x24\n        /* \"#utility.yul\":4825:4826   */\n      0x00\n        /* \"#utility.yul\":4818:4833   */\n      revert\n        /* \"#utility.yul\":4845:5019   */\n    tag_42:\n        /* \"#utility.yul\":4876:4877   */\n      0x00\n        /* \"#utility.yul\":4893:4912   */\n      tag_117\n        /* \"#utility.yul\":4910:4911   */\n      dup3\n        /* \"#utility.yul\":4893:4912   */\n      tag_55\n      jump\t// in\n    tag_117:\n        /* \"#utility.yul\":4888:4912   */\n      swap2\n      pop\n        /* \"#utility.yul\":4926:4945   */\n      tag_118\n        /* \"#utility.yul\":4943:4944   */\n      dup4\n        /* \"#utility.yul\":4926:4945   */\n      tag_55\n      jump\t// in\n    tag_118:\n        /* \"#utility.yul\":4921:4945   */\n      swap3\n      pop\n        /* \"#utility.yul\":4964:4965   */\n      dup3\n        /* \"#utility.yul\":4954:4989   */\n      tag_119\n      jumpi\n        /* \"#utility.yul\":4969:4987   */\n      tag_120\n      tag_63\n      jump\t// in\n    tag_120:\n        /* \"#utility.yul\":4954:4989   */\n    tag_119:\n        /* \"#utility.yul\":5011:5012   */\n      dup3\n        /* \"#utility.yul\":5008:5009   */\n      dup3\n        /* \"#utility.yul\":5003:5013   */\n      smod\n        /* \"#utility.yul\":4998:5013   */\n      swap1\n      pop\n        /* \"#utility.yul\":4845:5019   */\n      swap3\n      swap2\n      pop\n      pop\n      jump\t// out\n        /* \"#utility.yul\":5025:5205   */\n    tag_64:\n        /* \"#utility.yul\":5073:5150   */\n      0x4e487b7100000000000000000000000000000000000000000000000000000000\n        /* \"#utility.yul\":5070:5071   */\n      0x00\n        /* \"#utility.yul\":5063:5151   */\n      mstore\n        /* \"#utility.yul\":5170:5174   */\n      0x11\n        /* \"#utility.yul\":5167:5168   */\n      0x04\n        /* \"#utility.yul\":5160:5175   */\n      mstore\n        /* \"#utility.yul\":5194:5198   */\n      0x24\n        /* \"#utility.yul\":5191:5192   */\n      0x00\n        /* \"#utility.yul\":5184:5199   */\n      revert\n        /* \"#utility.yul\":5211:5583   */\n    tag_45:\n        /* \"#utility.yul\":5250:5254   */\n      0x00\n        /* \"#utility.yul\":5270:5289   */\n      tag_123\n        /* \"#utility.yul\":5287:5288   */\n      dup3\n        /* \"#utility.yul\":5270:5289   */\n      tag_55\n      jump\t// in\n    tag_123:\n        /* \"#utility.yul\":5265:5289   */\n      swap2\n      pop\n        /* \"#utility.yul\":5303:5322   */\n      tag_124\n        /* \"#utility.yul\":5320:5321   */\n      dup4\n        /* \"#utility.yul\":5303:5322   */\n      tag_55\n      jump\t// in\n    tag_124:\n        /* \"#utility.yul\":5298:5322   */\n      swap3\n      pop\n        /* \"#utility.yul\":5346:5347   */\n      dup3\n        /* \"#utility.yul\":5343:5344   */\n      dup3\n        /* \"#utility.yul\":5339:5348   */\n      sub\n        /* \"#utility.yul\":5331:5348   */\n      swap1\n      pop\n        /* \"#utility.yul\":5540:5541   */\n      dup2\n        /* \"#utility.yul\":5534:5538   */\n      dup2\n        /* \"#utility.yul\":5530:5542   */\n      slt\n        /* \"#utility.yul\":5526:5527   */\n      0x00\n        /* \"#utility.yul\":5523:5524   */\n      dup5\n        /* \"#utility.yul\":5519:5528   */\n      slt\n        /* \"#utility.yul\":5515:5543   */\n      and\n        /* \"#utility.yul\":5498:5499   */\n      dup3\n        /* \"#utility.yul\":5492:5496   */\n      dup3\n        /* \"#utility.yul\":5488:5500   */\n      sgt\n        /* \"#utility.yul\":5483:5484   */\n      0x00\n        /* \"#utility.yul\":5480:5481   */\n      dup6\n        /* \"#utility.yul\":5476:5485   */\n      slt\n        /* \"#utility.yul\":5469:5486   */\n      iszero\n        /* \"#utility.yul\":5465:5501   */\n      and\n        /* \"#utility.yul\":5449:5553   */\n      or\n        /* \"#utility.yul\":5446:5576   */\n      iszero\n      tag_125\n      jumpi\n        /* \"#utility.yul\":5556:5574   */\n      tag_126\n      tag_64\n      jump\t// in\n    tag_126:\n        /* \"#utility.yul\":5446:5576   */\n    tag_125:\n        /* \"#utility.yul\":5211:5583   */\n      swap3\n      swap2\n      pop\n      pop\n      jump\t// out\n        /* \"#utility.yul\":5589:5964   */\n    tag_47:\n        /* \"#utility.yul\":5628:5631   */\n      0x00\n        /* \"#utility.yul\":5647:5666   */\n      tag_128\n        /* \"#utility.yul\":5664:5665   */\n      dup3\n        /* \"#utility.yul\":5647:5666   */\n      tag_55\n      jump\t// in\n    tag_128:\n        /* \"#utility.yul\":5642:5666   */\n      swap2\n      pop\n        /* \"#utility.yul\":5680:5699   */\n      tag_129\n        /* \"#utility.yul\":5697:5698   */\n      dup4\n        /* \"#utility.yul\":5680:5699   */\n      tag_55\n      jump\t// in\n    tag_129:\n        /* \"#utility.yul\":5675:5699   */\n      swap3\n      pop\n        /* \"#utility.yul\":5722:5723   */\n      dup3\n        /* \"#utility.yul\":5719:5720   */\n      dup3\n        /* \"#utility.yul\":5715:5724   */\n      add\n        /* \"#utility.yul\":5708:5724   */\n      swap1\n      pop\n        /* \"#utility.yul\":5920:5921   */\n      dup3\n        /* \"#utility.yul\":5915:5918   */\n      dup2\n        /* \"#utility.yul\":5911:5922   */\n      slt\n        /* \"#utility.yul\":5904:5923   */\n      iszero\n        /* \"#utility.yul\":5900:5901   */\n      0x00\n        /* \"#utility.yul\":5897:5898   */\n      dup4\n        /* \"#utility.yul\":5893:5902   */\n      slt\n        /* \"#utility.yul\":5889:5924   */\n      and\n        /* \"#utility.yul\":5872:5873   */\n      dup4\n        /* \"#utility.yul\":5867:5870   */\n      dup3\n        /* \"#utility.yul\":5863:5874   */\n      slt\n        /* \"#utility.yul\":5858:5859   */\n      0x00\n        /* \"#utility.yul\":5855:5856   */\n      dup5\n        /* \"#utility.yul\":5851:5860   */\n      slt\n        /* \"#utility.yul\":5844:5861   */\n      iszero\n        /* \"#utility.yul\":5840:5875   */\n      and\n        /* \"#utility.yul\":5824:5934   */\n      or\n        /* \"#utility.yul\":5821:5957   */\n      iszero\n      tag_130\n      jumpi\n        /* \"#utility.yul\":5937:5955   */\n      tag_131\n      tag_64\n      jump\t// in\n    tag_131:\n        /* \"#utility.yul\":5821:5957   */\n    tag_130:\n        /* \"#utility.yul\":5589:5964   */\n      swap3\n      swap2\n      pop\n      pop\n      jump\t// out\n\n    auxdata: 0xa2646970667358221220f1c5883116a022c6cebe92a93ccf7bf8e8078b67d1f2da836f471044afe3ac2764736f6c63430008100033\n}\n",
				"bytecode": {
					"linkReferences": {},
					"object": "608060405234801561001057600080fd5b50610594806100206000396000f3fe608060405234801561001057600080fd5b50600436106100575760003560e01c80633fb5c1cb1461005c578063431547d714610078578063f2c9ecd8146100a8578063f4440ea3146100c6578063f8bb49a1146100f6575b600080fd5b61007660048036038101906100719190610254565b610126565b005b610092600480360381019061008d91906102b7565b610130565b60405161009f9190610319565b60405180910390f35b6100b061017b565b6040516100bd9190610343565b60405180910390f35b6100e060048036038101906100db919061035e565b610184565b6040516100ed9190610319565b60405180910390f35b610110600480360381019061010b919061038b565b6101dc565b60405161011d9190610319565b60405180910390f35b8060008190555050565b6000808413610174576040517f08c379a000000000000000000000000000000000000000000000000000000000815260040161016b90610428565b60405180910390fd5b9392505050565b60008054905090565b60008082136101c8576040517f08c379a00000000000000000000000000000000000000000000000000000000081526004016101bf90610428565b60405180910390fd5b6003826101d59190610477565b9050919050565b60008082846101eb91906104d7565b9050600083856101fb919061051a565b90506000828261020b91906104d7565b905080935050505092915050565b600080fd5b6000819050919050565b6102318161021e565b811461023c57600080fd5b50565b60008135905061024e81610228565b92915050565b60006020828403121561026a57610269610219565b5b60006102788482850161023f565b91505092915050565b6000819050919050565b61029481610281565b811461029f57600080fd5b50565b6000813590506102b18161028b565b92915050565b6000806000606084860312156102d0576102cf610219565b5b60006102de868287016102a2565b93505060206102ef868287016102a2565b9250506040610300868287016102a2565b9150509250925092565b61031381610281565b82525050565b600060208201905061032e600083018461030a565b92915050565b61033d8161021e565b82525050565b60006020820190506103586000830184610334565b92915050565b60006020828403121561037457610373610219565b5b6000610382848285016102a2565b91505092915050565b600080604083850312156103a2576103a1610219565b5b60006103b0858286016102a2565b92505060206103c1858286016102a2565b9150509250929050565b600082825260208201905092915050565b7f56616c75652073686f756c642062652067726561746572207468616e20300000600082015250565b6000610412601e836103cb565b915061041d826103dc565b602082019050919050565b6000602082019050818103600083015261044181610405565b9050919050565b7f4e487b7100000000000000000000000000000000000000000000000000000000600052601260045260246000fd5b600061048282610281565b915061048d83610281565b92508261049d5761049c610448565b5b828207905092915050565b7f4e487b7100000000000000000000000000000000000000000000000000000000600052601160045260246000fd5b60006104e282610281565b91506104ed83610281565b9250828203905081811260008412168282136000851215161715610514576105136104a8565b5b92915050565b600061052582610281565b915061053083610281565b925082820190508281121560008312168382126000841215161715610558576105576104a8565b5b9291505056fea2646970667358221220f1c5883116a022c6cebe92a93ccf7bf8e8078b67d1f2da836f471044afe3ac2764736f6c63430008100033",
					"opcodes": "PUSH1 0x80 PUSH1 0x40 MSTORE CALLVALUE DUP1 ISZERO PUSH2 0x10 JUMPI PUSH1 0x0 DUP1 REVERT JUMPDEST POP PUSH2 0x594 DUP1 PUSH2 0x20 PUSH1 0x0 CODECOPY PUSH1 0x0 RETURN INVALID PUSH1 0x80 PUSH1 0x40 MSTORE CALLVALUE DUP1 ISZERO PUSH2 0x10 JUMPI PUSH1 0x0 DUP1 REVERT JUMPDEST POP PUSH1 0x4 CALLDATASIZE LT PUSH2 0x57 JUMPI PUSH1 0x0 CALLDATALOAD PUSH1 0xE0 SHR DUP1 PUSH4 0x3FB5C1CB EQ PUSH2 0x5C JUMPI DUP1 PUSH4 0x431547D7 EQ PUSH2 0x78 JUMPI DUP1 PUSH4 0xF2C9ECD8 EQ PUSH2 0xA8 JUMPI DUP1 PUSH4 0xF4440EA3 EQ PUSH2 0xC6 JUMPI DUP1 PUSH4 0xF8BB49A1 EQ PUSH2 0xF6 JUMPI JUMPDEST PUSH1 0x0 DUP1 REVERT JUMPDEST PUSH2 0x76 PUSH1 0x4 DUP1 CALLDATASIZE SUB DUP2 ADD SWAP1 PUSH2 0x71 SWAP2 SWAP1 PUSH2 0x254 JUMP JUMPDEST PUSH2 0x126 JUMP JUMPDEST STOP JUMPDEST PUSH2 0x92 PUSH1 0x4 DUP1 CALLDATASIZE SUB DUP2 ADD SWAP1 PUSH2 0x8D SWAP2 SWAP1 PUSH2 0x2B7 JUMP JUMPDEST PUSH2 0x130 JUMP JUMPDEST PUSH1 0x40 MLOAD PUSH2 0x9F SWAP2 SWAP1 PUSH2 0x319 JUMP JUMPDEST PUSH1 0x40 MLOAD DUP1 SWAP2 SUB SWAP1 RETURN JUMPDEST PUSH2 0xB0 PUSH2 0x17B JUMP JUMPDEST PUSH1 0x40 MLOAD PUSH2 0xBD SWAP2 SWAP1 PUSH2 0x343 JUMP JUMPDEST PUSH1 0x40 MLOAD DUP1 SWAP2 SUB SWAP1 RETURN JUMPDEST PUSH2 0xE0 PUSH1 0x4 DUP1 CALLDATASIZE SUB DUP2 ADD SWAP1 PUSH2 0xDB SWAP2 SWAP1 PUSH2 0x35E JUMP JUMPDEST PUSH2 0x184 JUMP JUMPDEST PUSH1 0x40 MLOAD PUSH2 0xED SWAP2 SWAP1 PUSH2 0x319 JUMP JUMPDEST PUSH1 0x40 MLOAD DUP1 SWAP2 SUB SWAP1 RETURN JUMPDEST PUSH2 0x110 PUSH1 0x4 DUP1 CALLDATASIZE SUB DUP2 ADD SWAP1 PUSH2 0x10B SWAP2 SWAP1 PUSH2 0x38B JUMP JUMPDEST PUSH2 0x1DC JUMP JUMPDEST PUSH1 0x40 MLOAD PUSH2 0x11D SWAP2 SWAP1 PUSH2 0x319 JUMP JUMPDEST PUSH1 0x40 MLOAD DUP1 SWAP2 SUB SWAP1 RETURN JUMPDEST DUP1 PUSH1 0x0 DUP2 SWAP1 SSTORE POP POP JUMP JUMPDEST PUSH1 0x0 DUP1 DUP5 SGT PUSH2 0x174 JUMPI PUSH1 0x40 MLOAD PUSH32 0x8C379A000000000000000000000000000000000000000000000000000000000 DUP2 MSTORE PUSH1 0x4 ADD PUSH2 0x16B SWAP1 PUSH2 0x428 JUMP JUMPDEST PUSH1 0x40 MLOAD DUP1 SWAP2 SUB SWAP1 REVERT JUMPDEST SWAP4 SWAP3 POP POP POP JUMP JUMPDEST PUSH1 0x0 DUP1 SLOAD SWAP1 POP SWAP1 JUMP JUMPDEST PUSH1 0x0 DUP1 DUP3 SGT PUSH2 0x1C8 JUMPI PUSH1 0x40 MLOAD PUSH32 0x8C379A000000000000000000000000000000000000000000000000000000000 DUP2 MSTORE PUSH1 0x4 ADD PUSH2 0x1BF SWAP1 PUSH2 0x428 JUMP JUMPDEST PUSH1 0x40 MLOAD DUP1 SWAP2 SUB SWAP1 REVERT JUMPDEST PUSH1 0x3 DUP3 PUSH2 0x1D5 SWAP2 SWAP1 PUSH2 0x477 JUMP JUMPDEST SWAP1 POP SWAP2 SWAP1 POP JUMP JUMPDEST PUSH1 0x0 DUP1 DUP3 DUP5 PUSH2 0x1EB SWAP2 SWAP1 PUSH2 0x4D7 JUMP JUMPDEST SWAP1 POP PUSH1 0x0 DUP4 DUP6 PUSH2 0x1FB SWAP2 SWAP1 PUSH2 0x51A JUMP JUMPDEST SWAP1 POP PUSH1 0x0 DUP3 DUP3 PUSH2 0x20B SWAP2 SWAP1 PUSH2 0x4D7 JUMP JUMPDEST SWAP1 POP DUP1 SWAP4 POP POP POP POP SWAP3 SWAP2 POP POP JUMP JUMPDEST PUSH1 0x0 DUP1 REVERT JUMPDEST PUSH1 0x0 DUP2 SWAP1 POP SWAP2 SWAP1 POP JUMP JUMPDEST PUSH2 0x231 DUP2 PUSH2 0x21E JUMP JUMPDEST DUP2 EQ PUSH2 0x23C JUMPI PUSH1 0x0 DUP1 REVERT JUMPDEST POP JUMP JUMPDEST PUSH1 0x0 DUP2 CALLDATALOAD SWAP1 POP PUSH2 0x24E DUP2 PUSH2 0x228 JUMP JUMPDEST SWAP3 SWAP2 POP POP JUMP JUMPDEST PUSH1 0x0 PUSH1 0x20 DUP3 DUP5 SUB SLT ISZERO PUSH2 0x26A JUMPI PUSH2 0x269 PUSH2 0x219 JUMP JUMPDEST JUMPDEST PUSH1 0x0 PUSH2 0x278 DUP5 DUP3 DUP6 ADD PUSH2 0x23F JUMP JUMPDEST SWAP2 POP POP SWAP3 SWAP2 POP POP JUMP JUMPDEST PUSH1 0x0 DUP2 SWAP1 POP SWAP2 SWAP1 POP JUMP JUMPDEST PUSH2 0x294 DUP2 PUSH2 0x281 JUMP JUMPDEST DUP2 EQ PUSH2 0x29F JUMPI PUSH1 0x0 DUP1 REVERT JUMPDEST POP JUMP JUMPDEST PUSH1 0x0 DUP2 CALLDATALOAD SWAP1 POP PUSH2 0x2B1 DUP2 PUSH2 0x28B JUMP JUMPDEST SWAP3 SWAP2 POP POP JUMP JUMPDEST PUSH1 0x0 DUP1 PUSH1 0x0 PUSH1 0x60 DUP5 DUP7 SUB SLT ISZERO PUSH2 0x2D0 JUMPI PUSH2 0x2CF PUSH2 0x219 JUMP JUMPDEST JUMPDEST PUSH1 0x0 PUSH2 0x2DE DUP7 DUP3 DUP8 ADD PUSH2 0x2A2 JUMP JUMPDEST SWAP4 POP POP PUSH1 0x20 PUSH2 0x2EF DUP7 DUP3 DUP8 ADD PUSH2 0x2A2 JUMP JUMPDEST SWAP3 POP POP PUSH1 0x40 PUSH2 0x300 DUP7 DUP3 DUP8 ADD PUSH2 0x2A2 JUMP JUMPDEST SWAP2 POP POP SWAP3 POP SWAP3 POP SWAP3 JUMP JUMPDEST PUSH2 0x313 DUP2 PUSH2 0x281 JUMP JUMPDEST DUP3 MSTORE POP POP JUMP JUMPDEST PUSH1 0x0 PUSH1 0x20 DUP3 ADD SWAP1 POP PUSH2 0x32E PUSH1 0x0 DUP4 ADD DUP5 PUSH2 0x30A JUMP JUMPDEST SWAP3 SWAP2 POP POP JUMP JUMPDEST PUSH2 0x33D DUP2 PUSH2 0x21E JUMP JUMPDEST DUP3 MSTORE POP POP JUMP JUMPDEST PUSH1 0x0 PUSH1 0x20 DUP3 ADD SWAP1 POP PUSH2 0x358 PUSH1 0x0 DUP4 ADD DUP5 PUSH2 0x334 JUMP JUMPDEST SWAP3 SWAP2 POP POP JUMP JUMPDEST PUSH1 0x0 PUSH1 0x20 DUP3 DUP5 SUB SLT ISZERO PUSH2 0x374 JUMPI PUSH2 0x373 PUSH2 0x219 JUMP JUMPDEST JUMPDEST PUSH1 0x0 PUSH2 0x382 DUP5 DUP3 DUP6 ADD PUSH2 0x2A2 JUMP JUMPDEST SWAP2 POP POP SWAP3 SWAP2 POP POP JUMP JUMPDEST PUSH1 0x0 DUP1 PUSH1 0x40 DUP4 DUP6 SUB SLT ISZERO PUSH2 0x3A2 JUMPI PUSH2 0x3A1 PUSH2 0x219 JUMP JUMPDEST JUMPDEST PUSH1 0x0 PUSH2 0x3B0 DUP6 DUP3 DUP7 ADD PUSH2 0x2A2 JUMP JUMPDEST SWAP3 POP POP PUSH1 0x20 PUSH2 0x3C1 DUP6 DUP3 DUP7 ADD PUSH2 0x2A2 JUMP JUMPDEST SWAP2 POP POP SWAP3 POP SWAP3 SWAP1 POP JUMP JUMPDEST PUSH1 0x0 DUP3 DUP3 MSTORE PUSH1 0x20 DUP3 ADD SWAP1 POP SWAP3 SWAP2 POP POP JUMP JUMPDEST PUSH32 0x56616C75652073686F756C642062652067726561746572207468616E20300000 PUSH1 0x0 DUP3 ADD MSTORE POP JUMP JUMPDEST PUSH1 0x0 PUSH2 0x412 PUSH1 0x1E DUP4 PUSH2 0x3CB JUMP JUMPDEST SWAP2 POP PUSH2 0x41D DUP3 PUSH2 0x3DC JUMP JUMPDEST PUSH1 0x20 DUP3 ADD SWAP1 POP SWAP2 SWAP1 POP JUMP JUMPDEST PUSH1 0x0 PUSH1 0x20 DUP3 ADD SWAP1 POP DUP2 DUP2 SUB PUSH1 0x0 DUP4 ADD MSTORE PUSH2 0x441 DUP2 PUSH2 0x405 JUMP JUMPDEST SWAP1 POP SWAP2 SWAP1 POP JUMP JUMPDEST PUSH32 0x4E487B7100000000000000000000000000000000000000000000000000000000 PUSH1 0x0 MSTORE PUSH1 0x12 PUSH1 0x4 MSTORE PUSH1 0x24 PUSH1 0x0 REVERT JUMPDEST PUSH1 0x0 PUSH2 0x482 DUP3 PUSH2 0x281 JUMP JUMPDEST SWAP2 POP PUSH2 0x48D DUP4 PUSH2 0x281 JUMP JUMPDEST SWAP3 POP DUP3 PUSH2 0x49D JUMPI PUSH2 0x49C PUSH2 0x448 JUMP JUMPDEST JUMPDEST DUP3 DUP3 SMOD SWAP1 POP SWAP3 SWAP2 POP POP JUMP JUMPDEST PUSH32 0x4E487B7100000000000000000000000000000000000000000000000000000000 PUSH1 0x0 MSTORE PUSH1 0x11 PUSH1 0x4 MSTORE PUSH1 0x24 PUSH1 0x0 REVERT JUMPDEST PUSH1 0x0 PUSH2 0x4E2 DUP3 PUSH2 0x281 JUMP JUMPDEST SWAP2 POP PUSH2 0x4ED DUP4 PUSH2 0x281 JUMP JUMPDEST SWAP3 POP DUP3 DUP3 SUB SWAP1 POP DUP2 DUP2 SLT PUSH1 0x0 DUP5 SLT AND DUP3 DUP3 SGT PUSH1 0x0 DUP6 SLT ISZERO AND OR ISZERO PUSH2 0x514 JUMPI PUSH2 0x513 PUSH2 0x4A8 JUMP JUMPDEST JUMPDEST SWAP3 SWAP2 POP POP JUMP JUMPDEST PUSH1 0x0 PUSH2 0x525 DUP3 PUSH2 0x281 JUMP JUMPDEST SWAP2 POP PUSH2 0x530 DUP4 PUSH2 0x281 JUMP JUMPDEST SWAP3 POP DUP3 DUP3 ADD SWAP1 POP DUP3 DUP2 SLT ISZERO PUSH1 0x0 DUP4 SLT AND DUP4 DUP3 SLT PUSH1 0x0 DUP5 SLT ISZERO AND OR ISZERO PUSH2 0x558 JUMPI PUSH2 0x557 PUSH2 0x4A8 JUMP JUMPDEST JUMPDEST SWAP3 SWAP2 POP POP JUMP INVALID LOG2 PUSH5 0x6970667358 0x22 SLT KECCAK256 CALL 0xC5 DUP9 BALANCE AND LOG0 0x22 0xC6 0xCE 0xBE SWAP3 0xA9 EXTCODECOPY 0xCF PUSH28 0xF8E8078B67D1F2DA836F471044AFE3AC2764736F6C63430008100033 "
				},
				"gasEstimates": {
					"creation": {
						"codeDepositCost": "285600",
						"executionCost": "324",
						"totalCost": "285924"
					},
					"external": {
						"average(int256,int256,int256)": "infinite",
						"evaluate(int256,int256)": "infinite",
						"find(int256)": "infinite",
						"getNumber()": "2459",
						"setNumber(uint256)": "22498"
					}
				},
				"methodIdentifiers": {
					"average(int256,int256,int256)": "431547d7",
					"evaluate(int256,int256)": "f8bb49a1",
					"find(int256)": "f4440ea3",
					"getNumber()": "f2c9ecd8",
					"setNumber(uint256)": "3fb5c1cb"
				}
			},
			"storageLayout": {
				"storage": [
					{
						"astId": 3,
						"contract": "contracts/24-Aug-assignment-2.sol:task1",
						"label": "num",
						"offset": 0,
						"slot": "0",
						"type": "t_uint256"
					}
				],
				"types": {
					"t_uint256": {
						"encoding": "inplace",
						"label": "uint256",
						"numberOfBytes": "32"
					}
				}
			},
			"userdoc": {
				"kind": "user",
				"methods": {},
				"version": 1
			}
		}
	}
}