{
	"contracts/assignment-4.sol": {
		"assignment4": {
			"abi": [
				{
					"inputs": [
						{
							"internalType": "uint256",
							"name": "num",
							"type": "uint256"
						}
					],
					"name": "palindrome",
					"outputs": [
						{
							"internalType": "uint256",
							"name": "",
							"type": "uint256"
						}
					],
					"stateMutability": "pure",
					"type": "function"
				},
				{
					"inputs": [
						{
							"internalType": "uint256",
							"name": "x",
							"type": "uint256"
						},
						{
							"internalType": "uint256",
							"name": "y",
							"type": "uint256"
						}
					],
					"name": "power",
					"outputs": [
						{
							"internalType": "uint256",
							"name": "",
							"type": "uint256"
						}
					],
					"stateMutability": "pure",
					"type": "function"
				}
			],
			"devdoc": {
				"kind": "dev",
				"methods": {},
				"version": 1
			},
			"evm": {
				"assembly": "    /* \"contracts/assignment-4.sol\":64:638  contract assignment4... */\n  mstore(0x40, 0x80)\n  callvalue\n  dup1\n  iszero\n  tag_1\n  jumpi\n  0x00\n  dup1\n  revert\ntag_1:\n  pop\n  dataSize(sub_0)\n  dup1\n  dataOffset(sub_0)\n  0x00\n  codecopy\n  0x00\n  return\nstop\n\nsub_0: assembly {\n        /* \"contracts/assignment-4.sol\":64:638  contract assignment4... */\n      mstore(0x40, 0x80)\n      callvalue\n      dup1\n      iszero\n      tag_1\n      jumpi\n      0x00\n      dup1\n      revert\n    tag_1:\n      pop\n      jumpi(tag_2, lt(calldatasize, 0x04))\n      shr(0xe0, calldataload(0x00))\n      dup1\n      0x84aced8c\n      eq\n      tag_3\n      jumpi\n      dup1\n      0xc04f01fc\n      eq\n      tag_4\n      jumpi\n    tag_2:\n      0x00\n      dup1\n      revert\n        /* \"contracts/assignment-4.sol\":270:636  function palindrome(uint num) public pure returns (uint) {... */\n    tag_3:\n      tag_5\n      0x04\n      dup1\n      calldatasize\n      sub\n      dup2\n      add\n      swap1\n      tag_6\n      swap2\n      swap1\n      tag_7\n      jump\t// in\n    tag_6:\n      tag_8\n      jump\t// in\n    tag_5:\n      mload(0x40)\n      tag_9\n      swap2\n      swap1\n      tag_10\n      jump\t// in\n    tag_9:\n      mload(0x40)\n      dup1\n      swap2\n      sub\n      swap1\n      return\n        /* \"contracts/assignment-4.sol\":124:209  function power(uint x, uint y) public pure returns (uint){... */\n    tag_4:\n      tag_11\n      0x04\n      dup1\n      calldatasize\n      sub\n      dup2\n      add\n      swap1\n      tag_12\n      swap2\n      swap1\n      tag_13\n      jump\t// in\n    tag_12:\n      tag_14\n      jump\t// in\n    tag_11:\n      mload(0x40)\n      tag_15\n      swap2\n      swap1\n      tag_10\n      jump\t// in\n    tag_15:\n      mload(0x40)\n      dup1\n      swap2\n      sub\n      swap1\n      return\n        /* \"contracts/assignment-4.sol\":270:636  function palindrome(uint num) public pure returns (uint) {... */\n    tag_8:\n        /* \"contracts/assignment-4.sol\":321:325  uint */\n      0x00\n        /* \"contracts/assignment-4.sol\":337:346  uint temp */\n      dup1\n        /* \"contracts/assignment-4.sol\":349:352  num */\n      dup3\n        /* \"contracts/assignment-4.sol\":337:352  uint temp = num */\n      swap1\n      pop\n        /* \"contracts/assignment-4.sol\":362:374  uint reverse */\n      0x00\n        /* \"contracts/assignment-4.sol\":389:520  while(num > 0) {... */\n    tag_17:\n        /* \"contracts/assignment-4.sol\":401:402  0 */\n      0x00\n        /* \"contracts/assignment-4.sol\":395:398  num */\n      dup5\n        /* \"contracts/assignment-4.sol\":395:402  num > 0 */\n      gt\n        /* \"contracts/assignment-4.sol\":389:520  while(num > 0) {... */\n      iszero\n      tag_18\n      jumpi\n        /* \"contracts/assignment-4.sol\":418:428  uint digit */\n      0x00\n        /* \"contracts/assignment-4.sol\":435:437  10 */\n      0x0a\n        /* \"contracts/assignment-4.sol\":431:434  num */\n      dup6\n        /* \"contracts/assignment-4.sol\":431:437  num%10 */\n      tag_19\n      swap2\n      swap1\n      tag_20\n      jump\t// in\n    tag_19:\n        /* \"contracts/assignment-4.sol\":418:437  uint digit = num%10 */\n      swap1\n      pop\n        /* \"contracts/assignment-4.sol\":476:481  digit */\n      dup1\n        /* \"contracts/assignment-4.sol\":471:473  10 */\n      0x0a\n        /* \"contracts/assignment-4.sol\":461:468  reverse */\n      dup4\n        /* \"contracts/assignment-4.sol\":461:473  reverse * 10 */\n      tag_21\n      swap2\n      swap1\n      tag_22\n      jump\t// in\n    tag_21:\n        /* \"contracts/assignment-4.sol\":461:481  reverse * 10 + digit */\n      tag_23\n      swap2\n      swap1\n      tag_24\n      jump\t// in\n    tag_23:\n        /* \"contracts/assignment-4.sol\":451:481  reverse = reverse * 10 + digit */\n      swap2\n      pop\n        /* \"contracts/assignment-4.sol\":507:509  10 */\n      0x0a\n        /* \"contracts/assignment-4.sol\":501:504  num */\n      dup6\n        /* \"contracts/assignment-4.sol\":501:509  num / 10 */\n      tag_25\n      swap2\n      swap1\n      tag_26\n      jump\t// in\n    tag_25:\n        /* \"contracts/assignment-4.sol\":495:509  num = num / 10 */\n      swap5\n      pop\n        /* \"contracts/assignment-4.sol\":404:520  {... */\n      pop\n        /* \"contracts/assignment-4.sol\":389:520  while(num > 0) {... */\n      jump(tag_17)\n    tag_18:\n        /* \"contracts/assignment-4.sol\":541:548  reverse */\n      dup1\n        /* \"contracts/assignment-4.sol\":533:537  temp */\n      dup3\n        /* \"contracts/assignment-4.sol\":533:548  temp == reverse */\n      sub\n        /* \"contracts/assignment-4.sol\":530:630  if(temp == reverse) {... */\n      tag_27\n      jumpi\n        /* \"contracts/assignment-4.sol\":571:572  1 */\n      0x01\n        /* \"contracts/assignment-4.sol\":564:572  return 1 */\n      swap3\n      pop\n      pop\n      pop\n      jump(tag_16)\n        /* \"contracts/assignment-4.sol\":530:630  if(temp == reverse) {... */\n    tag_27:\n        /* \"contracts/assignment-4.sol\":618:619  0 */\n      0x00\n        /* \"contracts/assignment-4.sol\":611:619  return 0 */\n      swap3\n      pop\n      pop\n      pop\n        /* \"contracts/assignment-4.sol\":270:636  function palindrome(uint num) public pure returns (uint) {... */\n    tag_16:\n      swap2\n      swap1\n      pop\n      jump\t// out\n        /* \"contracts/assignment-4.sol\":124:209  function power(uint x, uint y) public pure returns (uint){... */\n    tag_14:\n        /* \"contracts/assignment-4.sol\":176:180  uint */\n      0x00\n        /* \"contracts/assignment-4.sol\":201:202  y */\n      dup2\n        /* \"contracts/assignment-4.sol\":198:199  x */\n      dup4\n        /* \"contracts/assignment-4.sol\":198:202  x**y */\n      tag_30\n      swap2\n      swap1\n      tag_31\n      jump\t// in\n    tag_30:\n        /* \"contracts/assignment-4.sol\":191:202  return x**y */\n      swap1\n      pop\n        /* \"contracts/assignment-4.sol\":124:209  function power(uint x, uint y) public pure returns (uint){... */\n      swap3\n      swap2\n      pop\n      pop\n      jump\t// out\n        /* \"#utility.yul\":88:205   */\n    tag_33:\n        /* \"#utility.yul\":197:198   */\n      0x00\n        /* \"#utility.yul\":194:195   */\n      dup1\n        /* \"#utility.yul\":187:199   */\n      revert\n        /* \"#utility.yul\":334:411   */\n    tag_35:\n        /* \"#utility.yul\":371:378   */\n      0x00\n        /* \"#utility.yul\":400:405   */\n      dup2\n        /* \"#utility.yul\":389:405   */\n      swap1\n      pop\n        /* \"#utility.yul\":334:411   */\n      swap2\n      swap1\n      pop\n      jump\t// out\n        /* \"#utility.yul\":417:539   */\n    tag_36:\n        /* \"#utility.yul\":490:514   */\n      tag_50\n        /* \"#utility.yul\":508:513   */\n      dup2\n        /* \"#utility.yul\":490:514   */\n      tag_35\n      jump\t// in\n    tag_50:\n        /* \"#utility.yul\":483:488   */\n      dup2\n        /* \"#utility.yul\":480:515   */\n      eq\n        /* \"#utility.yul\":470:533   */\n      tag_51\n      jumpi\n        /* \"#utility.yul\":529:530   */\n      0x00\n        /* \"#utility.yul\":526:527   */\n      dup1\n        /* \"#utility.yul\":519:531   */\n      revert\n        /* \"#utility.yul\":470:533   */\n    tag_51:\n        /* \"#utility.yul\":417:539   */\n      pop\n      jump\t// out\n        /* \"#utility.yul\":545:684   */\n    tag_37:\n        /* \"#utility.yul\":591:596   */\n      0x00\n        /* \"#utility.yul\":629:635   */\n      dup2\n        /* \"#utility.yul\":616:636   */\n      calldataload\n        /* \"#utility.yul\":607:636   */\n      swap1\n      pop\n        /* \"#utility.yul\":645:678   */\n      tag_53\n        /* \"#utility.yul\":672:677   */\n      dup2\n        /* \"#utility.yul\":645:678   */\n      tag_36\n      jump\t// in\n    tag_53:\n        /* \"#utility.yul\":545:684   */\n      swap3\n      swap2\n      pop\n      pop\n      jump\t// out\n        /* \"#utility.yul\":690:1019   */\n    tag_7:\n        /* \"#utility.yul\":749:755   */\n      0x00\n        /* \"#utility.yul\":798:800   */\n      0x20\n        /* \"#utility.yul\":786:795   */\n      dup3\n        /* \"#utility.yul\":777:784   */\n      dup5\n        /* \"#utility.yul\":773:796   */\n      sub\n        /* \"#utility.yul\":769:801   */\n      slt\n        /* \"#utility.yul\":766:885   */\n      iszero\n      tag_55\n      jumpi\n        /* \"#utility.yul\":804:883   */\n      tag_56\n      tag_33\n      jump\t// in\n    tag_56:\n        /* \"#utility.yul\":766:885   */\n    tag_55:\n        /* \"#utility.yul\":924:925   */\n      0x00\n        /* \"#utility.yul\":949:1002   */\n      tag_57\n        /* \"#utility.yul\":994:1001   */\n      dup5\n        /* \"#utility.yul\":985:991   */\n      dup3\n        /* \"#utility.yul\":974:983   */\n      dup6\n        /* \"#utility.yul\":970:992   */\n      add\n        /* \"#utility.yul\":949:1002   */\n      tag_37\n      jump\t// in\n    tag_57:\n        /* \"#utility.yul\":939:1002   */\n      swap2\n      pop\n        /* \"#utility.yul\":895:1012   */\n      pop\n        /* \"#utility.yul\":690:1019   */\n      swap3\n      swap2\n      pop\n      pop\n      jump\t// out\n        /* \"#utility.yul\":1025:1143   */\n    tag_38:\n        /* \"#utility.yul\":1112:1136   */\n      tag_59\n        /* \"#utility.yul\":1130:1135   */\n      dup2\n        /* \"#utility.yul\":1112:1136   */\n      tag_35\n      jump\t// in\n    tag_59:\n        /* \"#utility.yul\":1107:1110   */\n      dup3\n        /* \"#utility.yul\":1100:1137   */\n      mstore\n        /* \"#utility.yul\":1025:1143   */\n      pop\n      pop\n      jump\t// out\n        /* \"#utility.yul\":1149:1371   */\n    tag_10:\n        /* \"#utility.yul\":1242:1246   */\n      0x00\n        /* \"#utility.yul\":1280:1282   */\n      0x20\n        /* \"#utility.yul\":1269:1278   */\n      dup3\n        /* \"#utility.yul\":1265:1283   */\n      add\n        /* \"#utility.yul\":1257:1283   */\n      swap1\n      pop\n        /* \"#utility.yul\":1293:1364   */\n      tag_61\n        /* \"#utility.yul\":1361:1362   */\n      0x00\n        /* \"#utility.yul\":1350:1359   */\n      dup4\n        /* \"#utility.yul\":1346:1363   */\n      add\n        /* \"#utility.yul\":1337:1343   */\n      dup5\n        /* \"#utility.yul\":1293:1364   */\n      tag_38\n      jump\t// in\n    tag_61:\n        /* \"#utility.yul\":1149:1371   */\n      swap3\n      swap2\n      pop\n      pop\n      jump\t// out\n        /* \"#utility.yul\":1377:1851   */\n    tag_13:\n        /* \"#utility.yul\":1445:1451   */\n      0x00\n        /* \"#utility.yul\":1453:1459   */\n      dup1\n        /* \"#utility.yul\":1502:1504   */\n      0x40\n        /* \"#utility.yul\":1490:1499   */\n      dup4\n        /* \"#utility.yul\":1481:1488   */\n      dup6\n        /* \"#utility.yul\":1477:1500   */\n      sub\n        /* \"#utility.yul\":1473:1505   */\n      slt\n        /* \"#utility.yul\":1470:1589   */\n      iszero\n      tag_63\n      jumpi\n        /* \"#utility.yul\":1508:1587   */\n      tag_64\n      tag_33\n      jump\t// in\n    tag_64:\n        /* \"#utility.yul\":1470:1589   */\n    tag_63:\n        /* \"#utility.yul\":1628:1629   */\n      0x00\n        /* \"#utility.yul\":1653:1706   */\n      tag_65\n        /* \"#utility.yul\":1698:1705   */\n      dup6\n        /* \"#utility.yul\":1689:1695   */\n      dup3\n        /* \"#utility.yul\":1678:1687   */\n      dup7\n        /* \"#utility.yul\":1674:1696   */\n      add\n        /* \"#utility.yul\":1653:1706   */\n      tag_37\n      jump\t// in\n    tag_65:\n        /* \"#utility.yul\":1643:1706   */\n      swap3\n      pop\n        /* \"#utility.yul\":1599:1716   */\n      pop\n        /* \"#utility.yul\":1755:1757   */\n      0x20\n        /* \"#utility.yul\":1781:1834   */\n      tag_66\n        /* \"#utility.yul\":1826:1833   */\n      dup6\n        /* \"#utility.yul\":1817:1823   */\n      dup3\n        /* \"#utility.yul\":1806:1815   */\n      dup7\n        /* \"#utility.yul\":1802:1824   */\n      add\n        /* \"#utility.yul\":1781:1834   */\n      tag_37\n      jump\t// in\n    tag_66:\n        /* \"#utility.yul\":1771:1834   */\n      swap2\n      pop\n        /* \"#utility.yul\":1726:1844   */\n      pop\n        /* \"#utility.yul\":1377:1851   */\n      swap3\n      pop\n      swap3\n      swap1\n      pop\n      jump\t// out\n        /* \"#utility.yul\":1857:2037   */\n    tag_39:\n        /* \"#utility.yul\":1905:1982   */\n      0x4e487b7100000000000000000000000000000000000000000000000000000000\n        /* \"#utility.yul\":1902:1903   */\n      0x00\n        /* \"#utility.yul\":1895:1983   */\n      mstore\n        /* \"#utility.yul\":2002:2006   */\n      0x12\n        /* \"#utility.yul\":1999:2000   */\n      0x04\n        /* \"#utility.yul\":1992:2007   */\n      mstore\n        /* \"#utility.yul\":2026:2030   */\n      0x24\n        /* \"#utility.yul\":2023:2024   */\n      0x00\n        /* \"#utility.yul\":2016:2031   */\n      revert\n        /* \"#utility.yul\":2043:2219   */\n    tag_20:\n        /* \"#utility.yul\":2075:2076   */\n      0x00\n        /* \"#utility.yul\":2092:2112   */\n      tag_69\n        /* \"#utility.yul\":2110:2111   */\n      dup3\n        /* \"#utility.yul\":2092:2112   */\n      tag_35\n      jump\t// in\n    tag_69:\n        /* \"#utility.yul\":2087:2112   */\n      swap2\n      pop\n        /* \"#utility.yul\":2126:2146   */\n      tag_70\n        /* \"#utility.yul\":2144:2145   */\n      dup4\n        /* \"#utility.yul\":2126:2146   */\n      tag_35\n      jump\t// in\n    tag_70:\n        /* \"#utility.yul\":2121:2146   */\n      swap3\n      pop\n        /* \"#utility.yul\":2165:2166   */\n      dup3\n        /* \"#utility.yul\":2155:2190   */\n      tag_71\n      jumpi\n        /* \"#utility.yul\":2170:2188   */\n      tag_72\n      tag_39\n      jump\t// in\n    tag_72:\n        /* \"#utility.yul\":2155:2190   */\n    tag_71:\n        /* \"#utility.yul\":2211:2212   */\n      dup3\n        /* \"#utility.yul\":2208:2209   */\n      dup3\n        /* \"#utility.yul\":2204:2213   */\n      mod\n        /* \"#utility.yul\":2199:2213   */\n      swap1\n      pop\n        /* \"#utility.yul\":2043:2219   */\n      swap3\n      swap2\n      pop\n      pop\n      jump\t// out\n        /* \"#utility.yul\":2225:2405   */\n    tag_40:\n        /* \"#utility.yul\":2273:2350   */\n      0x4e487b7100000000000000000000000000000000000000000000000000000000\n        /* \"#utility.yul\":2270:2271   */\n      0x00\n        /* \"#utility.yul\":2263:2351   */\n      mstore\n        /* \"#utility.yul\":2370:2374   */\n      0x11\n        /* \"#utility.yul\":2367:2368   */\n      0x04\n        /* \"#utility.yul\":2360:2375   */\n      mstore\n        /* \"#utility.yul\":2394:2398   */\n      0x24\n        /* \"#utility.yul\":2391:2392   */\n      0x00\n        /* \"#utility.yul\":2384:2399   */\n      revert\n        /* \"#utility.yul\":2411:2759   */\n    tag_22:\n        /* \"#utility.yul\":2451:2458   */\n      0x00\n        /* \"#utility.yul\":2474:2494   */\n      tag_75\n        /* \"#utility.yul\":2492:2493   */\n      dup3\n        /* \"#utility.yul\":2474:2494   */\n      tag_35\n      jump\t// in\n    tag_75:\n        /* \"#utility.yul\":2469:2494   */\n      swap2\n      pop\n        /* \"#utility.yul\":2508:2528   */\n      tag_76\n        /* \"#utility.yul\":2526:2527   */\n      dup4\n        /* \"#utility.yul\":2508:2528   */\n      tag_35\n      jump\t// in\n    tag_76:\n        /* \"#utility.yul\":2503:2528   */\n      swap3\n      pop\n        /* \"#utility.yul\":2696:2697   */\n      dup2\n        /* \"#utility.yul\":2628:2694   */\n      0xffffffffffffffffffffffffffffffffffffffffffffffffffffffffffffffff\n        /* \"#utility.yul\":2624:2698   */\n      div\n        /* \"#utility.yul\":2621:2622   */\n      dup4\n        /* \"#utility.yul\":2618:2699   */\n      gt\n        /* \"#utility.yul\":2613:2614   */\n      dup3\n        /* \"#utility.yul\":2606:2615   */\n      iszero\n        /* \"#utility.yul\":2599:2616   */\n      iszero\n        /* \"#utility.yul\":2595:2700   */\n      and\n        /* \"#utility.yul\":2592:2723   */\n      iszero\n      tag_77\n      jumpi\n        /* \"#utility.yul\":2703:2721   */\n      tag_78\n      tag_40\n      jump\t// in\n    tag_78:\n        /* \"#utility.yul\":2592:2723   */\n    tag_77:\n        /* \"#utility.yul\":2751:2752   */\n      dup3\n        /* \"#utility.yul\":2748:2749   */\n      dup3\n        /* \"#utility.yul\":2744:2753   */\n      mul\n        /* \"#utility.yul\":2733:2753   */\n      swap1\n      pop\n        /* \"#utility.yul\":2411:2759   */\n      swap3\n      swap2\n      pop\n      pop\n      jump\t// out\n        /* \"#utility.yul\":2765:2956   */\n    tag_24:\n        /* \"#utility.yul\":2805:2808   */\n      0x00\n        /* \"#utility.yul\":2824:2844   */\n      tag_80\n        /* \"#utility.yul\":2842:2843   */\n      dup3\n        /* \"#utility.yul\":2824:2844   */\n      tag_35\n      jump\t// in\n    tag_80:\n        /* \"#utility.yul\":2819:2844   */\n      swap2\n      pop\n        /* \"#utility.yul\":2858:2878   */\n      tag_81\n        /* \"#utility.yul\":2876:2877   */\n      dup4\n        /* \"#utility.yul\":2858:2878   */\n      tag_35\n      jump\t// in\n    tag_81:\n        /* \"#utility.yul\":2853:2878   */\n      swap3\n      pop\n        /* \"#utility.yul\":2901:2902   */\n      dup3\n        /* \"#utility.yul\":2898:2899   */\n      dup3\n        /* \"#utility.yul\":2894:2903   */\n      add\n        /* \"#utility.yul\":2887:2903   */\n      swap1\n      pop\n        /* \"#utility.yul\":2922:2925   */\n      dup1\n        /* \"#utility.yul\":2919:2920   */\n      dup3\n        /* \"#utility.yul\":2916:2926   */\n      gt\n        /* \"#utility.yul\":2913:2949   */\n      iszero\n      tag_82\n      jumpi\n        /* \"#utility.yul\":2929:2947   */\n      tag_83\n      tag_40\n      jump\t// in\n    tag_83:\n        /* \"#utility.yul\":2913:2949   */\n    tag_82:\n        /* \"#utility.yul\":2765:2956   */\n      swap3\n      swap2\n      pop\n      pop\n      jump\t// out\n        /* \"#utility.yul\":2962:3147   */\n    tag_26:\n        /* \"#utility.yul\":3002:3003   */\n      0x00\n        /* \"#utility.yul\":3019:3039   */\n      tag_85\n        /* \"#utility.yul\":3037:3038   */\n      dup3\n        /* \"#utility.yul\":3019:3039   */\n      tag_35\n      jump\t// in\n    tag_85:\n        /* \"#utility.yul\":3014:3039   */\n      swap2\n      pop\n        /* \"#utility.yul\":3053:3073   */\n      tag_86\n        /* \"#utility.yul\":3071:3072   */\n      dup4\n        /* \"#utility.yul\":3053:3073   */\n      tag_35\n      jump\t// in\n    tag_86:\n        /* \"#utility.yul\":3048:3073   */\n      swap3\n      pop\n        /* \"#utility.yul\":3092:3093   */\n      dup3\n        /* \"#utility.yul\":3082:3117   */\n      tag_87\n      jumpi\n        /* \"#utility.yul\":3097:3115   */\n      tag_88\n      tag_39\n      jump\t// in\n    tag_88:\n        /* \"#utility.yul\":3082:3117   */\n    tag_87:\n        /* \"#utility.yul\":3139:3140   */\n      dup3\n        /* \"#utility.yul\":3136:3137   */\n      dup3\n        /* \"#utility.yul\":3132:3141   */\n      div\n        /* \"#utility.yul\":3127:3141   */\n      swap1\n      pop\n        /* \"#utility.yul\":2962:3147   */\n      swap3\n      swap2\n      pop\n      pop\n      jump\t// out\n        /* \"#utility.yul\":3153:3255   */\n    tag_41:\n        /* \"#utility.yul\":3195:3203   */\n      0x00\n        /* \"#utility.yul\":3242:3247   */\n      dup2\n        /* \"#utility.yul\":3239:3240   */\n      0x01\n        /* \"#utility.yul\":3235:3248   */\n      shr\n        /* \"#utility.yul\":3214:3248   */\n      swap1\n      pop\n        /* \"#utility.yul\":3153:3255   */\n      swap2\n      swap1\n      pop\n      jump\t// out\n        /* \"#utility.yul\":3261:4109   */\n    tag_42:\n        /* \"#utility.yul\":3322:3327   */\n      0x00\n        /* \"#utility.yul\":3329:3333   */\n      dup1\n        /* \"#utility.yul\":3353:3359   */\n      dup3\n        /* \"#utility.yul\":3344:3359   */\n      swap2\n      pop\n        /* \"#utility.yul\":3377:3382   */\n      dup4\n        /* \"#utility.yul\":3368:3382   */\n      swap1\n      pop\n        /* \"#utility.yul\":3391:4103   */\n    tag_91:\n        /* \"#utility.yul\":3412:3413   */\n      0x01\n        /* \"#utility.yul\":3402:3410   */\n      dup6\n        /* \"#utility.yul\":3399:3414   */\n      gt\n        /* \"#utility.yul\":3391:4103   */\n      iszero\n      tag_93\n      jumpi\n        /* \"#utility.yul\":3507:3511   */\n      dup1\n        /* \"#utility.yul\":3502:3505   */\n      dup7\n        /* \"#utility.yul\":3498:3512   */\n      div\n        /* \"#utility.yul\":3492:3496   */\n      dup2\n        /* \"#utility.yul\":3489:3513   */\n      gt\n        /* \"#utility.yul\":3486:3536   */\n      iszero\n      tag_94\n      jumpi\n        /* \"#utility.yul\":3516:3534   */\n      tag_95\n      tag_40\n      jump\t// in\n    tag_95:\n        /* \"#utility.yul\":3486:3536   */\n    tag_94:\n        /* \"#utility.yul\":3566:3567   */\n      0x01\n        /* \"#utility.yul\":3556:3564   */\n      dup6\n        /* \"#utility.yul\":3552:3568   */\n      and\n        /* \"#utility.yul\":3549:4000   */\n      iszero\n      tag_96\n      jumpi\n        /* \"#utility.yul\":3981:3985   */\n      dup1\n        /* \"#utility.yul\":3974:3979   */\n      dup3\n        /* \"#utility.yul\":3970:3986   */\n      mul\n        /* \"#utility.yul\":3961:3986   */\n      swap2\n      pop\n        /* \"#utility.yul\":3549:4000   */\n    tag_96:\n        /* \"#utility.yul\":4031:4035   */\n      dup1\n        /* \"#utility.yul\":4025:4029   */\n      dup2\n        /* \"#utility.yul\":4021:4036   */\n      mul\n        /* \"#utility.yul\":4013:4036   */\n      swap1\n      pop\n        /* \"#utility.yul\":4061:4093   */\n      tag_97\n        /* \"#utility.yul\":4084:4092   */\n      dup6\n        /* \"#utility.yul\":4061:4093   */\n      tag_41\n      jump\t// in\n    tag_97:\n        /* \"#utility.yul\":4049:4093   */\n      swap5\n      pop\n        /* \"#utility.yul\":3391:4103   */\n      jump(tag_91)\n    tag_93:\n        /* \"#utility.yul\":3261:4109   */\n      swap5\n      pop\n      swap5\n      swap3\n      pop\n      pop\n      pop\n      jump\t// out\n        /* \"#utility.yul\":4115:5188   */\n    tag_43:\n        /* \"#utility.yul\":4169:4174   */\n      0x00\n        /* \"#utility.yul\":4360:4368   */\n      dup3\n        /* \"#utility.yul\":4350:4390   */\n      tag_99\n      jumpi\n        /* \"#utility.yul\":4381:4382   */\n      0x01\n        /* \"#utility.yul\":4372:4382   */\n      swap1\n      pop\n        /* \"#utility.yul\":4383:4388   */\n      jump(tag_98)\n        /* \"#utility.yul\":4350:4390   */\n    tag_99:\n        /* \"#utility.yul\":4409:4413   */\n      dup2\n        /* \"#utility.yul\":4399:4435   */\n      tag_100\n      jumpi\n        /* \"#utility.yul\":4426:4427   */\n      0x00\n        /* \"#utility.yul\":4417:4427   */\n      swap1\n      pop\n        /* \"#utility.yul\":4428:4433   */\n      jump(tag_98)\n        /* \"#utility.yul\":4399:4435   */\n    tag_100:\n        /* \"#utility.yul\":4495:4499   */\n      dup2\n        /* \"#utility.yul\":4543:4544   */\n      0x01\n        /* \"#utility.yul\":4538:4565   */\n      dup2\n      eq\n      tag_102\n      jumpi\n        /* \"#utility.yul\":4579:4580   */\n      0x02\n        /* \"#utility.yul\":4574:4765   */\n      dup2\n      eq\n      tag_103\n      jumpi\n        /* \"#utility.yul\":4488:4765   */\n      jump(tag_101)\n        /* \"#utility.yul\":4538:4565   */\n    tag_102:\n        /* \"#utility.yul\":4556:4557   */\n      0x01\n        /* \"#utility.yul\":4547:4557   */\n      swap2\n      pop\n        /* \"#utility.yul\":4558:4563   */\n      pop\n      jump(tag_98)\n        /* \"#utility.yul\":4574:4765   */\n    tag_103:\n        /* \"#utility.yul\":4619:4622   */\n      0xff\n        /* \"#utility.yul\":4609:4617   */\n      dup5\n        /* \"#utility.yul\":4606:4623   */\n      gt\n        /* \"#utility.yul\":4603:4646   */\n      iszero\n      tag_104\n      jumpi\n        /* \"#utility.yul\":4626:4644   */\n      tag_105\n      tag_40\n      jump\t// in\n    tag_105:\n        /* \"#utility.yul\":4603:4646   */\n    tag_104:\n        /* \"#utility.yul\":4675:4683   */\n      dup4\n        /* \"#utility.yul\":4672:4673   */\n      0x02\n        /* \"#utility.yul\":4668:4684   */\n      exp\n        /* \"#utility.yul\":4659:4684   */\n      swap2\n      pop\n        /* \"#utility.yul\":4710:4713   */\n      dup5\n        /* \"#utility.yul\":4703:4708   */\n      dup3\n        /* \"#utility.yul\":4700:4714   */\n      gt\n        /* \"#utility.yul\":4697:4737   */\n      iszero\n      tag_106\n      jumpi\n        /* \"#utility.yul\":4717:4735   */\n      tag_107\n      tag_40\n      jump\t// in\n    tag_107:\n        /* \"#utility.yul\":4697:4737   */\n    tag_106:\n        /* \"#utility.yul\":4750:4755   */\n      pop\n      jump(tag_98)\n        /* \"#utility.yul\":4488:4765   */\n    tag_101:\n      pop\n        /* \"#utility.yul\":4874:4876   */\n      0x20\n        /* \"#utility.yul\":4864:4872   */\n      dup4\n        /* \"#utility.yul\":4861:4877   */\n      lt\n        /* \"#utility.yul\":4855:4858   */\n      0x0133\n        /* \"#utility.yul\":4849:4853   */\n      dup4\n        /* \"#utility.yul\":4846:4859   */\n      lt\n        /* \"#utility.yul\":4842:4878   */\n      and\n        /* \"#utility.yul\":4824:4826   */\n      0x4e\n        /* \"#utility.yul\":4814:4822   */\n      dup5\n        /* \"#utility.yul\":4811:4827   */\n      lt\n        /* \"#utility.yul\":4806:4808   */\n      0x0b\n        /* \"#utility.yul\":4800:4804   */\n      dup5\n        /* \"#utility.yul\":4797:4809   */\n      lt\n        /* \"#utility.yul\":4793:4828   */\n      and\n        /* \"#utility.yul\":4777:4888   */\n      or\n        /* \"#utility.yul\":4774:5020   */\n      iszero\n      tag_108\n      jumpi\n        /* \"#utility.yul\":4930:4938   */\n      dup3\n        /* \"#utility.yul\":4924:4928   */\n      dup3\n        /* \"#utility.yul\":4920:4939   */\n      exp\n        /* \"#utility.yul\":4911:4939   */\n      swap1\n      pop\n        /* \"#utility.yul\":4965:4968   */\n      dup4\n        /* \"#utility.yul\":4958:4963   */\n      dup2\n        /* \"#utility.yul\":4955:4969   */\n      gt\n        /* \"#utility.yul\":4952:4992   */\n      iszero\n      tag_109\n      jumpi\n        /* \"#utility.yul\":4972:4990   */\n      tag_110\n      tag_40\n      jump\t// in\n    tag_110:\n        /* \"#utility.yul\":4952:4992   */\n    tag_109:\n        /* \"#utility.yul\":5005:5010   */\n      jump(tag_98)\n        /* \"#utility.yul\":4774:5020   */\n    tag_108:\n        /* \"#utility.yul\":5045:5087   */\n      tag_111\n        /* \"#utility.yul\":5083:5086   */\n      dup5\n        /* \"#utility.yul\":5073:5081   */\n      dup5\n        /* \"#utility.yul\":5067:5071   */\n      dup5\n        /* \"#utility.yul\":5064:5065   */\n      0x01\n        /* \"#utility.yul\":5045:5087   */\n      tag_42\n      jump\t// in\n    tag_111:\n        /* \"#utility.yul\":5030:5087   */\n      swap3\n      pop\n      swap1\n      pop\n        /* \"#utility.yul\":5119:5123   */\n      dup2\n        /* \"#utility.yul\":5114:5117   */\n      dup5\n        /* \"#utility.yul\":5110:5124   */\n      div\n        /* \"#utility.yul\":5103:5108   */\n      dup2\n        /* \"#utility.yul\":5100:5125   */\n      gt\n        /* \"#utility.yul\":5097:5148   */\n      iszero\n      tag_112\n      jumpi\n        /* \"#utility.yul\":5128:5146   */\n      tag_113\n      tag_40\n      jump\t// in\n    tag_113:\n        /* \"#utility.yul\":5097:5148   */\n    tag_112:\n        /* \"#utility.yul\":5177:5181   */\n      dup2\n        /* \"#utility.yul\":5170:5175   */\n      dup2\n        /* \"#utility.yul\":5166:5182   */\n      mul\n        /* \"#utility.yul\":5157:5182   */\n      swap1\n      pop\n        /* \"#utility.yul\":4115:5188   */\n    tag_98:\n      swap4\n      swap3\n      pop\n      pop\n      pop\n      jump\t// out\n        /* \"#utility.yul\":5194:5479   */\n    tag_31:\n        /* \"#utility.yul\":5254:5259   */\n      0x00\n        /* \"#utility.yul\":5278:5301   */\n      tag_115\n        /* \"#utility.yul\":5296:5300   */\n      dup3\n        /* \"#utility.yul\":5278:5301   */\n      tag_35\n      jump\t// in\n    tag_115:\n        /* \"#utility.yul\":5270:5301   */\n      swap2\n      pop\n        /* \"#utility.yul\":5322:5349   */\n      tag_116\n        /* \"#utility.yul\":5340:5348   */\n      dup4\n        /* \"#utility.yul\":5322:5349   */\n      tag_35\n      jump\t// in\n    tag_116:\n        /* \"#utility.yul\":5310:5349   */\n      swap3\n      pop\n        /* \"#utility.yul\":5368:5472   */\n      tag_117\n        /* \"#utility.yul\":5405:5471   */\n      0xffffffffffffffffffffffffffffffffffffffffffffffffffffffffffffffff\n        /* \"#utility.yul\":5395:5403   */\n      dup5\n        /* \"#utility.yul\":5389:5393   */\n      dup5\n        /* \"#utility.yul\":5368:5472   */\n      tag_43\n      jump\t// in\n    tag_117:\n        /* \"#utility.yul\":5359:5472   */\n      swap1\n      pop\n        /* \"#utility.yul\":5194:5479   */\n      swap3\n      swap2\n      pop\n      pop\n      jump\t// out\n\n    auxdata: 0xa26469706673582212209208db4dde51b5d495d4c03c80506ed4ea66b9ab853ec6eb576211e17440153864736f6c63430008100033\n}\n",
				"bytecode": {
					"linkReferences": {},
					"object": "608060405234801561001057600080fd5b506104f5806100206000396000f3fe608060405234801561001057600080fd5b50600436106100365760003560e01c806384aced8c1461003b578063c04f01fc1461006b575b600080fd5b6100556004803603810190610050919061015c565b61009b565b6040516100629190610198565b60405180910390f35b610085600480360381019061008091906101b3565b61010b565b6040516100929190610198565b60405180910390f35b60008082905060005b60008411156100ed576000600a856100bc9190610222565b905080600a836100cc9190610282565b6100d691906102dc565b9150600a856100e59190610310565b9450506100a4565b8082036100ff57600192505050610106565b6000925050505b919050565b600081836101199190610474565b905092915050565b600080fd5b6000819050919050565b61013981610126565b811461014457600080fd5b50565b60008135905061015681610130565b92915050565b60006020828403121561017257610171610121565b5b600061018084828501610147565b91505092915050565b61019281610126565b82525050565b60006020820190506101ad6000830184610189565b92915050565b600080604083850312156101ca576101c9610121565b5b60006101d885828601610147565b92505060206101e985828601610147565b9150509250929050565b7f4e487b7100000000000000000000000000000000000000000000000000000000600052601260045260246000fd5b600061022d82610126565b915061023883610126565b925082610248576102476101f3565b5b828206905092915050565b7f4e487b7100000000000000000000000000000000000000000000000000000000600052601160045260246000fd5b600061028d82610126565b915061029883610126565b9250817fffffffffffffffffffffffffffffffffffffffffffffffffffffffffffffffff04831182151516156102d1576102d0610253565b5b828202905092915050565b60006102e782610126565b91506102f283610126565b925082820190508082111561030a57610309610253565b5b92915050565b600061031b82610126565b915061032683610126565b925082610336576103356101f3565b5b828204905092915050565b60008160011c9050919050565b6000808291508390505b60018511156103985780860481111561037457610373610253565b5b60018516156103835780820291505b808102905061039185610341565b9450610358565b94509492505050565b6000826103b1576001905061046d565b816103bf576000905061046d565b81600181146103d557600281146103df5761040e565b600191505061046d565b60ff8411156103f1576103f0610253565b5b8360020a91508482111561040857610407610253565b5b5061046d565b5060208310610133831016604e8410600b84101617156104435782820a90508381111561043e5761043d610253565b5b61046d565b610450848484600161034e565b9250905081840481111561046757610466610253565b5b81810290505b9392505050565b600061047f82610126565b915061048a83610126565b92506104b77fffffffffffffffffffffffffffffffffffffffffffffffffffffffffffffffff84846103a1565b90509291505056fea26469706673582212209208db4dde51b5d495d4c03c80506ed4ea66b9ab853ec6eb576211e17440153864736f6c63430008100033",
					"opcodes": "PUSH1 0x80 PUSH1 0x40 MSTORE CALLVALUE DUP1 ISZERO PUSH2 0x10 JUMPI PUSH1 0x0 DUP1 REVERT JUMPDEST POP PUSH2 0x4F5 DUP1 PUSH2 0x20 PUSH1 0x0 CODECOPY PUSH1 0x0 RETURN INVALID PUSH1 0x80 PUSH1 0x40 MSTORE CALLVALUE DUP1 ISZERO PUSH2 0x10 JUMPI PUSH1 0x0 DUP1 REVERT JUMPDEST POP PUSH1 0x4 CALLDATASIZE LT PUSH2 0x36 JUMPI PUSH1 0x0 CALLDATALOAD PUSH1 0xE0 SHR DUP1 PUSH4 0x84ACED8C EQ PUSH2 0x3B JUMPI DUP1 PUSH4 0xC04F01FC EQ PUSH2 0x6B JUMPI JUMPDEST PUSH1 0x0 DUP1 REVERT JUMPDEST PUSH2 0x55 PUSH1 0x4 DUP1 CALLDATASIZE SUB DUP2 ADD SWAP1 PUSH2 0x50 SWAP2 SWAP1 PUSH2 0x15C JUMP JUMPDEST PUSH2 0x9B JUMP JUMPDEST PUSH1 0x40 MLOAD PUSH2 0x62 SWAP2 SWAP1 PUSH2 0x198 JUMP JUMPDEST PUSH1 0x40 MLOAD DUP1 SWAP2 SUB SWAP1 RETURN JUMPDEST PUSH2 0x85 PUSH1 0x4 DUP1 CALLDATASIZE SUB DUP2 ADD SWAP1 PUSH2 0x80 SWAP2 SWAP1 PUSH2 0x1B3 JUMP JUMPDEST PUSH2 0x10B JUMP JUMPDEST PUSH1 0x40 MLOAD PUSH2 0x92 SWAP2 SWAP1 PUSH2 0x198 JUMP JUMPDEST PUSH1 0x40 MLOAD DUP1 SWAP2 SUB SWAP1 RETURN JUMPDEST PUSH1 0x0 DUP1 DUP3 SWAP1 POP PUSH1 0x0 JUMPDEST PUSH1 0x0 DUP5 GT ISZERO PUSH2 0xED JUMPI PUSH1 0x0 PUSH1 0xA DUP6 PUSH2 0xBC SWAP2 SWAP1 PUSH2 0x222 JUMP JUMPDEST SWAP1 POP DUP1 PUSH1 0xA DUP4 PUSH2 0xCC SWAP2 SWAP1 PUSH2 0x282 JUMP JUMPDEST PUSH2 0xD6 SWAP2 SWAP1 PUSH2 0x2DC JUMP JUMPDEST SWAP2 POP PUSH1 0xA DUP6 PUSH2 0xE5 SWAP2 SWAP1 PUSH2 0x310 JUMP JUMPDEST SWAP5 POP POP PUSH2 0xA4 JUMP JUMPDEST DUP1 DUP3 SUB PUSH2 0xFF JUMPI PUSH1 0x1 SWAP3 POP POP POP PUSH2 0x106 JUMP JUMPDEST PUSH1 0x0 SWAP3 POP POP POP JUMPDEST SWAP2 SWAP1 POP JUMP JUMPDEST PUSH1 0x0 DUP2 DUP4 PUSH2 0x119 SWAP2 SWAP1 PUSH2 0x474 JUMP JUMPDEST SWAP1 POP SWAP3 SWAP2 POP POP JUMP JUMPDEST PUSH1 0x0 DUP1 REVERT JUMPDEST PUSH1 0x0 DUP2 SWAP1 POP SWAP2 SWAP1 POP JUMP JUMPDEST PUSH2 0x139 DUP2 PUSH2 0x126 JUMP JUMPDEST DUP2 EQ PUSH2 0x144 JUMPI PUSH1 0x0 DUP1 REVERT JUMPDEST POP JUMP JUMPDEST PUSH1 0x0 DUP2 CALLDATALOAD SWAP1 POP PUSH2 0x156 DUP2 PUSH2 0x130 JUMP JUMPDEST SWAP3 SWAP2 POP POP JUMP JUMPDEST PUSH1 0x0 PUSH1 0x20 DUP3 DUP5 SUB SLT ISZERO PUSH2 0x172 JUMPI PUSH2 0x171 PUSH2 0x121 JUMP JUMPDEST JUMPDEST PUSH1 0x0 PUSH2 0x180 DUP5 DUP3 DUP6 ADD PUSH2 0x147 JUMP JUMPDEST SWAP2 POP POP SWAP3 SWAP2 POP POP JUMP JUMPDEST PUSH2 0x192 DUP2 PUSH2 0x126 JUMP JUMPDEST DUP3 MSTORE POP POP JUMP JUMPDEST PUSH1 0x0 PUSH1 0x20 DUP3 ADD SWAP1 POP PUSH2 0x1AD PUSH1 0x0 DUP4 ADD DUP5 PUSH2 0x189 JUMP JUMPDEST SWAP3 SWAP2 POP POP JUMP JUMPDEST PUSH1 0x0 DUP1 PUSH1 0x40 DUP4 DUP6 SUB SLT ISZERO PUSH2 0x1CA JUMPI PUSH2 0x1C9 PUSH2 0x121 JUMP JUMPDEST JUMPDEST PUSH1 0x0 PUSH2 0x1D8 DUP6 DUP3 DUP7 ADD PUSH2 0x147 JUMP JUMPDEST SWAP3 POP POP PUSH1 0x20 PUSH2 0x1E9 DUP6 DUP3 DUP7 ADD PUSH2 0x147 JUMP JUMPDEST SWAP2 POP POP SWAP3 POP SWAP3 SWAP1 POP JUMP JUMPDEST PUSH32 0x4E487B7100000000000000000000000000000000000000000000000000000000 PUSH1 0x0 MSTORE PUSH1 0x12 PUSH1 0x4 MSTORE PUSH1 0x24 PUSH1 0x0 REVERT JUMPDEST PUSH1 0x0 PUSH2 0x22D DUP3 PUSH2 0x126 JUMP JUMPDEST SWAP2 POP PUSH2 0x238 DUP4 PUSH2 0x126 JUMP JUMPDEST SWAP3 POP DUP3 PUSH2 0x248 JUMPI PUSH2 0x247 PUSH2 0x1F3 JUMP JUMPDEST JUMPDEST DUP3 DUP3 MOD SWAP1 POP SWAP3 SWAP2 POP POP JUMP JUMPDEST PUSH32 0x4E487B7100000000000000000000000000000000000000000000000000000000 PUSH1 0x0 MSTORE PUSH1 0x11 PUSH1 0x4 MSTORE PUSH1 0x24 PUSH1 0x0 REVERT JUMPDEST PUSH1 0x0 PUSH2 0x28D DUP3 PUSH2 0x126 JUMP JUMPDEST SWAP2 POP PUSH2 0x298 DUP4 PUSH2 0x126 JUMP JUMPDEST SWAP3 POP DUP2 PUSH32 0xFFFFFFFFFFFFFFFFFFFFFFFFFFFFFFFFFFFFFFFFFFFFFFFFFFFFFFFFFFFFFFFF DIV DUP4 GT DUP3 ISZERO ISZERO AND ISZERO PUSH2 0x2D1 JUMPI PUSH2 0x2D0 PUSH2 0x253 JUMP JUMPDEST JUMPDEST DUP3 DUP3 MUL SWAP1 POP SWAP3 SWAP2 POP POP JUMP JUMPDEST PUSH1 0x0 PUSH2 0x2E7 DUP3 PUSH2 0x126 JUMP JUMPDEST SWAP2 POP PUSH2 0x2F2 DUP4 PUSH2 0x126 JUMP JUMPDEST SWAP3 POP DUP3 DUP3 ADD SWAP1 POP DUP1 DUP3 GT ISZERO PUSH2 0x30A JUMPI PUSH2 0x309 PUSH2 0x253 JUMP JUMPDEST JUMPDEST SWAP3 SWAP2 POP POP JUMP JUMPDEST PUSH1 0x0 PUSH2 0x31B DUP3 PUSH2 0x126 JUMP JUMPDEST SWAP2 POP PUSH2 0x326 DUP4 PUSH2 0x126 JUMP JUMPDEST SWAP3 POP DUP3 PUSH2 0x336 JUMPI PUSH2 0x335 PUSH2 0x1F3 JUMP JUMPDEST JUMPDEST DUP3 DUP3 DIV SWAP1 POP SWAP3 SWAP2 POP POP JUMP JUMPDEST PUSH1 0x0 DUP2 PUSH1 0x1 SHR SWAP1 POP SWAP2 SWAP1 POP JUMP JUMPDEST PUSH1 0x0 DUP1 DUP3 SWAP2 POP DUP4 SWAP1 POP JUMPDEST PUSH1 0x1 DUP6 GT ISZERO PUSH2 0x398 JUMPI DUP1 DUP7 DIV DUP2 GT ISZERO PUSH2 0x374 JUMPI PUSH2 0x373 PUSH2 0x253 JUMP JUMPDEST JUMPDEST PUSH1 0x1 DUP6 AND ISZERO PUSH2 0x383 JUMPI DUP1 DUP3 MUL SWAP2 POP JUMPDEST DUP1 DUP2 MUL SWAP1 POP PUSH2 0x391 DUP6 PUSH2 0x341 JUMP JUMPDEST SWAP5 POP PUSH2 0x358 JUMP JUMPDEST SWAP5 POP SWAP5 SWAP3 POP POP POP JUMP JUMPDEST PUSH1 0x0 DUP3 PUSH2 0x3B1 JUMPI PUSH1 0x1 SWAP1 POP PUSH2 0x46D JUMP JUMPDEST DUP2 PUSH2 0x3BF JUMPI PUSH1 0x0 SWAP1 POP PUSH2 0x46D JUMP JUMPDEST DUP2 PUSH1 0x1 DUP2 EQ PUSH2 0x3D5 JUMPI PUSH1 0x2 DUP2 EQ PUSH2 0x3DF JUMPI PUSH2 0x40E JUMP JUMPDEST PUSH1 0x1 SWAP2 POP POP PUSH2 0x46D JUMP JUMPDEST PUSH1 0xFF DUP5 GT ISZERO PUSH2 0x3F1 JUMPI PUSH2 0x3F0 PUSH2 0x253 JUMP JUMPDEST JUMPDEST DUP4 PUSH1 0x2 EXP SWAP2 POP DUP5 DUP3 GT ISZERO PUSH2 0x408 JUMPI PUSH2 0x407 PUSH2 0x253 JUMP JUMPDEST JUMPDEST POP PUSH2 0x46D JUMP JUMPDEST POP PUSH1 0x20 DUP4 LT PUSH2 0x133 DUP4 LT AND PUSH1 0x4E DUP5 LT PUSH1 0xB DUP5 LT AND OR ISZERO PUSH2 0x443 JUMPI DUP3 DUP3 EXP SWAP1 POP DUP4 DUP2 GT ISZERO PUSH2 0x43E JUMPI PUSH2 0x43D PUSH2 0x253 JUMP JUMPDEST JUMPDEST PUSH2 0x46D JUMP JUMPDEST PUSH2 0x450 DUP5 DUP5 DUP5 PUSH1 0x1 PUSH2 0x34E JUMP JUMPDEST SWAP3 POP SWAP1 POP DUP2 DUP5 DIV DUP2 GT ISZERO PUSH2 0x467 JUMPI PUSH2 0x466 PUSH2 0x253 JUMP JUMPDEST JUMPDEST DUP2 DUP2 MUL SWAP1 POP JUMPDEST SWAP4 SWAP3 POP POP POP JUMP JUMPDEST PUSH1 0x0 PUSH2 0x47F DUP3 PUSH2 0x126 JUMP JUMPDEST SWAP2 POP PUSH2 0x48A DUP4 PUSH2 0x126 JUMP JUMPDEST SWAP3 POP PUSH2 0x4B7 PUSH32 0xFFFFFFFFFFFFFFFFFFFFFFFFFFFFFFFFFFFFFFFFFFFFFFFFFFFFFFFFFFFFFFFF DUP5 DUP5 PUSH2 0x3A1 JUMP JUMPDEST SWAP1 POP SWAP3 SWAP2 POP POP JUMP INVALID LOG2 PUSH5 0x6970667358 0x22 SLT KECCAK256 SWAP3 ADDMOD 0xDB 0x4D 0xDE MLOAD 0xB5 0xD4 SWAP6 0xD4 0xC0 EXTCODECOPY DUP1 POP PUSH15 0xD4EA66B9AB853EC6EB576211E17440 ISZERO CODESIZE PUSH5 0x736F6C6343 STOP ADDMOD LT STOP CALLER "
				},
				"gasEstimates": {
					"creation": {
						"codeDepositCost": "253800",
						"executionCost": "294",
						"totalCost": "254094"
					},
					"external": {
						"palindrome(uint256)": "infinite",
						"power(uint256,uint256)": "infinite"
					}
				},
				"methodIdentifiers": {
					"palindrome(uint256)": "84aced8c",
					"power(uint256,uint256)": "c04f01fc"
				}
			},
			"storageLayout": {
				"storage": [],
				"types": null
			},
			"userdoc": {
				"kind": "user",
				"methods": {},
				"version": 1
			}
		}
	}
}