{
	"contracts/24-Aug-assignment-2.sol": {
		"task1": {
			"abi": [
				{
					"inputs": [
						{
							"internalType": "int256",
							"name": "a",
							"type": "int256"
						},
						{
							"internalType": "uint256",
							"name": "b",
							"type": "uint256"
						}
					],
					"name": "evaluate",
					"outputs": [],
					"stateMutability": "nonpayable",
					"type": "function"
				},
				{
					"inputs": [],
					"name": "getNumber",
					"outputs": [
						{
							"internalType": "uint256",
							"name": "",
							"type": "uint256"
						}
					],
					"stateMutability": "view",
					"type": "function"
				},
				{
					"inputs": [
						{
							"internalType": "uint256",
							"name": "_num",
							"type": "uint256"
						}
					],
					"name": "setNumber",
					"outputs": [],
					"stateMutability": "nonpayable",
					"type": "function"
				}
			],
			"devdoc": {
				"kind": "dev",
				"methods": {},
				"version": 1
			},
			"evm": {
				"assembly": "    /* \"contracts/24-Aug-assignment-2.sol\":64:360  contract task1 ... */\n  mstore(0x40, 0x80)\n  callvalue\n  dup1\n  iszero\n  tag_1\n  jumpi\n  0x00\n  dup1\n  revert\ntag_1:\n  pop\n  dataSize(sub_0)\n  dup1\n  dataOffset(sub_0)\n  0x00\n  codecopy\n  0x00\n  return\nstop\n\nsub_0: assembly {\n        /* \"contracts/24-Aug-assignment-2.sol\":64:360  contract task1 ... */\n      mstore(0x40, 0x80)\n      callvalue\n      dup1\n      iszero\n      tag_1\n      jumpi\n      0x00\n      dup1\n      revert\n    tag_1:\n      pop\n      jumpi(tag_2, lt(calldatasize, 0x04))\n      shr(0xe0, calldataload(0x00))\n      dup1\n      0x3fb5c1cb\n      eq\n      tag_3\n      jumpi\n      dup1\n      0xdeacb085\n      eq\n      tag_4\n      jumpi\n      dup1\n      0xf2c9ecd8\n      eq\n      tag_5\n      jumpi\n    tag_2:\n      0x00\n      dup1\n      revert\n        /* \"contracts/24-Aug-assignment-2.sol\":120:184  function setNumber(uint _num) public {... */\n    tag_3:\n      tag_6\n      0x04\n      dup1\n      calldatasize\n      sub\n      dup2\n      add\n      swap1\n      tag_7\n      swap2\n      swap1\n      tag_8\n      jump\t// in\n    tag_7:\n      tag_9\n      jump\t// in\n    tag_6:\n      stop\n        /* \"contracts/24-Aug-assignment-2.sol\":308:356  function evaluate(int a, uint b) public {... */\n    tag_4:\n      tag_10\n      0x04\n      dup1\n      calldatasize\n      sub\n      dup2\n      add\n      swap1\n      tag_11\n      swap2\n      swap1\n      tag_12\n      jump\t// in\n    tag_11:\n      tag_13\n      jump\t// in\n    tag_10:\n      stop\n        /* \"contracts/24-Aug-assignment-2.sol\":190:265  function getNumber() public view returns (uint) {... */\n    tag_5:\n      tag_14\n      tag_15\n      jump\t// in\n    tag_14:\n      mload(0x40)\n      tag_16\n      swap2\n      swap1\n      tag_17\n      jump\t// in\n    tag_16:\n      mload(0x40)\n      dup1\n      swap2\n      sub\n      swap1\n      return\n        /* \"contracts/24-Aug-assignment-2.sol\":120:184  function setNumber(uint _num) public {... */\n    tag_9:\n        /* \"contracts/24-Aug-assignment-2.sol\":173:177  _num */\n      dup1\n        /* \"contracts/24-Aug-assignment-2.sol\":167:170  num */\n      0x00\n        /* \"contracts/24-Aug-assignment-2.sol\":167:177  num = _num */\n      dup2\n      swap1\n      sstore\n      pop\n        /* \"contracts/24-Aug-assignment-2.sol\":120:184  function setNumber(uint _num) public {... */\n      pop\n      jump\t// out\n        /* \"contracts/24-Aug-assignment-2.sol\":308:356  function evaluate(int a, uint b) public {... */\n    tag_13:\n      pop\n      pop\n      jump\t// out\n        /* \"contracts/24-Aug-assignment-2.sol\":190:265  function getNumber() public view returns (uint) {... */\n    tag_15:\n        /* \"contracts/24-Aug-assignment-2.sol\":232:236  uint */\n      0x00\n        /* \"contracts/24-Aug-assignment-2.sol\":255:258  num */\n      dup1\n      sload\n        /* \"contracts/24-Aug-assignment-2.sol\":248:258  return num */\n      swap1\n      pop\n        /* \"contracts/24-Aug-assignment-2.sol\":190:265  function getNumber() public view returns (uint) {... */\n      swap1\n      jump\t// out\n        /* \"#utility.yul\":88:205   */\n    tag_22:\n        /* \"#utility.yul\":197:198   */\n      0x00\n        /* \"#utility.yul\":194:195   */\n      dup1\n        /* \"#utility.yul\":187:199   */\n      revert\n        /* \"#utility.yul\":334:411   */\n    tag_24:\n        /* \"#utility.yul\":371:378   */\n      0x00\n        /* \"#utility.yul\":400:405   */\n      dup2\n        /* \"#utility.yul\":389:405   */\n      swap1\n      pop\n        /* \"#utility.yul\":334:411   */\n      swap2\n      swap1\n      pop\n      jump\t// out\n        /* \"#utility.yul\":417:539   */\n    tag_25:\n        /* \"#utility.yul\":490:514   */\n      tag_37\n        /* \"#utility.yul\":508:513   */\n      dup2\n        /* \"#utility.yul\":490:514   */\n      tag_24\n      jump\t// in\n    tag_37:\n        /* \"#utility.yul\":483:488   */\n      dup2\n        /* \"#utility.yul\":480:515   */\n      eq\n        /* \"#utility.yul\":470:533   */\n      tag_38\n      jumpi\n        /* \"#utility.yul\":529:530   */\n      0x00\n        /* \"#utility.yul\":526:527   */\n      dup1\n        /* \"#utility.yul\":519:531   */\n      revert\n        /* \"#utility.yul\":470:533   */\n    tag_38:\n        /* \"#utility.yul\":417:539   */\n      pop\n      jump\t// out\n        /* \"#utility.yul\":545:684   */\n    tag_26:\n        /* \"#utility.yul\":591:596   */\n      0x00\n        /* \"#utility.yul\":629:635   */\n      dup2\n        /* \"#utility.yul\":616:636   */\n      calldataload\n        /* \"#utility.yul\":607:636   */\n      swap1\n      pop\n        /* \"#utility.yul\":645:678   */\n      tag_40\n        /* \"#utility.yul\":672:677   */\n      dup2\n        /* \"#utility.yul\":645:678   */\n      tag_25\n      jump\t// in\n    tag_40:\n        /* \"#utility.yul\":545:684   */\n      swap3\n      swap2\n      pop\n      pop\n      jump\t// out\n        /* \"#utility.yul\":690:1019   */\n    tag_8:\n        /* \"#utility.yul\":749:755   */\n      0x00\n        /* \"#utility.yul\":798:800   */\n      0x20\n        /* \"#utility.yul\":786:795   */\n      dup3\n        /* \"#utility.yul\":777:784   */\n      dup5\n        /* \"#utility.yul\":773:796   */\n      sub\n        /* \"#utility.yul\":769:801   */\n      slt\n        /* \"#utility.yul\":766:885   */\n      iszero\n      tag_42\n      jumpi\n        /* \"#utility.yul\":804:883   */\n      tag_43\n      tag_22\n      jump\t// in\n    tag_43:\n        /* \"#utility.yul\":766:885   */\n    tag_42:\n        /* \"#utility.yul\":924:925   */\n      0x00\n        /* \"#utility.yul\":949:1002   */\n      tag_44\n        /* \"#utility.yul\":994:1001   */\n      dup5\n        /* \"#utility.yul\":985:991   */\n      dup3\n        /* \"#utility.yul\":974:983   */\n      dup6\n        /* \"#utility.yul\":970:992   */\n      add\n        /* \"#utility.yul\":949:1002   */\n      tag_26\n      jump\t// in\n    tag_44:\n        /* \"#utility.yul\":939:1002   */\n      swap2\n      pop\n        /* \"#utility.yul\":895:1012   */\n      pop\n        /* \"#utility.yul\":690:1019   */\n      swap3\n      swap2\n      pop\n      pop\n      jump\t// out\n        /* \"#utility.yul\":1025:1101   */\n    tag_27:\n        /* \"#utility.yul\":1061:1068   */\n      0x00\n        /* \"#utility.yul\":1090:1095   */\n      dup2\n        /* \"#utility.yul\":1079:1095   */\n      swap1\n      pop\n        /* \"#utility.yul\":1025:1101   */\n      swap2\n      swap1\n      pop\n      jump\t// out\n        /* \"#utility.yul\":1107:1227   */\n    tag_28:\n        /* \"#utility.yul\":1179:1202   */\n      tag_47\n        /* \"#utility.yul\":1196:1201   */\n      dup2\n        /* \"#utility.yul\":1179:1202   */\n      tag_27\n      jump\t// in\n    tag_47:\n        /* \"#utility.yul\":1172:1177   */\n      dup2\n        /* \"#utility.yul\":1169:1203   */\n      eq\n        /* \"#utility.yul\":1159:1221   */\n      tag_48\n      jumpi\n        /* \"#utility.yul\":1217:1218   */\n      0x00\n        /* \"#utility.yul\":1214:1215   */\n      dup1\n        /* \"#utility.yul\":1207:1219   */\n      revert\n        /* \"#utility.yul\":1159:1221   */\n    tag_48:\n        /* \"#utility.yul\":1107:1227   */\n      pop\n      jump\t// out\n        /* \"#utility.yul\":1233:1370   */\n    tag_29:\n        /* \"#utility.yul\":1278:1283   */\n      0x00\n        /* \"#utility.yul\":1316:1322   */\n      dup2\n        /* \"#utility.yul\":1303:1323   */\n      calldataload\n        /* \"#utility.yul\":1294:1323   */\n      swap1\n      pop\n        /* \"#utility.yul\":1332:1364   */\n      tag_50\n        /* \"#utility.yul\":1358:1363   */\n      dup2\n        /* \"#utility.yul\":1332:1364   */\n      tag_28\n      jump\t// in\n    tag_50:\n        /* \"#utility.yul\":1233:1370   */\n      swap3\n      swap2\n      pop\n      pop\n      jump\t// out\n        /* \"#utility.yul\":1376:1848   */\n    tag_12:\n        /* \"#utility.yul\":1443:1449   */\n      0x00\n        /* \"#utility.yul\":1451:1457   */\n      dup1\n        /* \"#utility.yul\":1500:1502   */\n      0x40\n        /* \"#utility.yul\":1488:1497   */\n      dup4\n        /* \"#utility.yul\":1479:1486   */\n      dup6\n        /* \"#utility.yul\":1475:1498   */\n      sub\n        /* \"#utility.yul\":1471:1503   */\n      slt\n        /* \"#utility.yul\":1468:1587   */\n      iszero\n      tag_52\n      jumpi\n        /* \"#utility.yul\":1506:1585   */\n      tag_53\n      tag_22\n      jump\t// in\n    tag_53:\n        /* \"#utility.yul\":1468:1587   */\n    tag_52:\n        /* \"#utility.yul\":1626:1627   */\n      0x00\n        /* \"#utility.yul\":1651:1703   */\n      tag_54\n        /* \"#utility.yul\":1695:1702   */\n      dup6\n        /* \"#utility.yul\":1686:1692   */\n      dup3\n        /* \"#utility.yul\":1675:1684   */\n      dup7\n        /* \"#utility.yul\":1671:1693   */\n      add\n        /* \"#utility.yul\":1651:1703   */\n      tag_29\n      jump\t// in\n    tag_54:\n        /* \"#utility.yul\":1641:1703   */\n      swap3\n      pop\n        /* \"#utility.yul\":1597:1713   */\n      pop\n        /* \"#utility.yul\":1752:1754   */\n      0x20\n        /* \"#utility.yul\":1778:1831   */\n      tag_55\n        /* \"#utility.yul\":1823:1830   */\n      dup6\n        /* \"#utility.yul\":1814:1820   */\n      dup3\n        /* \"#utility.yul\":1803:1812   */\n      dup7\n        /* \"#utility.yul\":1799:1821   */\n      add\n        /* \"#utility.yul\":1778:1831   */\n      tag_26\n      jump\t// in\n    tag_55:\n        /* \"#utility.yul\":1768:1831   */\n      swap2\n      pop\n        /* \"#utility.yul\":1723:1841   */\n      pop\n        /* \"#utility.yul\":1376:1848   */\n      swap3\n      pop\n      swap3\n      swap1\n      pop\n      jump\t// out\n        /* \"#utility.yul\":1854:1972   */\n    tag_30:\n        /* \"#utility.yul\":1941:1965   */\n      tag_57\n        /* \"#utility.yul\":1959:1964   */\n      dup2\n        /* \"#utility.yul\":1941:1965   */\n      tag_24\n      jump\t// in\n    tag_57:\n        /* \"#utility.yul\":1936:1939   */\n      dup3\n        /* \"#utility.yul\":1929:1966   */\n      mstore\n        /* \"#utility.yul\":1854:1972   */\n      pop\n      pop\n      jump\t// out\n        /* \"#utility.yul\":1978:2200   */\n    tag_17:\n        /* \"#utility.yul\":2071:2075   */\n      0x00\n        /* \"#utility.yul\":2109:2111   */\n      0x20\n        /* \"#utility.yul\":2098:2107   */\n      dup3\n        /* \"#utility.yul\":2094:2112   */\n      add\n        /* \"#utility.yul\":2086:2112   */\n      swap1\n      pop\n        /* \"#utility.yul\":2122:2193   */\n      tag_59\n        /* \"#utility.yul\":2190:2191   */\n      0x00\n        /* \"#utility.yul\":2179:2188   */\n      dup4\n        /* \"#utility.yul\":2175:2192   */\n      add\n        /* \"#utility.yul\":2166:2172   */\n      dup5\n        /* \"#utility.yul\":2122:2193   */\n      tag_30\n      jump\t// in\n    tag_59:\n        /* \"#utility.yul\":1978:2200   */\n      swap3\n      swap2\n      pop\n      pop\n      jump\t// out\n\n    auxdata: 0xa26469706673582212203ff2441e17d780cc78c829a59007ce68721c39b6c6507ec55042ed1a136cf47f64736f6c63430008100033\n}\n",
				"bytecode": {
					"linkReferences": {},
					"object": "608060405234801561001057600080fd5b506101f1806100206000396000f3fe608060405234801561001057600080fd5b50600436106100415760003560e01c80633fb5c1cb14610046578063deacb08514610062578063f2c9ecd81461007e575b600080fd5b610060600480360381019061005b91906100ee565b61009c565b005b61007c60048036038101906100779190610151565b6100a6565b005b6100866100aa565b60405161009391906101a0565b60405180910390f35b8060008190555050565b5050565b60008054905090565b600080fd5b6000819050919050565b6100cb816100b8565b81146100d657600080fd5b50565b6000813590506100e8816100c2565b92915050565b600060208284031215610104576101036100b3565b5b6000610112848285016100d9565b91505092915050565b6000819050919050565b61012e8161011b565b811461013957600080fd5b50565b60008135905061014b81610125565b92915050565b60008060408385031215610168576101676100b3565b5b60006101768582860161013c565b9250506020610187858286016100d9565b9150509250929050565b61019a816100b8565b82525050565b60006020820190506101b56000830184610191565b9291505056fea26469706673582212203ff2441e17d780cc78c829a59007ce68721c39b6c6507ec55042ed1a136cf47f64736f6c63430008100033",
					"opcodes": "PUSH1 0x80 PUSH1 0x40 MSTORE CALLVALUE DUP1 ISZERO PUSH2 0x10 JUMPI PUSH1 0x0 DUP1 REVERT JUMPDEST POP PUSH2 0x1F1 DUP1 PUSH2 0x20 PUSH1 0x0 CODECOPY PUSH1 0x0 RETURN INVALID PUSH1 0x80 PUSH1 0x40 MSTORE CALLVALUE DUP1 ISZERO PUSH2 0x10 JUMPI PUSH1 0x0 DUP1 REVERT JUMPDEST POP PUSH1 0x4 CALLDATASIZE LT PUSH2 0x41 JUMPI PUSH1 0x0 CALLDATALOAD PUSH1 0xE0 SHR DUP1 PUSH4 0x3FB5C1CB EQ PUSH2 0x46 JUMPI DUP1 PUSH4 0xDEACB085 EQ PUSH2 0x62 JUMPI DUP1 PUSH4 0xF2C9ECD8 EQ PUSH2 0x7E JUMPI JUMPDEST PUSH1 0x0 DUP1 REVERT JUMPDEST PUSH2 0x60 PUSH1 0x4 DUP1 CALLDATASIZE SUB DUP2 ADD SWAP1 PUSH2 0x5B SWAP2 SWAP1 PUSH2 0xEE JUMP JUMPDEST PUSH2 0x9C JUMP JUMPDEST STOP JUMPDEST PUSH2 0x7C PUSH1 0x4 DUP1 CALLDATASIZE SUB DUP2 ADD SWAP1 PUSH2 0x77 SWAP2 SWAP1 PUSH2 0x151 JUMP JUMPDEST PUSH2 0xA6 JUMP JUMPDEST STOP JUMPDEST PUSH2 0x86 PUSH2 0xAA JUMP JUMPDEST PUSH1 0x40 MLOAD PUSH2 0x93 SWAP2 SWAP1 PUSH2 0x1A0 JUMP JUMPDEST PUSH1 0x40 MLOAD DUP1 SWAP2 SUB SWAP1 RETURN JUMPDEST DUP1 PUSH1 0x0 DUP2 SWAP1 SSTORE POP POP JUMP JUMPDEST POP POP JUMP JUMPDEST PUSH1 0x0 DUP1 SLOAD SWAP1 POP SWAP1 JUMP JUMPDEST PUSH1 0x0 DUP1 REVERT JUMPDEST PUSH1 0x0 DUP2 SWAP1 POP SWAP2 SWAP1 POP JUMP JUMPDEST PUSH2 0xCB DUP2 PUSH2 0xB8 JUMP JUMPDEST DUP2 EQ PUSH2 0xD6 JUMPI PUSH1 0x0 DUP1 REVERT JUMPDEST POP JUMP JUMPDEST PUSH1 0x0 DUP2 CALLDATALOAD SWAP1 POP PUSH2 0xE8 DUP2 PUSH2 0xC2 JUMP JUMPDEST SWAP3 SWAP2 POP POP JUMP JUMPDEST PUSH1 0x0 PUSH1 0x20 DUP3 DUP5 SUB SLT ISZERO PUSH2 0x104 JUMPI PUSH2 0x103 PUSH2 0xB3 JUMP JUMPDEST JUMPDEST PUSH1 0x0 PUSH2 0x112 DUP5 DUP3 DUP6 ADD PUSH2 0xD9 JUMP JUMPDEST SWAP2 POP POP SWAP3 SWAP2 POP POP JUMP JUMPDEST PUSH1 0x0 DUP2 SWAP1 POP SWAP2 SWAP1 POP JUMP JUMPDEST PUSH2 0x12E DUP2 PUSH2 0x11B JUMP JUMPDEST DUP2 EQ PUSH2 0x139 JUMPI PUSH1 0x0 DUP1 REVERT JUMPDEST POP JUMP JUMPDEST PUSH1 0x0 DUP2 CALLDATALOAD SWAP1 POP PUSH2 0x14B DUP2 PUSH2 0x125 JUMP JUMPDEST SWAP3 SWAP2 POP POP JUMP JUMPDEST PUSH1 0x0 DUP1 PUSH1 0x40 DUP4 DUP6 SUB SLT ISZERO PUSH2 0x168 JUMPI PUSH2 0x167 PUSH2 0xB3 JUMP JUMPDEST JUMPDEST PUSH1 0x0 PUSH2 0x176 DUP6 DUP3 DUP7 ADD PUSH2 0x13C JUMP JUMPDEST SWAP3 POP POP PUSH1 0x20 PUSH2 0x187 DUP6 DUP3 DUP7 ADD PUSH2 0xD9 JUMP JUMPDEST SWAP2 POP POP SWAP3 POP SWAP3 SWAP1 POP JUMP JUMPDEST PUSH2 0x19A DUP2 PUSH2 0xB8 JUMP JUMPDEST DUP3 MSTORE POP POP JUMP JUMPDEST PUSH1 0x0 PUSH1 0x20 DUP3 ADD SWAP1 POP PUSH2 0x1B5 PUSH1 0x0 DUP4 ADD DUP5 PUSH2 0x191 JUMP JUMPDEST SWAP3 SWAP2 POP POP JUMP INVALID LOG2 PUSH5 0x6970667358 0x22 SLT KECCAK256 EXTCODEHASH CALLCODE DIFFICULTY 0x1E OR 0xD7 DUP1 0xCC PUSH25 0xC829A59007CE68721C39B6C6507EC55042ED1A136CF47F6473 PUSH16 0x6C634300081000330000000000000000 "
				},
				"gasEstimates": {
					"creation": {
						"codeDepositCost": "99400",
						"executionCost": "147",
						"totalCost": "99547"
					},
					"external": {
						"evaluate(int256,uint256)": "579",
						"getNumber()": "2459",
						"setNumber(uint256)": "22498"
					}
				},
				"methodIdentifiers": {
					"evaluate(int256,uint256)": "deacb085",
					"getNumber()": "f2c9ecd8",
					"setNumber(uint256)": "3fb5c1cb"
				}
			},
			"storageLayout": {
				"storage": [
					{
						"astId": 3,
						"contract": "contracts/24-Aug-assignment-2.sol:task1",
						"label": "num",
						"offset": 0,
						"slot": "0",
						"type": "t_uint256"
					}
				],
				"types": {
					"t_uint256": {
						"encoding": "inplace",
						"label": "uint256",
						"numberOfBytes": "32"
					}
				}
			},
			"userdoc": {
				"kind": "user",
				"methods": {},
				"version": 1
			}
		}
	}
}